{
	"smartChefFactory2.sol": {
		"SmartChefFactory": {
			"abi": [
				{
					"inputs": [],
					"stateMutability": "nonpayable",
					"type": "constructor"
				},
				{
					"anonymous": false,
					"inputs": [
						{
							"indexed": true,
							"internalType": "address",
							"name": "smartChef",
							"type": "address"
						}
					],
					"name": "NewSmartChefContract",
					"type": "event"
				},
				{
					"anonymous": false,
					"inputs": [
						{
							"indexed": true,
							"internalType": "address",
							"name": "previousOwner",
							"type": "address"
						},
						{
							"indexed": true,
							"internalType": "address",
							"name": "newOwner",
							"type": "address"
						}
					],
					"name": "OwnershipTransferred",
					"type": "event"
				},
				{
					"inputs": [
						{
							"internalType": "contract IBEP20",
							"name": "_stakedToken",
							"type": "address"
						},
						{
							"internalType": "contract IBEP20",
							"name": "_rewardToken",
							"type": "address"
						},
						{
							"internalType": "uint256",
							"name": "_rewardPerBlock",
							"type": "uint256"
						},
						{
							"internalType": "uint256",
							"name": "_startBlock",
							"type": "uint256"
						},
						{
							"internalType": "uint256",
							"name": "_bonusEndBlock",
							"type": "uint256"
						},
						{
							"internalType": "uint256",
							"name": "_poolLimitPerUser",
							"type": "uint256"
						},
						{
							"internalType": "address",
							"name": "_admin",
							"type": "address"
						}
					],
					"name": "deployPool",
					"outputs": [],
					"stateMutability": "nonpayable",
					"type": "function"
				},
				{
					"inputs": [],
					"name": "owner",
					"outputs": [
						{
							"internalType": "address",
							"name": "",
							"type": "address"
						}
					],
					"stateMutability": "view",
					"type": "function"
				},
				{
					"inputs": [],
					"name": "renounceOwnership",
					"outputs": [],
					"stateMutability": "nonpayable",
					"type": "function"
				},
				{
					"inputs": [
						{
							"internalType": "address",
							"name": "newOwner",
							"type": "address"
						}
					],
					"name": "transferOwnership",
					"outputs": [],
					"stateMutability": "nonpayable",
					"type": "function"
				}
			],
			"devdoc": {
				"kind": "dev",
				"methods": {
					"owner()": {
						"details": "Returns the address of the current owner."
					},
					"renounceOwnership()": {
						"details": "Leaves the contract without owner. It will not be possible to call `onlyOwner` functions anymore. Can only be called by the current owner. NOTE: Renouncing ownership will leave the contract without an owner, thereby removing any functionality that is only available to the owner."
					},
					"transferOwnership(address)": {
						"details": "Transfers ownership of the contract to a new account (`newOwner`). Can only be called by the current owner."
					}
				},
				"version": 1
			},
			"evm": {
				"assembly": "    /* \"smartChefFactory2.sol\":40393:42136  contract SmartChefFactory is Ownable {\r... */\n  mstore(0x40, 0x80)\n    /* \"smartChefFactory2.sol\":40499:40540  constructor() public {\r... */\n  callvalue\n  dup1\n  iszero\n  tag_1\n  jumpi\n  0x00\n  dup1\n  revert\ntag_1:\n  pop\n    /* \"smartChefFactory2.sol\":1918:1935  address msgSender */\n  0x00\n    /* \"smartChefFactory2.sol\":1938:1950  _msgSender() */\n  tag_5\n    /* \"smartChefFactory2.sol\":1938:1948  _msgSender */\n  shl(0x20, tag_6)\n    /* \"smartChefFactory2.sol\":1938:1950  _msgSender() */\n  0x20\n  shr\n  jump\t// in\ntag_5:\n    /* \"smartChefFactory2.sol\":1918:1950  address msgSender = _msgSender() */\n  swap1\n  pop\n    /* \"smartChefFactory2.sol\":1970:1979  msgSender */\n  dup1\n    /* \"smartChefFactory2.sol\":1961:1967  _owner */\n  0x00\n  dup1\n    /* \"smartChefFactory2.sol\":1961:1979  _owner = msgSender */\n  0x0100\n  exp\n  dup2\n  sload\n  dup2\n  0xffffffffffffffffffffffffffffffffffffffff\n  mul\n  not\n  and\n  swap1\n  dup4\n  0xffffffffffffffffffffffffffffffffffffffff\n  and\n  mul\n  or\n  swap1\n  sstore\n  pop\n    /* \"smartChefFactory2.sol\":2028:2037  msgSender */\n  dup1\n    /* \"smartChefFactory2.sol\":1995:2038  OwnershipTransferred(address(0), msgSender) */\n  0xffffffffffffffffffffffffffffffffffffffff\n  and\n    /* \"smartChefFactory2.sol\":2024:2025  0 */\n  0x00\n    /* \"smartChefFactory2.sol\":1995:2038  OwnershipTransferred(address(0), msgSender) */\n  0xffffffffffffffffffffffffffffffffffffffff\n  and\n  0x8be0079c531659141344cd1fd0a4f28419497f9722a3daafe3b4186f6b6457e0\n  mload(0x40)\n  mload(0x40)\n  dup1\n  swap2\n  sub\n  swap1\n  log3\n    /* \"smartChefFactory2.sol\":1884:2046  constructor() internal {\r... */\n  pop\n    /* \"smartChefFactory2.sol\":40393:42136  contract SmartChefFactory is Ownable {\r... */\n  jump(tag_8)\n    /* \"smartChefFactory2.sol\":667:773  function _msgSender() internal view virtual returns (address payable) {\r... */\ntag_6:\n    /* \"smartChefFactory2.sol\":720:735  address payable */\n  0x00\n    /* \"smartChefFactory2.sol\":755:765  msg.sender */\n  caller\n    /* \"smartChefFactory2.sol\":748:765  return msg.sender */\n  swap1\n  pop\n    /* \"smartChefFactory2.sol\":667:773  function _msgSender() internal view virtual returns (address payable) {\r... */\n  swap1\n  jump\t// out\n    /* \"smartChefFactory2.sol\":40393:42136  contract SmartChefFactory is Ownable {\r... */\ntag_8:\n  dataSize(sub_0)\n  dup1\n  dataOffset(sub_0)\n  0x00\n  codecopy\n  0x00\n  return\nstop\n\nsub_0: assembly {\n        /* \"smartChefFactory2.sol\":40393:42136  contract SmartChefFactory is Ownable {\r... */\n      mstore(0x40, 0x80)\n      callvalue\n      dup1\n      iszero\n      tag_1\n      jumpi\n      0x00\n      dup1\n      revert\n    tag_1:\n      pop\n      jumpi(tag_2, lt(calldatasize, 0x04))\n      shr(0xe0, calldataload(0x00))\n      dup1\n      0x715018a6\n      eq\n      tag_3\n      jumpi\n      dup1\n      0x8da5cb5b\n      eq\n      tag_4\n      jumpi\n      dup1\n      0xcc8402f5\n      eq\n      tag_5\n      jumpi\n      dup1\n      0xf2fde38b\n      eq\n      tag_6\n      jumpi\n    tag_2:\n      0x00\n      dup1\n      revert\n        /* \"smartChefFactory2.sol\":2778:2926  function renounceOwnership() public virtual onlyOwner {\r... */\n    tag_3:\n      tag_7\n      tag_8\n      jump\t// in\n    tag_7:\n      stop\n        /* \"smartChefFactory2.sol\":2127:2214  function owner() public view virtual returns (address) {\r... */\n    tag_4:\n      tag_9\n      tag_10\n      jump\t// in\n    tag_9:\n      mload(0x40)\n      dup1\n      dup3\n      0xffffffffffffffffffffffffffffffffffffffff\n      and\n      dup2\n      mstore\n      0x20\n      add\n      swap2\n      pop\n      pop\n      mload(0x40)\n      dup1\n      swap2\n      sub\n      swap1\n      return\n        /* \"smartChefFactory2.sol\":41028:42133  function deployPool(\r... */\n    tag_5:\n      tag_11\n      0x04\n      dup1\n      calldatasize\n      sub\n      0xe0\n      dup2\n      lt\n      iszero\n      tag_12\n      jumpi\n      0x00\n      dup1\n      revert\n    tag_12:\n      dup2\n      add\n      swap1\n      dup1\n      dup1\n      calldataload\n      0xffffffffffffffffffffffffffffffffffffffff\n      and\n      swap1\n      0x20\n      add\n      swap1\n      swap3\n      swap2\n      swap1\n      dup1\n      calldataload\n      0xffffffffffffffffffffffffffffffffffffffff\n      and\n      swap1\n      0x20\n      add\n      swap1\n      swap3\n      swap2\n      swap1\n      dup1\n      calldataload\n      swap1\n      0x20\n      add\n      swap1\n      swap3\n      swap2\n      swap1\n      dup1\n      calldataload\n      swap1\n      0x20\n      add\n      swap1\n      swap3\n      swap2\n      swap1\n      dup1\n      calldataload\n      swap1\n      0x20\n      add\n      swap1\n      swap3\n      swap2\n      swap1\n      dup1\n      calldataload\n      swap1\n      0x20\n      add\n      swap1\n      swap3\n      swap2\n      swap1\n      dup1\n      calldataload\n      0xffffffffffffffffffffffffffffffffffffffff\n      and\n      swap1\n      0x20\n      add\n      swap1\n      swap3\n      swap2\n      swap1\n      pop\n      pop\n      pop\n      tag_13\n      jump\t// in\n    tag_11:\n      stop\n        /* \"smartChefFactory2.sol\":3081:3325  function transferOwnership(address newOwner) public virtual onlyOwner {\r... */\n    tag_6:\n      tag_14\n      0x04\n      dup1\n      calldatasize\n      sub\n      0x20\n      dup2\n      lt\n      iszero\n      tag_15\n      jumpi\n      0x00\n      dup1\n      revert\n    tag_15:\n      dup2\n      add\n      swap1\n      dup1\n      dup1\n      calldataload\n      0xffffffffffffffffffffffffffffffffffffffff\n      and\n      swap1\n      0x20\n      add\n      swap1\n      swap3\n      swap2\n      swap1\n      pop\n      pop\n      pop\n      tag_16\n      jump\t// in\n    tag_14:\n      stop\n        /* \"smartChefFactory2.sol\":2778:2926  function renounceOwnership() public virtual onlyOwner {\r... */\n    tag_8:\n        /* \"smartChefFactory2.sol\":2358:2370  _msgSender() */\n      tag_18\n        /* \"smartChefFactory2.sol\":2358:2368  _msgSender */\n      tag_19\n        /* \"smartChefFactory2.sol\":2358:2370  _msgSender() */\n      jump\t// in\n    tag_18:\n        /* \"smartChefFactory2.sol\":2347:2370  owner() == _msgSender() */\n      0xffffffffffffffffffffffffffffffffffffffff\n      and\n        /* \"smartChefFactory2.sol\":2347:2354  owner() */\n      tag_20\n        /* \"smartChefFactory2.sol\":2347:2352  owner */\n      tag_10\n        /* \"smartChefFactory2.sol\":2347:2354  owner() */\n      jump\t// in\n    tag_20:\n        /* \"smartChefFactory2.sol\":2347:2370  owner() == _msgSender() */\n      0xffffffffffffffffffffffffffffffffffffffff\n      and\n      eq\n        /* \"smartChefFactory2.sol\":2339:2407  require(owner() == _msgSender(), \"Ownable: caller is not the owner\") */\n      tag_21\n      jumpi\n      mload(0x40)\n      0x08c379a000000000000000000000000000000000000000000000000000000000\n      dup2\n      mstore\n      0x04\n      add\n      dup1\n      dup1\n      0x20\n      add\n      dup3\n      dup2\n      sub\n      dup3\n      mstore\n      0x20\n      dup2\n      mstore\n      0x20\n      add\n      dup1\n      0x4f776e61626c653a2063616c6c6572206973206e6f7420746865206f776e6572\n      dup2\n      mstore\n      pop\n      0x20\n      add\n      swap2\n      pop\n      pop\n      mload(0x40)\n      dup1\n      swap2\n      sub\n      swap1\n      revert\n    tag_21:\n        /* \"smartChefFactory2.sol\":2885:2886  0 */\n      0x00\n        /* \"smartChefFactory2.sol\":2848:2888  OwnershipTransferred(_owner, address(0)) */\n      0xffffffffffffffffffffffffffffffffffffffff\n      and\n        /* \"smartChefFactory2.sol\":2869:2875  _owner */\n      0x00\n      dup1\n      sload\n      swap1\n      0x0100\n      exp\n      swap1\n      div\n      0xffffffffffffffffffffffffffffffffffffffff\n      and\n        /* \"smartChefFactory2.sol\":2848:2888  OwnershipTransferred(_owner, address(0)) */\n      0xffffffffffffffffffffffffffffffffffffffff\n      and\n      0x8be0079c531659141344cd1fd0a4f28419497f9722a3daafe3b4186f6b6457e0\n      mload(0x40)\n      mload(0x40)\n      dup1\n      swap2\n      sub\n      swap1\n      log3\n        /* \"smartChefFactory2.sol\":2916:2917  0 */\n      0x00\n        /* \"smartChefFactory2.sol\":2899:2905  _owner */\n      dup1\n      0x00\n        /* \"smartChefFactory2.sol\":2899:2918  _owner = address(0) */\n      0x0100\n      exp\n      dup2\n      sload\n      dup2\n      0xffffffffffffffffffffffffffffffffffffffff\n      mul\n      not\n      and\n      swap1\n      dup4\n      0xffffffffffffffffffffffffffffffffffffffff\n      and\n      mul\n      or\n      swap1\n      sstore\n      pop\n        /* \"smartChefFactory2.sol\":2778:2926  function renounceOwnership() public virtual onlyOwner {\r... */\n      jump\t// out\n        /* \"smartChefFactory2.sol\":2127:2214  function owner() public view virtual returns (address) {\r... */\n    tag_10:\n        /* \"smartChefFactory2.sol\":2173:2180  address */\n      0x00\n        /* \"smartChefFactory2.sol\":2200:2206  _owner */\n      dup1\n      0x00\n      swap1\n      sload\n      swap1\n      0x0100\n      exp\n      swap1\n      div\n      0xffffffffffffffffffffffffffffffffffffffff\n      and\n        /* \"smartChefFactory2.sol\":2193:2206  return _owner */\n      swap1\n      pop\n        /* \"smartChefFactory2.sol\":2127:2214  function owner() public view virtual returns (address) {\r... */\n      swap1\n      jump\t// out\n        /* \"smartChefFactory2.sol\":41028:42133  function deployPool(\r... */\n    tag_13:\n        /* \"smartChefFactory2.sol\":2358:2370  _msgSender() */\n      tag_25\n        /* \"smartChefFactory2.sol\":2358:2368  _msgSender */\n      tag_19\n        /* \"smartChefFactory2.sol\":2358:2370  _msgSender() */\n      jump\t// in\n    tag_25:\n        /* \"smartChefFactory2.sol\":2347:2370  owner() == _msgSender() */\n      0xffffffffffffffffffffffffffffffffffffffff\n      and\n        /* \"smartChefFactory2.sol\":2347:2354  owner() */\n      tag_26\n        /* \"smartChefFactory2.sol\":2347:2352  owner */\n      tag_10\n        /* \"smartChefFactory2.sol\":2347:2354  owner() */\n      jump\t// in\n    tag_26:\n        /* \"smartChefFactory2.sol\":2347:2370  owner() == _msgSender() */\n      0xffffffffffffffffffffffffffffffffffffffff\n      and\n      eq\n        /* \"smartChefFactory2.sol\":2339:2407  require(owner() == _msgSender(), \"Ownable: caller is not the owner\") */\n      tag_27\n      jumpi\n      mload(0x40)\n      0x08c379a000000000000000000000000000000000000000000000000000000000\n      dup2\n      mstore\n      0x04\n      add\n      dup1\n      dup1\n      0x20\n      add\n      dup3\n      dup2\n      sub\n      dup3\n      mstore\n      0x20\n      dup2\n      mstore\n      0x20\n      add\n      dup1\n      0x4f776e61626c653a2063616c6c6572206973206e6f7420746865206f776e6572\n      dup2\n      mstore\n      pop\n      0x20\n      add\n      swap2\n      pop\n      pop\n      mload(0x40)\n      dup1\n      swap2\n      sub\n      swap1\n      revert\n    tag_27:\n        /* \"smartChefFactory2.sol\":41341:41342  0 */\n      0x00\n        /* \"smartChefFactory2.sol\":41311:41323  _stakedToken */\n      dup8\n        /* \"smartChefFactory2.sol\":41311:41335  _stakedToken.totalSupply */\n      0xffffffffffffffffffffffffffffffffffffffff\n      and\n      0x18160ddd\n        /* \"smartChefFactory2.sol\":41311:41337  _stakedToken.totalSupply() */\n      mload(0x40)\n      dup2\n      0xffffffff\n      and\n      0xe0\n      shl\n      dup2\n      mstore\n      0x04\n      add\n      0x20\n      mload(0x40)\n      dup1\n      dup4\n      sub\n      dup2\n      dup7\n      dup1\n      extcodesize\n      iszero\n      dup1\n      iszero\n      tag_29\n      jumpi\n      0x00\n      dup1\n      revert\n    tag_29:\n      pop\n      gas\n      staticcall\n      iszero\n      dup1\n      iszero\n      tag_31\n      jumpi\n      returndatasize\n      0x00\n      dup1\n      returndatacopy\n      revert(0x00, returndatasize)\n    tag_31:\n      pop\n      pop\n      pop\n      pop\n      mload(0x40)\n      returndatasize\n      0x20\n      dup2\n      lt\n      iszero\n      tag_32\n      jumpi\n      0x00\n      dup1\n      revert\n    tag_32:\n      dup2\n      add\n      swap1\n      dup1\n      dup1\n      mload\n      swap1\n      0x20\n      add\n      swap1\n      swap3\n      swap2\n      swap1\n      pop\n      pop\n      pop\n        /* \"smartChefFactory2.sol\":41311:41342  _stakedToken.totalSupply() >= 0 */\n      lt\n      iszero\n        /* \"smartChefFactory2.sol\":41303:41343  require(_stakedToken.totalSupply() >= 0) */\n      tag_33\n      jumpi\n      0x00\n      dup1\n      revert\n    tag_33:\n        /* \"smartChefFactory2.sol\":41392:41393  0 */\n      0x00\n        /* \"smartChefFactory2.sol\":41362:41374  _rewardToken */\n      dup7\n        /* \"smartChefFactory2.sol\":41362:41386  _rewardToken.totalSupply */\n      0xffffffffffffffffffffffffffffffffffffffff\n      and\n      0x18160ddd\n        /* \"smartChefFactory2.sol\":41362:41388  _rewardToken.totalSupply() */\n      mload(0x40)\n      dup2\n      0xffffffff\n      and\n      0xe0\n      shl\n      dup2\n      mstore\n      0x04\n      add\n      0x20\n      mload(0x40)\n      dup1\n      dup4\n      sub\n      dup2\n      dup7\n      dup1\n      extcodesize\n      iszero\n      dup1\n      iszero\n      tag_34\n      jumpi\n      0x00\n      dup1\n      revert\n    tag_34:\n      pop\n      gas\n      staticcall\n      iszero\n      dup1\n      iszero\n      tag_36\n      jumpi\n      returndatasize\n      0x00\n      dup1\n      returndatacopy\n      revert(0x00, returndatasize)\n    tag_36:\n      pop\n      pop\n      pop\n      pop\n      mload(0x40)\n      returndatasize\n      0x20\n      dup2\n      lt\n      iszero\n      tag_37\n      jumpi\n      0x00\n      dup1\n      revert\n    tag_37:\n      dup2\n      add\n      swap1\n      dup1\n      dup1\n      mload\n      swap1\n      0x20\n      add\n      swap1\n      swap3\n      swap2\n      swap1\n      pop\n      pop\n      pop\n        /* \"smartChefFactory2.sol\":41362:41393  _rewardToken.totalSupply() >= 0 */\n      lt\n      iszero\n        /* \"smartChefFactory2.sol\":41354:41394  require(_rewardToken.totalSupply() >= 0) */\n      tag_38\n      jumpi\n      0x00\n      dup1\n      revert\n    tag_38:\n        /* \"smartChefFactory2.sol\":41489:41510  bytes memory bytecode */\n      0x60\n        /* \"smartChefFactory2.sol\":41513:41554  type(SmartChefInitializable).creationCode */\n      mload(0x40)\n      dup1\n      0x20\n      add\n      tag_39\n      swap1\n      tag_40\n      jump\t// in\n    tag_39:\n      0x20\n      dup3\n      add\n      dup2\n      sub\n      dup3\n      mstore\n      not(0x1f)\n      0x1f\n      dup3\n      add\n      and\n      0x40\n      mstore\n      pop\n        /* \"smartChefFactory2.sol\":41489:41554  bytes memory bytecode = type(SmartChefInitializable).creationCode */\n      swap1\n      pop\n        /* \"smartChefFactory2.sol\":41565:41577  bytes32 salt */\n      0x00\n        /* \"smartChefFactory2.sol\":41607:41619  _stakedToken */\n      dup9\n        /* \"smartChefFactory2.sol\":41621:41633  _rewardToken */\n      dup9\n        /* \"smartChefFactory2.sol\":41635:41646  _startBlock */\n      dup8\n        /* \"smartChefFactory2.sol\":41590:41647  abi.encodePacked(_stakedToken, _rewardToken, _startBlock) */\n      add(0x20, mload(0x40))\n      dup1\n      dup5\n      0xffffffffffffffffffffffffffffffffffffffff\n      and\n      0x60\n      shl\n      dup2\n      mstore\n      0x14\n      add\n      dup4\n      0xffffffffffffffffffffffffffffffffffffffff\n      and\n      0x60\n      shl\n      dup2\n      mstore\n      0x14\n      add\n      dup3\n      dup2\n      mstore\n      0x20\n      add\n      swap4\n      pop\n      pop\n      pop\n      pop\n      mload(0x40)\n      0x20\n      dup2\n      dup4\n      sub\n      sub\n      dup2\n      mstore\n      swap1\n      0x40\n      mstore\n        /* \"smartChefFactory2.sol\":41580:41648  keccak256(abi.encodePacked(_stakedToken, _rewardToken, _startBlock)) */\n      dup1\n      mload\n      swap1\n      0x20\n      add\n      keccak256\n        /* \"smartChefFactory2.sol\":41565:41648  bytes32 salt = keccak256(abi.encodePacked(_stakedToken, _rewardToken, _startBlock)) */\n      swap1\n      pop\n        /* \"smartChefFactory2.sol\":41659:41683  address smartChefAddress */\n      0x00\n        /* \"smartChefFactory2.sol\":41787:41791  salt */\n      dup2\n        /* \"smartChefFactory2.sol\":41776:41784  bytecode */\n      dup4\n        /* \"smartChefFactory2.sol\":41770:41785  mload(bytecode) */\n      mload\n        /* \"smartChefFactory2.sol\":41765:41767  32 */\n      0x20\n        /* \"smartChefFactory2.sol\":41755:41763  bytecode */\n      dup6\n        /* \"smartChefFactory2.sol\":41751:41768  add(bytecode, 32) */\n      add\n        /* \"smartChefFactory2.sol\":41748:41749  0 */\n      0x00\n        /* \"smartChefFactory2.sol\":41740:41792  create2(0, add(bytecode, 32), mload(bytecode), salt) */\n      create2\n        /* \"smartChefFactory2.sol\":41720:41792  smartChefAddress := create2(0, add(bytecode, 32), mload(bytecode), salt) */\n      swap1\n      pop\n        /* \"smartChefFactory2.sol\":41838:41854  smartChefAddress */\n      dup1\n        /* \"smartChefFactory2.sol\":41815:41866  SmartChefInitializable(smartChefAddress).initialize */\n      0xffffffffffffffffffffffffffffffffffffffff\n      and\n      0x83a5041c\n        /* \"smartChefFactory2.sol\":41881:41893  _stakedToken */\n      dup12\n        /* \"smartChefFactory2.sol\":41908:41920  _rewardToken */\n      dup12\n        /* \"smartChefFactory2.sol\":41935:41950  _rewardPerBlock */\n      dup12\n        /* \"smartChefFactory2.sol\":41965:41976  _startBlock */\n      dup12\n        /* \"smartChefFactory2.sol\":41991:42005  _bonusEndBlock */\n      dup12\n        /* \"smartChefFactory2.sol\":42020:42037  _poolLimitPerUser */\n      dup12\n        /* \"smartChefFactory2.sol\":42052:42058  _admin */\n      dup12\n        /* \"smartChefFactory2.sol\":41815:42069  SmartChefInitializable(smartChefAddress).initialize(\r... */\n      mload(0x40)\n      dup9\n      0xffffffff\n      and\n      0xe0\n      shl\n      dup2\n      mstore\n      0x04\n      add\n      dup1\n      dup9\n      0xffffffffffffffffffffffffffffffffffffffff\n      and\n      dup2\n      mstore\n      0x20\n      add\n      dup8\n      0xffffffffffffffffffffffffffffffffffffffff\n      and\n      dup2\n      mstore\n      0x20\n      add\n      dup7\n      dup2\n      mstore\n      0x20\n      add\n      dup6\n      dup2\n      mstore\n      0x20\n      add\n      dup5\n      dup2\n      mstore\n      0x20\n      add\n      dup4\n      dup2\n      mstore\n      0x20\n      add\n      dup3\n      0xffffffffffffffffffffffffffffffffffffffff\n      and\n      dup2\n      mstore\n      0x20\n      add\n      swap8\n      pop\n      pop\n      pop\n      pop\n      pop\n      pop\n      pop\n      pop\n      0x00\n      mload(0x40)\n      dup1\n      dup4\n      sub\n      dup2\n      0x00\n      dup8\n      dup1\n      extcodesize\n      iszero\n      dup1\n      iszero\n      tag_41\n      jumpi\n      0x00\n      dup1\n      revert\n    tag_41:\n      pop\n      gas\n      call\n      iszero\n      dup1\n      iszero\n      tag_43\n      jumpi\n      returndatasize\n      0x00\n      dup1\n      returndatacopy\n      revert(0x00, returndatasize)\n    tag_43:\n      pop\n      pop\n      pop\n      pop\n        /* \"smartChefFactory2.sol\":42108:42124  smartChefAddress */\n      dup1\n        /* \"smartChefFactory2.sol\":42087:42125  NewSmartChefContract(smartChefAddress) */\n      0xffffffffffffffffffffffffffffffffffffffff\n      and\n      0xe0d103a92c6ff6c4aceb49d436f4028e0deb4884fdbcb9f32b03045eabb44a6c\n      mload(0x40)\n      mload(0x40)\n      dup1\n      swap2\n      sub\n      swap1\n      log2\n        /* \"smartChefFactory2.sol\":2418:2419  _ */\n      pop\n      pop\n      pop\n        /* \"smartChefFactory2.sol\":41028:42133  function deployPool(\r... */\n      pop\n      pop\n      pop\n      pop\n      pop\n      pop\n      pop\n      jump\t// out\n        /* \"smartChefFactory2.sol\":3081:3325  function transferOwnership(address newOwner) public virtual onlyOwner {\r... */\n    tag_16:\n        /* \"smartChefFactory2.sol\":2358:2370  _msgSender() */\n      tag_45\n        /* \"smartChefFactory2.sol\":2358:2368  _msgSender */\n      tag_19\n        /* \"smartChefFactory2.sol\":2358:2370  _msgSender() */\n      jump\t// in\n    tag_45:\n        /* \"smartChefFactory2.sol\":2347:2370  owner() == _msgSender() */\n      0xffffffffffffffffffffffffffffffffffffffff\n      and\n        /* \"smartChefFactory2.sol\":2347:2354  owner() */\n      tag_46\n        /* \"smartChefFactory2.sol\":2347:2352  owner */\n      tag_10\n        /* \"smartChefFactory2.sol\":2347:2354  owner() */\n      jump\t// in\n    tag_46:\n        /* \"smartChefFactory2.sol\":2347:2370  owner() == _msgSender() */\n      0xffffffffffffffffffffffffffffffffffffffff\n      and\n      eq\n        /* \"smartChefFactory2.sol\":2339:2407  require(owner() == _msgSender(), \"Ownable: caller is not the owner\") */\n      tag_47\n      jumpi\n      mload(0x40)\n      0x08c379a000000000000000000000000000000000000000000000000000000000\n      dup2\n      mstore\n      0x04\n      add\n      dup1\n      dup1\n      0x20\n      add\n      dup3\n      dup2\n      sub\n      dup3\n      mstore\n      0x20\n      dup2\n      mstore\n      0x20\n      add\n      dup1\n      0x4f776e61626c653a2063616c6c6572206973206e6f7420746865206f776e6572\n      dup2\n      mstore\n      pop\n      0x20\n      add\n      swap2\n      pop\n      pop\n      mload(0x40)\n      dup1\n      swap2\n      sub\n      swap1\n      revert\n    tag_47:\n        /* \"smartChefFactory2.sol\":3190:3191  0 */\n      0x00\n        /* \"smartChefFactory2.sol\":3170:3192  newOwner != address(0) */\n      0xffffffffffffffffffffffffffffffffffffffff\n      and\n        /* \"smartChefFactory2.sol\":3170:3178  newOwner */\n      dup2\n        /* \"smartChefFactory2.sol\":3170:3192  newOwner != address(0) */\n      0xffffffffffffffffffffffffffffffffffffffff\n      and\n      eq\n      iszero\n        /* \"smartChefFactory2.sol\":3162:3235  require(newOwner != address(0), \"Ownable: new owner is the zero address\") */\n      tag_49\n      jumpi\n      mload(0x40)\n      0x08c379a000000000000000000000000000000000000000000000000000000000\n      dup2\n      mstore\n      0x04\n      add\n      dup1\n      dup1\n      0x20\n      add\n      dup3\n      dup2\n      sub\n      dup3\n      mstore\n      0x26\n      dup2\n      mstore\n      0x20\n      add\n      dup1\n      data_245f15ff17f551913a7a18385165551503906a406f905ac1c2437281a7cd0cfe\n      0x26\n      swap2\n      codecopy\n      0x40\n      add\n      swap2\n      pop\n      pop\n      mload(0x40)\n      dup1\n      swap2\n      sub\n      swap1\n      revert\n    tag_49:\n        /* \"smartChefFactory2.sol\":3280:3288  newOwner */\n      dup1\n        /* \"smartChefFactory2.sol\":3251:3289  OwnershipTransferred(_owner, newOwner) */\n      0xffffffffffffffffffffffffffffffffffffffff\n      and\n        /* \"smartChefFactory2.sol\":3272:3278  _owner */\n      0x00\n      dup1\n      sload\n      swap1\n      0x0100\n      exp\n      swap1\n      div\n      0xffffffffffffffffffffffffffffffffffffffff\n      and\n        /* \"smartChefFactory2.sol\":3251:3289  OwnershipTransferred(_owner, newOwner) */\n      0xffffffffffffffffffffffffffffffffffffffff\n      and\n      0x8be0079c531659141344cd1fd0a4f28419497f9722a3daafe3b4186f6b6457e0\n      mload(0x40)\n      mload(0x40)\n      dup1\n      swap2\n      sub\n      swap1\n      log3\n        /* \"smartChefFactory2.sol\":3309:3317  newOwner */\n      dup1\n        /* \"smartChefFactory2.sol\":3300:3306  _owner */\n      0x00\n      dup1\n        /* \"smartChefFactory2.sol\":3300:3317  _owner = newOwner */\n      0x0100\n      exp\n      dup2\n      sload\n      dup2\n      0xffffffffffffffffffffffffffffffffffffffff\n      mul\n      not\n      and\n      swap1\n      dup4\n      0xffffffffffffffffffffffffffffffffffffffff\n      and\n      mul\n      or\n      swap1\n      sstore\n      pop\n        /* \"smartChefFactory2.sol\":3081:3325  function transferOwnership(address newOwner) public virtual onlyOwner {\r... */\n      pop\n      jump\t// out\n        /* \"smartChefFactory2.sol\":667:773  function _msgSender() internal view virtual returns (address payable) {\r... */\n    tag_19:\n        /* \"smartChefFactory2.sol\":720:735  address payable */\n      0x00\n        /* \"smartChefFactory2.sol\":755:765  msg.sender */\n      caller\n        /* \"smartChefFactory2.sol\":748:765  return msg.sender */\n      swap1\n      pop\n        /* \"smartChefFactory2.sol\":667:773  function _msgSender() internal view virtual returns (address payable) {\r... */\n      swap1\n      jump\t// out\n    tag_40:\n      dataSize(sub_0)\n      dup1\n      dataOffset(sub_0)\n      dup4\n      codecopy\n      add\n      swap1\n      jump\t// out\n    stop\n    data_245f15ff17f551913a7a18385165551503906a406f905ac1c2437281a7cd0cfe 4f776e61626c653a206e6577206f776e657220697320746865207a65726f2061646472657373\n\n    sub_0: assembly {\n            /* \"smartChefFactory2.sol\":29083:40319  contract SmartChefInitializable is Ownable, ReentrancyGuard {\r... */\n          mstore(0x40, 0x80)\n            /* \"smartChefFactory2.sol\":30856:30927  constructor() public {\r... */\n          callvalue\n          dup1\n          iszero\n          tag_1\n          jumpi\n          0x00\n          dup1\n          revert\n        tag_1:\n          pop\n            /* \"smartChefFactory2.sol\":1918:1935  address msgSender */\n          0x00\n            /* \"smartChefFactory2.sol\":1938:1950  _msgSender() */\n          tag_6\n            /* \"smartChefFactory2.sol\":1938:1948  _msgSender */\n          shl(0x20, tag_7)\n            /* \"smartChefFactory2.sol\":1938:1950  _msgSender() */\n          0x20\n          shr\n          jump\t// in\n        tag_6:\n            /* \"smartChefFactory2.sol\":1918:1950  address msgSender = _msgSender() */\n          swap1\n          pop\n            /* \"smartChefFactory2.sol\":1970:1979  msgSender */\n          dup1\n            /* \"smartChefFactory2.sol\":1961:1967  _owner */\n          0x00\n          dup1\n            /* \"smartChefFactory2.sol\":1961:1979  _owner = msgSender */\n          0x0100\n          exp\n          dup2\n          sload\n          dup2\n          0xffffffffffffffffffffffffffffffffffffffff\n          mul\n          not\n          and\n          swap1\n          dup4\n          0xffffffffffffffffffffffffffffffffffffffff\n          and\n          mul\n          or\n          swap1\n          sstore\n          pop\n            /* \"smartChefFactory2.sol\":2028:2037  msgSender */\n          dup1\n            /* \"smartChefFactory2.sol\":1995:2038  OwnershipTransferred(address(0), msgSender) */\n          0xffffffffffffffffffffffffffffffffffffffff\n          and\n            /* \"smartChefFactory2.sol\":2024:2025  0 */\n          0x00\n            /* \"smartChefFactory2.sol\":1995:2038  OwnershipTransferred(address(0), msgSender) */\n          0xffffffffffffffffffffffffffffffffffffffff\n          and\n          0x8be0079c531659141344cd1fd0a4f28419497f9722a3daafe3b4186f6b6457e0\n          mload(0x40)\n          mload(0x40)\n          dup1\n          swap2\n          sub\n          swap1\n          log3\n            /* \"smartChefFactory2.sol\":1884:2046  constructor() internal {\r... */\n          pop\n            /* \"smartChefFactory2.sol\":15820:15821  1 */\n          0x01\n            /* \"smartChefFactory2.sol\":15940:15947  _status */\n          dup1\n            /* \"smartChefFactory2.sol\":15940:15962  _status = _NOT_ENTERED */\n          dup2\n          swap1\n          sstore\n          pop\n            /* \"smartChefFactory2.sol\":30909:30919  msg.sender */\n          caller\n            /* \"smartChefFactory2.sol\":30888:30906  SMART_CHEF_FACTORY */\n          0x02\n          0x00\n            /* \"smartChefFactory2.sol\":30888:30919  SMART_CHEF_FACTORY = msg.sender */\n          0x0100\n          exp\n          dup2\n          sload\n          dup2\n          0xffffffffffffffffffffffffffffffffffffffff\n          mul\n          not\n          and\n          swap1\n          dup4\n          0xffffffffffffffffffffffffffffffffffffffff\n          and\n          mul\n          or\n          swap1\n          sstore\n          pop\n            /* \"smartChefFactory2.sol\":29083:40319  contract SmartChefInitializable is Ownable, ReentrancyGuard {\r... */\n          jump(tag_10)\n            /* \"smartChefFactory2.sol\":667:773  function _msgSender() internal view virtual returns (address payable) {\r... */\n        tag_7:\n            /* \"smartChefFactory2.sol\":720:735  address payable */\n          0x00\n            /* \"smartChefFactory2.sol\":755:765  msg.sender */\n          caller\n            /* \"smartChefFactory2.sol\":748:765  return msg.sender */\n          swap1\n          pop\n            /* \"smartChefFactory2.sol\":667:773  function _msgSender() internal view virtual returns (address payable) {\r... */\n          swap1\n          jump\t// out\n            /* \"smartChefFactory2.sol\":29083:40319  contract SmartChefInitializable is Ownable, ReentrancyGuard {\r... */\n        tag_10:\n          dataSize(sub_0)\n          dup1\n          dataOffset(sub_0)\n          0x00\n          codecopy\n          0x00\n          return\n        stop\n\n        sub_0: assembly {\n                /* \"smartChefFactory2.sol\":29083:40319  contract SmartChefInitializable is Ownable, ReentrancyGuard {\r... */\n              mstore(0x40, 0x80)\n              callvalue\n              dup1\n              iszero\n              tag_1\n              jumpi\n              0x00\n              dup1\n              revert\n            tag_1:\n              pop\n              jumpi(tag_2, lt(calldatasize, 0x04))\n              shr(0xe0, calldataload(0x00))\n              dup1\n              0x8da5cb5b\n              gt\n              tag_30\n              jumpi\n              dup1\n              0xbd617191\n              gt\n              tag_31\n              jumpi\n              dup1\n              0xdb2e21bc\n              gt\n              tag_32\n              jumpi\n              dup1\n              0xdb2e21bc\n              eq\n              tag_26\n              jumpi\n              dup1\n              0xf2fde38b\n              eq\n              tag_27\n              jumpi\n              dup1\n              0xf40f0f52\n              eq\n              tag_28\n              jumpi\n              dup1\n              0xf7c618c1\n              eq\n              tag_29\n              jumpi\n              jump(tag_2)\n            tag_32:\n              dup1\n              0xbd617191\n              eq\n              tag_23\n              jumpi\n              dup1\n              0xcc7a262e\n              eq\n              tag_24\n              jumpi\n              dup1\n              0xccd34cd5\n              eq\n              tag_25\n              jumpi\n              jump(tag_2)\n            tag_31:\n              dup1\n              0x9513997f\n              gt\n              tag_33\n              jumpi\n              dup1\n              0x9513997f\n              eq\n              tag_19\n              jumpi\n              dup1\n              0xa0b40905\n              eq\n              tag_20\n              jumpi\n              dup1\n              0xa9f8d181\n              eq\n              tag_21\n              jumpi\n              dup1\n              0xb6b55f25\n              eq\n              tag_22\n              jumpi\n              jump(tag_2)\n            tag_33:\n              dup1\n              0x8da5cb5b\n              eq\n              tag_16\n              jumpi\n              dup1\n              0x8f662915\n              eq\n              tag_17\n              jumpi\n              dup1\n              0x92e8990e\n              eq\n              tag_18\n              jumpi\n              jump(tag_2)\n            tag_30:\n              dup1\n              0x3f138d4b\n              gt\n              tag_34\n              jumpi\n              dup1\n              0x715018a6\n              gt\n              tag_35\n              jumpi\n              dup1\n              0x715018a6\n              eq\n              tag_12\n              jumpi\n              dup1\n              0x80dc0672\n              eq\n              tag_13\n              jumpi\n              dup1\n              0x83a5041c\n              eq\n              tag_14\n              jumpi\n              dup1\n              0x8ae39cac\n              eq\n              tag_15\n              jumpi\n              jump(tag_2)\n            tag_35:\n              dup1\n              0x3f138d4b\n              eq\n              tag_9\n              jumpi\n              dup1\n              0x48cd4cb1\n              eq\n              tag_10\n              jumpi\n              dup1\n              0x66fe9f8a\n              eq\n              tag_11\n              jumpi\n              jump(tag_2)\n            tag_34:\n              dup1\n              0x01f8a976\n              eq\n              tag_3\n              jumpi\n              dup1\n              0x1959a002\n              eq\n              tag_4\n              jumpi\n              dup1\n              0x1aed6553\n              eq\n              tag_5\n              jumpi\n              dup1\n              0x2e1a7d4d\n              eq\n              tag_6\n              jumpi\n              dup1\n              0x3279beab\n              eq\n              tag_7\n              jumpi\n              dup1\n              0x392e53cd\n              eq\n              tag_8\n              jumpi\n            tag_2:\n              0x00\n              dup1\n              revert\n                /* \"smartChefFactory2.sol\":37071:37311  function updateRewardPerBlock(uint256 _rewardPerBlock) external onlyOwner {\r... */\n            tag_3:\n              tag_36\n              0x04\n              dup1\n              calldatasize\n              sub\n              0x20\n              dup2\n              lt\n              iszero\n              tag_37\n              jumpi\n              0x00\n              dup1\n              revert\n            tag_37:\n              dup2\n              add\n              swap1\n              dup1\n              dup1\n              calldataload\n              swap1\n              0x20\n              add\n              swap1\n              swap3\n              swap2\n              swap1\n              pop\n              pop\n              pop\n              tag_38\n              jump\t// in\n            tag_36:\n              stop\n                /* \"smartChefFactory2.sol\":30175:30219  mapping(address => UserInfo) public userInfo */\n            tag_4:\n              tag_39\n              0x04\n              dup1\n              calldatasize\n              sub\n              0x20\n              dup2\n              lt\n              iszero\n              tag_40\n              jumpi\n              0x00\n              dup1\n              revert\n            tag_40:\n              dup2\n              add\n              swap1\n              dup1\n              dup1\n              calldataload\n              0xffffffffffffffffffffffffffffffffffffffff\n              and\n              swap1\n              0x20\n              add\n              swap1\n              swap3\n              swap2\n              swap1\n              pop\n              pop\n              pop\n              tag_41\n              jump\t// in\n            tag_39:\n              mload(0x40)\n              dup1\n              dup4\n              dup2\n              mstore\n              0x20\n              add\n              dup3\n              dup2\n              mstore\n              0x20\n              add\n              swap3\n              pop\n              pop\n              pop\n              mload(0x40)\n              dup1\n              swap2\n              sub\n              swap1\n              return\n                /* \"smartChefFactory2.sol\":29568:29596  uint256 public bonusEndBlock */\n            tag_5:\n              tag_42\n              tag_43\n              jump\t// in\n            tag_42:\n              mload(0x40)\n              dup1\n              dup3\n              dup2\n              mstore\n              0x20\n              add\n              swap2\n              pop\n              pop\n              mload(0x40)\n              dup1\n              swap2\n              sub\n              swap1\n              return\n                /* \"smartChefFactory2.sol\":33794:34526  function withdraw(uint256 _amount) external nonReentrant {\r... */\n            tag_6:\n              tag_44\n              0x04\n              dup1\n              calldatasize\n              sub\n              0x20\n              dup2\n              lt\n              iszero\n              tag_45\n              jumpi\n              0x00\n              dup1\n              revert\n            tag_45:\n              dup2\n              add\n              swap1\n              dup1\n              dup1\n              calldataload\n              swap1\n              0x20\n              add\n              swap1\n              swap3\n              swap2\n              swap1\n              pop\n              pop\n              pop\n              tag_46\n              jump\t// in\n            tag_44:\n              stop\n                /* \"smartChefFactory2.sol\":35192:35334  function emergencyRewardWithdraw(uint256 _amount) external onlyOwner {\r... */\n            tag_7:\n              tag_47\n              0x04\n              dup1\n              calldatasize\n              sub\n              0x20\n              dup2\n              lt\n              iszero\n              tag_48\n              jumpi\n              0x00\n              dup1\n              revert\n            tag_48:\n              dup2\n              add\n              swap1\n              dup1\n              dup1\n              calldataload\n              swap1\n              0x20\n              add\n              swap1\n              swap3\n              swap2\n              swap1\n              pop\n              pop\n              pop\n              tag_49\n              jump\t// in\n            tag_47:\n              stop\n                /* \"smartChefFactory2.sol\":29414:29439  bool public isInitialized */\n            tag_8:\n              tag_50\n              tag_51\n              jump\t// in\n            tag_50:\n              mload(0x40)\n              dup1\n              dup3\n              iszero\n              iszero\n              dup2\n              mstore\n              0x20\n              add\n              swap2\n              pop\n              pop\n              mload(0x40)\n              dup1\n              swap2\n              sub\n              swap1\n              return\n                /* \"smartChefFactory2.sol\":35624:36037  function recoverWrongTokens(address _tokenAddress, uint256 _tokenAmount) external onlyOwner {\r... */\n            tag_9:\n              tag_52\n              0x04\n              dup1\n              calldatasize\n              sub\n              0x40\n              dup2\n              lt\n              iszero\n              tag_53\n              jumpi\n              0x00\n              dup1\n              revert\n            tag_53:\n              dup2\n              add\n              swap1\n              dup1\n              dup1\n              calldataload\n              0xffffffffffffffffffffffffffffffffffffffff\n              and\n              swap1\n              0x20\n              add\n              swap1\n              swap3\n              swap2\n              swap1\n              dup1\n              calldataload\n              swap1\n              0x20\n              add\n              swap1\n              swap3\n              swap2\n              swap1\n              pop\n              pop\n              pop\n              tag_54\n              jump\t// in\n            tag_52:\n              stop\n                /* \"smartChefFactory2.sol\":29655:29680  uint256 public startBlock */\n            tag_10:\n              tag_55\n              tag_56\n              jump\t// in\n            tag_55:\n              mload(0x40)\n              dup1\n              dup3\n              dup2\n              mstore\n              0x20\n              add\n              swap2\n              pop\n              pop\n              mload(0x40)\n              dup1\n              swap2\n              sub\n              swap1\n              return\n                /* \"smartChefFactory2.sol\":29812:29843  uint256 public poolLimitPerUser */\n            tag_11:\n              tag_57\n              tag_58\n              jump\t// in\n            tag_57:\n              mload(0x40)\n              dup1\n              dup3\n              dup2\n              mstore\n              0x20\n              add\n              swap2\n              pop\n              pop\n              mload(0x40)\n              dup1\n              swap2\n              sub\n              swap1\n              return\n                /* \"smartChefFactory2.sol\":2778:2926  function renounceOwnership() public virtual onlyOwner {\r... */\n            tag_12:\n              tag_59\n              tag_60\n              jump\t// in\n            tag_59:\n              stop\n                /* \"smartChefFactory2.sol\":36127:36215  function stopReward() external onlyOwner {\r... */\n            tag_13:\n              tag_61\n              tag_62\n              jump\t// in\n            tag_61:\n              stop\n                /* \"smartChefFactory2.sol\":31377:32616  function initialize(\r... */\n            tag_14:\n              tag_63\n              0x04\n              dup1\n              calldatasize\n              sub\n              0xe0\n              dup2\n              lt\n              iszero\n              tag_64\n              jumpi\n              0x00\n              dup1\n              revert\n            tag_64:\n              dup2\n              add\n              swap1\n              dup1\n              dup1\n              calldataload\n              0xffffffffffffffffffffffffffffffffffffffff\n              and\n              swap1\n              0x20\n              add\n              swap1\n              swap3\n              swap2\n              swap1\n              dup1\n              calldataload\n              0xffffffffffffffffffffffffffffffffffffffff\n              and\n              swap1\n              0x20\n              add\n              swap1\n              swap3\n              swap2\n              swap1\n              dup1\n              calldataload\n              swap1\n              0x20\n              add\n              swap1\n              swap3\n              swap2\n              swap1\n              dup1\n              calldataload\n              swap1\n              0x20\n              add\n              swap1\n              swap3\n              swap2\n              swap1\n              dup1\n              calldataload\n              swap1\n              0x20\n              add\n              swap1\n              swap3\n              swap2\n              swap1\n              dup1\n              calldataload\n              swap1\n              0x20\n              add\n              swap1\n              swap3\n              swap2\n              swap1\n              dup1\n              calldataload\n              0xffffffffffffffffffffffffffffffffffffffff\n              and\n              swap1\n              0x20\n              add\n              swap1\n              swap3\n              swap2\n              swap1\n              pop\n              pop\n              pop\n              tag_65\n              jump\t// in\n            tag_63:\n              stop\n                /* \"smartChefFactory2.sol\":29891:29920  uint256 public rewardPerBlock */\n            tag_15:\n              tag_66\n              tag_67\n              jump\t// in\n            tag_66:\n              mload(0x40)\n              dup1\n              dup3\n              dup2\n              mstore\n              0x20\n              add\n              swap2\n              pop\n              pop\n              mload(0x40)\n              dup1\n              swap2\n              sub\n              swap1\n              return\n                /* \"smartChefFactory2.sol\":2127:2214  function owner() public view virtual returns (address) {\r... */\n            tag_16:\n              tag_68\n              tag_69\n              jump\t// in\n            tag_68:\n              mload(0x40)\n              dup1\n              dup3\n              0xffffffffffffffffffffffffffffffffffffffff\n              and\n              dup2\n              mstore\n              0x20\n              add\n              swap2\n              pop\n              pop\n              mload(0x40)\n              dup1\n              swap2\n              sub\n              swap1\n              return\n                /* \"smartChefFactory2.sol\":29480:29511  uint256 public accTokenPerShare */\n            tag_17:\n              tag_70\n              tag_71\n              jump\t// in\n            tag_70:\n              mload(0x40)\n              dup1\n              dup3\n              dup2\n              mstore\n              0x20\n              add\n              swap2\n              pop\n              pop\n              mload(0x40)\n              dup1\n              swap2\n              sub\n              swap1\n              return\n                /* \"smartChefFactory2.sol\":29347:29371  bool public hasUserLimit */\n            tag_18:\n              tag_72\n              tag_73\n              jump\t// in\n            tag_72:\n              mload(0x40)\n              dup1\n              dup3\n              iszero\n              iszero\n              dup2\n              mstore\n              0x20\n              add\n              swap2\n              pop\n              pop\n              mload(0x40)\n              dup1\n              swap2\n              sub\n              swap1\n              return\n                /* \"smartChefFactory2.sol\":37555:38161  function updateStartAndEndBlocks(uint256 _startBlock, uint256 _bonusEndBlock) external onlyOwner {\r... */\n            tag_19:\n              tag_74\n              0x04\n              dup1\n              calldatasize\n              sub\n              0x40\n              dup2\n              lt\n              iszero\n              tag_75\n              jumpi\n              0x00\n              dup1\n              revert\n            tag_75:\n              dup2\n              add\n              swap1\n              dup1\n              dup1\n              calldataload\n              swap1\n              0x20\n              add\n              swap1\n              swap3\n              swap2\n              swap1\n              dup1\n              calldataload\n              swap1\n              0x20\n              add\n              swap1\n              swap3\n              swap2\n              swap1\n              pop\n              pop\n              pop\n              tag_76\n              jump\t// in\n            tag_74:\n              stop\n                /* \"smartChefFactory2.sol\":36441:36916  function updatePoolLimitPerUser(bool _hasUserLimit, uint256 _poolLimitPerUser) external onlyOwner {\r... */\n            tag_20:\n              tag_77\n              0x04\n              dup1\n              calldatasize\n              sub\n              0x40\n              dup2\n              lt\n              iszero\n              tag_78\n              jumpi\n              0x00\n              dup1\n              revert\n            tag_78:\n              dup2\n              add\n              swap1\n              dup1\n              dup1\n              calldataload\n              iszero\n              iszero\n              swap1\n              0x20\n              add\n              swap1\n              swap3\n              swap2\n              swap1\n              dup1\n              calldataload\n              swap1\n              0x20\n              add\n              swap1\n              swap3\n              swap2\n              swap1\n              pop\n              pop\n              pop\n              tag_79\n              jump\t// in\n            tag_77:\n              stop\n                /* \"smartChefFactory2.sol\":29738:29768  uint256 public lastRewardBlock */\n            tag_21:\n              tag_80\n              tag_81\n              jump\t// in\n            tag_80:\n              mload(0x40)\n              dup1\n              dup3\n              dup2\n              mstore\n              0x20\n              add\n              swap2\n              pop\n              pop\n              mload(0x40)\n              dup1\n              swap2\n              sub\n              swap1\n              return\n                /* \"smartChefFactory2.sol\":32774:33644  function deposit(uint256 _amount) external nonReentrant {\r... */\n            tag_22:\n              tag_82\n              0x04\n              dup1\n              calldatasize\n              sub\n              0x20\n              dup2\n              lt\n              iszero\n              tag_83\n              jumpi\n              0x00\n              dup1\n              revert\n            tag_83:\n              dup2\n              add\n              swap1\n              dup1\n              dup1\n              calldataload\n              swap1\n              0x20\n              add\n              swap1\n              swap3\n              swap2\n              swap1\n              pop\n              pop\n              pop\n              tag_84\n              jump\t// in\n            tag_82:\n              stop\n                /* \"smartChefFactory2.sol\":29264:29297  address public SMART_CHEF_FACTORY */\n            tag_23:\n              tag_85\n              tag_86\n              jump\t// in\n            tag_85:\n              mload(0x40)\n              dup1\n              dup3\n              0xffffffffffffffffffffffffffffffffffffffff\n              and\n              dup2\n              mstore\n              0x20\n              add\n              swap2\n              pop\n              pop\n              mload(0x40)\n              dup1\n              swap2\n              sub\n              swap1\n              return\n                /* \"smartChefFactory2.sol\":30082:30107  IBEP20 public stakedToken */\n            tag_24:\n              tag_87\n              tag_88\n              jump\t// in\n            tag_87:\n              mload(0x40)\n              dup1\n              dup3\n              0xffffffffffffffffffffffffffffffffffffffff\n              and\n              dup2\n              mstore\n              0x20\n              add\n              swap2\n              pop\n              pop\n              mload(0x40)\n              dup1\n              swap2\n              sub\n              swap1\n              return\n                /* \"smartChefFactory2.sol\":29958:29989  uint256 public PRECISION_FACTOR */\n            tag_25:\n              tag_89\n              tag_90\n              jump\t// in\n            tag_89:\n              mload(0x40)\n              dup1\n              dup3\n              dup2\n              mstore\n              0x20\n              add\n              swap2\n              pop\n              pop\n              mload(0x40)\n              dup1\n              swap2\n              sub\n              swap1\n              return\n                /* \"smartChefFactory2.sol\":34667:35074  function emergencyWithdraw() external nonReentrant {\r... */\n            tag_26:\n              tag_91\n              tag_92\n              jump\t// in\n            tag_91:\n              stop\n                /* \"smartChefFactory2.sol\":3081:3325  function transferOwnership(address newOwner) public virtual onlyOwner {\r... */\n            tag_27:\n              tag_93\n              0x04\n              dup1\n              calldatasize\n              sub\n              0x20\n              dup2\n              lt\n              iszero\n              tag_94\n              jumpi\n              0x00\n              dup1\n              revert\n            tag_94:\n              dup2\n              add\n              swap1\n              dup1\n              dup1\n              calldataload\n              0xffffffffffffffffffffffffffffffffffffffff\n              and\n              swap1\n              0x20\n              add\n              swap1\n              swap3\n              swap2\n              swap1\n              pop\n              pop\n              pop\n              tag_95\n              jump\t// in\n            tag_93:\n              stop\n                /* \"smartChefFactory2.sol\":38334:39128  function pendingReward(address _user) external view returns (uint256) {\r... */\n            tag_28:\n              tag_96\n              0x04\n              dup1\n              calldatasize\n              sub\n              0x20\n              dup2\n              lt\n              iszero\n              tag_97\n              jumpi\n              0x00\n              dup1\n              revert\n            tag_97:\n              dup2\n              add\n              swap1\n              dup1\n              dup1\n              calldataload\n              0xffffffffffffffffffffffffffffffffffffffff\n              and\n              swap1\n              0x20\n              add\n              swap1\n              swap3\n              swap2\n              swap1\n              pop\n              pop\n              pop\n              tag_98\n              jump\t// in\n            tag_96:\n              mload(0x40)\n              dup1\n              dup3\n              dup2\n              mstore\n              0x20\n              add\n              swap2\n              pop\n              pop\n              mload(0x40)\n              dup1\n              swap2\n              sub\n              swap1\n              return\n                /* \"smartChefFactory2.sol\":30023:30048  IBEP20 public rewardToken */\n            tag_29:\n              tag_99\n              tag_100\n              jump\t// in\n            tag_99:\n              mload(0x40)\n              dup1\n              dup3\n              0xffffffffffffffffffffffffffffffffffffffff\n              and\n              dup2\n              mstore\n              0x20\n              add\n              swap2\n              pop\n              pop\n              mload(0x40)\n              dup1\n              swap2\n              sub\n              swap1\n              return\n                /* \"smartChefFactory2.sol\":37071:37311  function updateRewardPerBlock(uint256 _rewardPerBlock) external onlyOwner {\r... */\n            tag_38:\n                /* \"smartChefFactory2.sol\":2358:2370  _msgSender() */\n              tag_102\n                /* \"smartChefFactory2.sol\":2358:2368  _msgSender */\n              tag_103\n                /* \"smartChefFactory2.sol\":2358:2370  _msgSender() */\n              jump\t// in\n            tag_102:\n                /* \"smartChefFactory2.sol\":2347:2370  owner() == _msgSender() */\n              0xffffffffffffffffffffffffffffffffffffffff\n              and\n                /* \"smartChefFactory2.sol\":2347:2354  owner() */\n              tag_104\n                /* \"smartChefFactory2.sol\":2347:2352  owner */\n              tag_69\n                /* \"smartChefFactory2.sol\":2347:2354  owner() */\n              jump\t// in\n            tag_104:\n                /* \"smartChefFactory2.sol\":2347:2370  owner() == _msgSender() */\n              0xffffffffffffffffffffffffffffffffffffffff\n              and\n              eq\n                /* \"smartChefFactory2.sol\":2339:2407  require(owner() == _msgSender(), \"Ownable: caller is not the owner\") */\n              tag_105\n              jumpi\n              mload(0x40)\n              0x08c379a000000000000000000000000000000000000000000000000000000000\n              dup2\n              mstore\n              0x04\n              add\n              dup1\n              dup1\n              0x20\n              add\n              dup3\n              dup2\n              sub\n              dup3\n              mstore\n              0x20\n              dup2\n              mstore\n              0x20\n              add\n              dup1\n              0x4f776e61626c653a2063616c6c6572206973206e6f7420746865206f776e6572\n              dup2\n              mstore\n              pop\n              0x20\n              add\n              swap2\n              pop\n              pop\n              mload(0x40)\n              dup1\n              swap2\n              sub\n              swap1\n              revert\n            tag_105:\n                /* \"smartChefFactory2.sol\":37179:37189  startBlock */\n              sload(0x05)\n                /* \"smartChefFactory2.sol\":37164:37176  block.number */\n              number\n                /* \"smartChefFactory2.sol\":37164:37189  block.number < startBlock */\n              lt\n                /* \"smartChefFactory2.sol\":37156:37210  require(block.number < startBlock, \"Pool has started\") */\n              tag_107\n              jumpi\n              mload(0x40)\n              0x08c379a000000000000000000000000000000000000000000000000000000000\n              dup2\n              mstore\n              0x04\n              add\n              dup1\n              dup1\n              0x20\n              add\n              dup3\n              dup2\n              sub\n              dup3\n              mstore\n              0x10\n              dup2\n              mstore\n              0x20\n              add\n              dup1\n              0x506f6f6c20686173207374617274656400000000000000000000000000000000\n              dup2\n              mstore\n              pop\n              0x20\n              add\n              swap2\n              pop\n              pop\n              mload(0x40)\n              dup1\n              swap2\n              sub\n              swap1\n              revert\n            tag_107:\n                /* \"smartChefFactory2.sol\":37238:37253  _rewardPerBlock */\n              dup1\n                /* \"smartChefFactory2.sol\":37221:37235  rewardPerBlock */\n              0x08\n                /* \"smartChefFactory2.sol\":37221:37253  rewardPerBlock = _rewardPerBlock */\n              dup2\n              swap1\n              sstore\n              pop\n                /* \"smartChefFactory2.sol\":37269:37303  NewRewardPerBlock(_rewardPerBlock) */\n              0x0c4d677eef92893ac7ec52faf8140fc6c851ab4736302b4f3a89dfb20696a0df\n                /* \"smartChefFactory2.sol\":37287:37302  _rewardPerBlock */\n              dup2\n                /* \"smartChefFactory2.sol\":37269:37303  NewRewardPerBlock(_rewardPerBlock) */\n              mload(0x40)\n              dup1\n              dup3\n              dup2\n              mstore\n              0x20\n              add\n              swap2\n              pop\n              pop\n              mload(0x40)\n              dup1\n              swap2\n              sub\n              swap1\n              log1\n                /* \"smartChefFactory2.sol\":37071:37311  function updateRewardPerBlock(uint256 _rewardPerBlock) external onlyOwner {\r... */\n              pop\n              jump\t// out\n                /* \"smartChefFactory2.sol\":30175:30219  mapping(address => UserInfo) public userInfo */\n            tag_41:\n              mstore(0x20, 0x0c)\n              dup1\n              0x00\n              mstore\n              keccak256(0x00, 0x40)\n              0x00\n              swap2\n              pop\n              swap1\n              pop\n              dup1\n              0x00\n              add\n              sload\n              swap1\n              dup1\n              0x01\n              add\n              sload\n              swap1\n              pop\n              dup3\n              jump\t// out\n                /* \"smartChefFactory2.sol\":29568:29596  uint256 public bonusEndBlock */\n            tag_43:\n              sload(0x04)\n              dup2\n              jump\t// out\n                /* \"smartChefFactory2.sol\":33794:34526  function withdraw(uint256 _amount) external nonReentrant {\r... */\n            tag_46:\n                /* \"smartChefFactory2.sol\":15864:15865  2 */\n              0x02\n                /* \"smartChefFactory2.sol\":16469:16476  _status */\n              sload(0x01)\n                /* \"smartChefFactory2.sol\":16469:16488  _status != _ENTERED */\n              eq\n              iszero\n                /* \"smartChefFactory2.sol\":16461:16524  require(_status != _ENTERED, \"ReentrancyGuard: reentrant call\") */\n              tag_109\n              jumpi\n              mload(0x40)\n              0x08c379a000000000000000000000000000000000000000000000000000000000\n              dup2\n              mstore\n              0x04\n              add\n              dup1\n              dup1\n              0x20\n              add\n              dup3\n              dup2\n              sub\n              dup3\n              mstore\n              0x1f\n              dup2\n              mstore\n              0x20\n              add\n              dup1\n              0x5265656e7472616e637947756172643a207265656e7472616e742063616c6c00\n              dup2\n              mstore\n              pop\n              0x20\n              add\n              swap2\n              pop\n              pop\n              mload(0x40)\n              dup1\n              swap2\n              sub\n              swap1\n              revert\n            tag_109:\n                /* \"smartChefFactory2.sol\":15864:15865  2 */\n              0x02\n                /* \"smartChefFactory2.sol\":16602:16609  _status */\n              0x01\n                /* \"smartChefFactory2.sol\":16602:16620  _status = _ENTERED */\n              dup2\n              swap1\n              sstore\n              pop\n                /* \"smartChefFactory2.sol\":33862:33883  UserInfo storage user */\n              0x00\n                /* \"smartChefFactory2.sol\":33886:33894  userInfo */\n              0x0c\n                /* \"smartChefFactory2.sol\":33886:33906  userInfo[msg.sender] */\n              0x00\n                /* \"smartChefFactory2.sol\":33895:33905  msg.sender */\n              caller\n                /* \"smartChefFactory2.sol\":33886:33906  userInfo[msg.sender] */\n              0xffffffffffffffffffffffffffffffffffffffff\n              and\n              0xffffffffffffffffffffffffffffffffffffffff\n              and\n              dup2\n              mstore\n              0x20\n              add\n              swap1\n              dup2\n              mstore\n              0x20\n              add\n              0x00\n              keccak256\n                /* \"smartChefFactory2.sol\":33862:33906  UserInfo storage user = userInfo[msg.sender] */\n              swap1\n              pop\n                /* \"smartChefFactory2.sol\":33940:33947  _amount */\n              dup2\n                /* \"smartChefFactory2.sol\":33925:33929  user */\n              dup2\n                /* \"smartChefFactory2.sol\":33925:33936  user.amount */\n              0x00\n              add\n              sload\n                /* \"smartChefFactory2.sol\":33925:33947  user.amount >= _amount */\n              lt\n              iszero\n                /* \"smartChefFactory2.sol\":33917:33979  require(user.amount >= _amount, \"Amount to withdraw too high\") */\n              tag_111\n              jumpi\n              mload(0x40)\n              0x08c379a000000000000000000000000000000000000000000000000000000000\n              dup2\n              mstore\n              0x04\n              add\n              dup1\n              dup1\n              0x20\n              add\n              dup3\n              dup2\n              sub\n              dup3\n              mstore\n              0x1b\n              dup2\n              mstore\n              0x20\n              add\n              dup1\n              0x416d6f756e7420746f20776974686472617720746f6f20686967680000000000\n              dup2\n              mstore\n              pop\n              0x20\n              add\n              swap2\n              pop\n              pop\n              mload(0x40)\n              dup1\n              swap2\n              sub\n              swap1\n              revert\n            tag_111:\n                /* \"smartChefFactory2.sol\":33992:34005  _updatePool() */\n              tag_112\n                /* \"smartChefFactory2.sol\":33992:34003  _updatePool */\n              tag_113\n                /* \"smartChefFactory2.sol\":33992:34005  _updatePool() */\n              jump\t// in\n            tag_112:\n                /* \"smartChefFactory2.sol\":34018:34033  uint256 pending */\n              0x00\n                /* \"smartChefFactory2.sol\":34036:34112  user.amount.mul(accTokenPerShare).div(PRECISION_FACTOR).sub(user.rewardDebt) */\n              tag_114\n                /* \"smartChefFactory2.sol\":34096:34100  user */\n              dup3\n                /* \"smartChefFactory2.sol\":34096:34111  user.rewardDebt */\n              0x01\n              add\n              sload\n                /* \"smartChefFactory2.sol\":34036:34091  user.amount.mul(accTokenPerShare).div(PRECISION_FACTOR) */\n              tag_115\n                /* \"smartChefFactory2.sol\":34074:34090  PRECISION_FACTOR */\n              sload(0x09)\n                /* \"smartChefFactory2.sol\":34036:34069  user.amount.mul(accTokenPerShare) */\n              tag_116\n                /* \"smartChefFactory2.sol\":34052:34068  accTokenPerShare */\n              sload(0x03)\n                /* \"smartChefFactory2.sol\":34036:34040  user */\n              dup8\n                /* \"smartChefFactory2.sol\":34036:34047  user.amount */\n              0x00\n              add\n              sload\n                /* \"smartChefFactory2.sol\":34036:34051  user.amount.mul */\n              tag_117\n              swap1\n                /* \"smartChefFactory2.sol\":34036:34069  user.amount.mul(accTokenPerShare) */\n              swap2\n              swap1\n              0xffffffff\n              and\n              jump\t// in\n            tag_116:\n                /* \"smartChefFactory2.sol\":34036:34073  user.amount.mul(accTokenPerShare).div */\n              tag_118\n              swap1\n                /* \"smartChefFactory2.sol\":34036:34091  user.amount.mul(accTokenPerShare).div(PRECISION_FACTOR) */\n              swap2\n              swap1\n              0xffffffff\n              and\n              jump\t// in\n            tag_115:\n                /* \"smartChefFactory2.sol\":34036:34095  user.amount.mul(accTokenPerShare).div(PRECISION_FACTOR).sub */\n              tag_119\n              swap1\n                /* \"smartChefFactory2.sol\":34036:34112  user.amount.mul(accTokenPerShare).div(PRECISION_FACTOR).sub(user.rewardDebt) */\n              swap2\n              swap1\n              0xffffffff\n              and\n              jump\t// in\n            tag_114:\n                /* \"smartChefFactory2.sol\":34018:34112  uint256 pending = user.amount.mul(accTokenPerShare).div(PRECISION_FACTOR).sub(user.rewardDebt) */\n              swap1\n              pop\n                /* \"smartChefFactory2.sol\":34139:34140  0 */\n              0x00\n                /* \"smartChefFactory2.sol\":34129:34136  _amount */\n              dup4\n                /* \"smartChefFactory2.sol\":34129:34140  _amount > 0 */\n              gt\n                /* \"smartChefFactory2.sol\":34125:34276  if (_amount > 0) {\r... */\n              iszero\n              tag_120\n              jumpi\n                /* \"smartChefFactory2.sol\":34171:34195  user.amount.sub(_amount) */\n              tag_121\n                /* \"smartChefFactory2.sol\":34187:34194  _amount */\n              dup4\n                /* \"smartChefFactory2.sol\":34171:34175  user */\n              dup4\n                /* \"smartChefFactory2.sol\":34171:34182  user.amount */\n              0x00\n              add\n              sload\n                /* \"smartChefFactory2.sol\":34171:34186  user.amount.sub */\n              tag_119\n              swap1\n                /* \"smartChefFactory2.sol\":34171:34195  user.amount.sub(_amount) */\n              swap2\n              swap1\n              0xffffffff\n              and\n              jump\t// in\n            tag_121:\n                /* \"smartChefFactory2.sol\":34157:34161  user */\n              dup3\n                /* \"smartChefFactory2.sol\":34157:34168  user.amount */\n              0x00\n              add\n                /* \"smartChefFactory2.sol\":34157:34195  user.amount = user.amount.sub(_amount) */\n              dup2\n              swap1\n              sstore\n              pop\n                /* \"smartChefFactory2.sol\":34210:34264  stakedToken.safeTransfer(address(msg.sender), _amount) */\n              tag_122\n                /* \"smartChefFactory2.sol\":34243:34253  msg.sender */\n              caller\n                /* \"smartChefFactory2.sol\":34256:34263  _amount */\n              dup5\n                /* \"smartChefFactory2.sol\":34210:34221  stakedToken */\n              0x0b\n              0x00\n              swap1\n              sload\n              swap1\n              0x0100\n              exp\n              swap1\n              div\n              0xffffffffffffffffffffffffffffffffffffffff\n              and\n                /* \"smartChefFactory2.sol\":34210:34234  stakedToken.safeTransfer */\n              0xffffffffffffffffffffffffffffffffffffffff\n              and\n              tag_123\n              swap1\n                /* \"smartChefFactory2.sol\":34210:34264  stakedToken.safeTransfer(address(msg.sender), _amount) */\n              swap3\n              swap2\n              swap1\n              0xffffffff\n              and\n              jump\t// in\n            tag_122:\n                /* \"smartChefFactory2.sol\":34125:34276  if (_amount > 0) {\r... */\n            tag_120:\n                /* \"smartChefFactory2.sol\":34302:34303  0 */\n              0x00\n                /* \"smartChefFactory2.sol\":34292:34299  pending */\n              dup2\n                /* \"smartChefFactory2.sol\":34292:34303  pending > 0 */\n              gt\n                /* \"smartChefFactory2.sol\":34288:34386  if (pending > 0) {\r... */\n              iszero\n              tag_124\n              jumpi\n                /* \"smartChefFactory2.sol\":34320:34374  rewardToken.safeTransfer(address(msg.sender), pending) */\n              tag_125\n                /* \"smartChefFactory2.sol\":34353:34363  msg.sender */\n              caller\n                /* \"smartChefFactory2.sol\":34366:34373  pending */\n              dup3\n                /* \"smartChefFactory2.sol\":34320:34331  rewardToken */\n              0x0a\n              0x00\n              swap1\n              sload\n              swap1\n              0x0100\n              exp\n              swap1\n              div\n              0xffffffffffffffffffffffffffffffffffffffff\n              and\n                /* \"smartChefFactory2.sol\":34320:34344  rewardToken.safeTransfer */\n              0xffffffffffffffffffffffffffffffffffffffff\n              and\n              tag_123\n              swap1\n                /* \"smartChefFactory2.sol\":34320:34374  rewardToken.safeTransfer(address(msg.sender), pending) */\n              swap3\n              swap2\n              swap1\n              0xffffffff\n              and\n              jump\t// in\n            tag_125:\n                /* \"smartChefFactory2.sol\":34288:34386  if (pending > 0) {\r... */\n            tag_124:\n                /* \"smartChefFactory2.sol\":34416:34471  user.amount.mul(accTokenPerShare).div(PRECISION_FACTOR) */\n              tag_126\n                /* \"smartChefFactory2.sol\":34454:34470  PRECISION_FACTOR */\n              sload(0x09)\n                /* \"smartChefFactory2.sol\":34416:34449  user.amount.mul(accTokenPerShare) */\n              tag_127\n                /* \"smartChefFactory2.sol\":34432:34448  accTokenPerShare */\n              sload(0x03)\n                /* \"smartChefFactory2.sol\":34416:34420  user */\n              dup6\n                /* \"smartChefFactory2.sol\":34416:34427  user.amount */\n              0x00\n              add\n              sload\n                /* \"smartChefFactory2.sol\":34416:34431  user.amount.mul */\n              tag_117\n              swap1\n                /* \"smartChefFactory2.sol\":34416:34449  user.amount.mul(accTokenPerShare) */\n              swap2\n              swap1\n              0xffffffff\n              and\n              jump\t// in\n            tag_127:\n                /* \"smartChefFactory2.sol\":34416:34453  user.amount.mul(accTokenPerShare).div */\n              tag_118\n              swap1\n                /* \"smartChefFactory2.sol\":34416:34471  user.amount.mul(accTokenPerShare).div(PRECISION_FACTOR) */\n              swap2\n              swap1\n              0xffffffff\n              and\n              jump\t// in\n            tag_126:\n                /* \"smartChefFactory2.sol\":34398:34402  user */\n              dup3\n                /* \"smartChefFactory2.sol\":34398:34413  user.rewardDebt */\n              0x01\n              add\n                /* \"smartChefFactory2.sol\":34398:34471  user.rewardDebt = user.amount.mul(accTokenPerShare).div(PRECISION_FACTOR) */\n              dup2\n              swap1\n              sstore\n              pop\n                /* \"smartChefFactory2.sol\":34498:34508  msg.sender */\n              caller\n                /* \"smartChefFactory2.sol\":34489:34518  Withdraw(msg.sender, _amount) */\n              0xffffffffffffffffffffffffffffffffffffffff\n              and\n              0x884edad9ce6fa2440d8a54cc123490eb96d2768479d49ff9c7366125a9424364\n                /* \"smartChefFactory2.sol\":34510:34517  _amount */\n              dup5\n                /* \"smartChefFactory2.sol\":34489:34518  Withdraw(msg.sender, _amount) */\n              mload(0x40)\n              dup1\n              dup3\n              dup2\n              mstore\n              0x20\n              add\n              swap2\n              pop\n              pop\n              mload(0x40)\n              dup1\n              swap2\n              sub\n              swap1\n              log2\n                /* \"smartChefFactory2.sol\":16633:16634  _ */\n              pop\n              pop\n                /* \"smartChefFactory2.sol\":15820:15821  1 */\n              0x01\n                /* \"smartChefFactory2.sol\":16781:16788  _status */\n              dup1\n                /* \"smartChefFactory2.sol\":16781:16803  _status = _NOT_ENTERED */\n              dup2\n              swap1\n              sstore\n              pop\n                /* \"smartChefFactory2.sol\":33794:34526  function withdraw(uint256 _amount) external nonReentrant {\r... */\n              pop\n              jump\t// out\n                /* \"smartChefFactory2.sol\":35192:35334  function emergencyRewardWithdraw(uint256 _amount) external onlyOwner {\r... */\n            tag_49:\n                /* \"smartChefFactory2.sol\":2358:2370  _msgSender() */\n              tag_129\n                /* \"smartChefFactory2.sol\":2358:2368  _msgSender */\n              tag_103\n                /* \"smartChefFactory2.sol\":2358:2370  _msgSender() */\n              jump\t// in\n            tag_129:\n                /* \"smartChefFactory2.sol\":2347:2370  owner() == _msgSender() */\n              0xffffffffffffffffffffffffffffffffffffffff\n              and\n                /* \"smartChefFactory2.sol\":2347:2354  owner() */\n              tag_130\n                /* \"smartChefFactory2.sol\":2347:2352  owner */\n              tag_69\n                /* \"smartChefFactory2.sol\":2347:2354  owner() */\n              jump\t// in\n            tag_130:\n                /* \"smartChefFactory2.sol\":2347:2370  owner() == _msgSender() */\n              0xffffffffffffffffffffffffffffffffffffffff\n              and\n              eq\n                /* \"smartChefFactory2.sol\":2339:2407  require(owner() == _msgSender(), \"Ownable: caller is not the owner\") */\n              tag_131\n              jumpi\n              mload(0x40)\n              0x08c379a000000000000000000000000000000000000000000000000000000000\n              dup2\n              mstore\n              0x04\n              add\n              dup1\n              dup1\n              0x20\n              add\n              dup3\n              dup2\n              sub\n              dup3\n              mstore\n              0x20\n              dup2\n              mstore\n              0x20\n              add\n              dup1\n              0x4f776e61626c653a2063616c6c6572206973206e6f7420746865206f776e6572\n              dup2\n              mstore\n              pop\n              0x20\n              add\n              swap2\n              pop\n              pop\n              mload(0x40)\n              dup1\n              swap2\n              sub\n              swap1\n              revert\n            tag_131:\n                /* \"smartChefFactory2.sol\":35272:35326  rewardToken.safeTransfer(address(msg.sender), _amount) */\n              tag_133\n                /* \"smartChefFactory2.sol\":35305:35315  msg.sender */\n              caller\n                /* \"smartChefFactory2.sol\":35318:35325  _amount */\n              dup3\n                /* \"smartChefFactory2.sol\":35272:35283  rewardToken */\n              0x0a\n              0x00\n              swap1\n              sload\n              swap1\n              0x0100\n              exp\n              swap1\n              div\n              0xffffffffffffffffffffffffffffffffffffffff\n              and\n                /* \"smartChefFactory2.sol\":35272:35296  rewardToken.safeTransfer */\n              0xffffffffffffffffffffffffffffffffffffffff\n              and\n              tag_123\n              swap1\n                /* \"smartChefFactory2.sol\":35272:35326  rewardToken.safeTransfer(address(msg.sender), _amount) */\n              swap3\n              swap2\n              swap1\n              0xffffffff\n              and\n              jump\t// in\n            tag_133:\n                /* \"smartChefFactory2.sol\":35192:35334  function emergencyRewardWithdraw(uint256 _amount) external onlyOwner {\r... */\n              pop\n              jump\t// out\n                /* \"smartChefFactory2.sol\":29414:29439  bool public isInitialized */\n            tag_51:\n              0x02\n              0x15\n              swap1\n              sload\n              swap1\n              0x0100\n              exp\n              swap1\n              div\n              0xff\n              and\n              dup2\n              jump\t// out\n                /* \"smartChefFactory2.sol\":35624:36037  function recoverWrongTokens(address _tokenAddress, uint256 _tokenAmount) external onlyOwner {\r... */\n            tag_54:\n                /* \"smartChefFactory2.sol\":2358:2370  _msgSender() */\n              tag_135\n                /* \"smartChefFactory2.sol\":2358:2368  _msgSender */\n              tag_103\n                /* \"smartChefFactory2.sol\":2358:2370  _msgSender() */\n              jump\t// in\n            tag_135:\n                /* \"smartChefFactory2.sol\":2347:2370  owner() == _msgSender() */\n              0xffffffffffffffffffffffffffffffffffffffff\n              and\n                /* \"smartChefFactory2.sol\":2347:2354  owner() */\n              tag_136\n                /* \"smartChefFactory2.sol\":2347:2352  owner */\n              tag_69\n                /* \"smartChefFactory2.sol\":2347:2354  owner() */\n              jump\t// in\n            tag_136:\n                /* \"smartChefFactory2.sol\":2347:2370  owner() == _msgSender() */\n              0xffffffffffffffffffffffffffffffffffffffff\n              and\n              eq\n                /* \"smartChefFactory2.sol\":2339:2407  require(owner() == _msgSender(), \"Ownable: caller is not the owner\") */\n              tag_137\n              jumpi\n              mload(0x40)\n              0x08c379a000000000000000000000000000000000000000000000000000000000\n              dup2\n              mstore\n              0x04\n              add\n              dup1\n              dup1\n              0x20\n              add\n              dup3\n              dup2\n              sub\n              dup3\n              mstore\n              0x20\n              dup2\n              mstore\n              0x20\n              add\n              dup1\n              0x4f776e61626c653a2063616c6c6572206973206e6f7420746865206f776e6572\n              dup2\n              mstore\n              pop\n              0x20\n              add\n              swap2\n              pop\n              pop\n              mload(0x40)\n              dup1\n              swap2\n              sub\n              swap1\n              revert\n            tag_137:\n                /* \"smartChefFactory2.sol\":35760:35771  stakedToken */\n              0x0b\n              0x00\n              swap1\n              sload\n              swap1\n              0x0100\n              exp\n              swap1\n              div\n              0xffffffffffffffffffffffffffffffffffffffff\n              and\n                /* \"smartChefFactory2.sol\":35735:35772  _tokenAddress != address(stakedToken) */\n              0xffffffffffffffffffffffffffffffffffffffff\n              and\n                /* \"smartChefFactory2.sol\":35735:35748  _tokenAddress */\n              dup3\n                /* \"smartChefFactory2.sol\":35735:35772  _tokenAddress != address(stakedToken) */\n              0xffffffffffffffffffffffffffffffffffffffff\n              and\n              eq\n              iszero\n                /* \"smartChefFactory2.sol\":35727:35799  require(_tokenAddress != address(stakedToken), \"Cannot be staked token\") */\n              tag_139\n              jumpi\n              mload(0x40)\n              0x08c379a000000000000000000000000000000000000000000000000000000000\n              dup2\n              mstore\n              0x04\n              add\n              dup1\n              dup1\n              0x20\n              add\n              dup3\n              dup2\n              sub\n              dup3\n              mstore\n              0x16\n              dup2\n              mstore\n              0x20\n              add\n              dup1\n              0x43616e6e6f74206265207374616b656420746f6b656e00000000000000000000\n              dup2\n              mstore\n              pop\n              0x20\n              add\n              swap2\n              pop\n              pop\n              mload(0x40)\n              dup1\n              swap2\n              sub\n              swap1\n              revert\n            tag_139:\n                /* \"smartChefFactory2.sol\":35843:35854  rewardToken */\n              0x0a\n              0x00\n              swap1\n              sload\n              swap1\n              0x0100\n              exp\n              swap1\n              div\n              0xffffffffffffffffffffffffffffffffffffffff\n              and\n                /* \"smartChefFactory2.sol\":35818:35855  _tokenAddress != address(rewardToken) */\n              0xffffffffffffffffffffffffffffffffffffffff\n              and\n                /* \"smartChefFactory2.sol\":35818:35831  _tokenAddress */\n              dup3\n                /* \"smartChefFactory2.sol\":35818:35855  _tokenAddress != address(rewardToken) */\n              0xffffffffffffffffffffffffffffffffffffffff\n              and\n              eq\n              iszero\n                /* \"smartChefFactory2.sol\":35810:35882  require(_tokenAddress != address(rewardToken), \"Cannot be reward token\") */\n              tag_140\n              jumpi\n              mload(0x40)\n              0x08c379a000000000000000000000000000000000000000000000000000000000\n              dup2\n              mstore\n              0x04\n              add\n              dup1\n              dup1\n              0x20\n              add\n              dup3\n              dup2\n              sub\n              dup3\n              mstore\n              0x16\n              dup2\n              mstore\n              0x20\n              add\n              dup1\n              0x43616e6e6f742062652072657761726420746f6b656e00000000000000000000\n              dup2\n              mstore\n              pop\n              0x20\n              add\n              swap2\n              pop\n              pop\n              mload(0x40)\n              dup1\n              swap2\n              sub\n              swap1\n              revert\n            tag_140:\n                /* \"smartChefFactory2.sol\":35895:35964  IBEP20(_tokenAddress).safeTransfer(address(msg.sender), _tokenAmount) */\n              tag_141\n                /* \"smartChefFactory2.sol\":35938:35948  msg.sender */\n              caller\n                /* \"smartChefFactory2.sol\":35951:35963  _tokenAmount */\n              dup3\n                /* \"smartChefFactory2.sol\":35902:35915  _tokenAddress */\n              dup5\n                /* \"smartChefFactory2.sol\":35895:35929  IBEP20(_tokenAddress).safeTransfer */\n              0xffffffffffffffffffffffffffffffffffffffff\n              and\n              tag_123\n              swap1\n                /* \"smartChefFactory2.sol\":35895:35964  IBEP20(_tokenAddress).safeTransfer(address(msg.sender), _tokenAmount) */\n              swap3\n              swap2\n              swap1\n              0xffffffff\n              and\n              jump\t// in\n            tag_141:\n                /* \"smartChefFactory2.sol\":35982:36029  AdminTokenRecovery(_tokenAddress, _tokenAmount) */\n              0x74545154aac348a3eac92596bd1971957ca94795f4e954ec5f613b55fab78129\n                /* \"smartChefFactory2.sol\":36001:36014  _tokenAddress */\n              dup3\n                /* \"smartChefFactory2.sol\":36016:36028  _tokenAmount */\n              dup3\n                /* \"smartChefFactory2.sol\":35982:36029  AdminTokenRecovery(_tokenAddress, _tokenAmount) */\n              mload(0x40)\n              dup1\n              dup4\n              0xffffffffffffffffffffffffffffffffffffffff\n              and\n              dup2\n              mstore\n              0x20\n              add\n              dup3\n              dup2\n              mstore\n              0x20\n              add\n              swap3\n              pop\n              pop\n              pop\n              mload(0x40)\n              dup1\n              swap2\n              sub\n              swap1\n              log1\n                /* \"smartChefFactory2.sol\":35624:36037  function recoverWrongTokens(address _tokenAddress, uint256 _tokenAmount) external onlyOwner {\r... */\n              pop\n              pop\n              jump\t// out\n                /* \"smartChefFactory2.sol\":29655:29680  uint256 public startBlock */\n            tag_56:\n              sload(0x05)\n              dup2\n              jump\t// out\n                /* \"smartChefFactory2.sol\":29812:29843  uint256 public poolLimitPerUser */\n            tag_58:\n              sload(0x07)\n              dup2\n              jump\t// out\n                /* \"smartChefFactory2.sol\":2778:2926  function renounceOwnership() public virtual onlyOwner {\r... */\n            tag_60:\n                /* \"smartChefFactory2.sol\":2358:2370  _msgSender() */\n              tag_143\n                /* \"smartChefFactory2.sol\":2358:2368  _msgSender */\n              tag_103\n                /* \"smartChefFactory2.sol\":2358:2370  _msgSender() */\n              jump\t// in\n            tag_143:\n                /* \"smartChefFactory2.sol\":2347:2370  owner() == _msgSender() */\n              0xffffffffffffffffffffffffffffffffffffffff\n              and\n                /* \"smartChefFactory2.sol\":2347:2354  owner() */\n              tag_144\n                /* \"smartChefFactory2.sol\":2347:2352  owner */\n              tag_69\n                /* \"smartChefFactory2.sol\":2347:2354  owner() */\n              jump\t// in\n            tag_144:\n                /* \"smartChefFactory2.sol\":2347:2370  owner() == _msgSender() */\n              0xffffffffffffffffffffffffffffffffffffffff\n              and\n              eq\n                /* \"smartChefFactory2.sol\":2339:2407  require(owner() == _msgSender(), \"Ownable: caller is not the owner\") */\n              tag_145\n              jumpi\n              mload(0x40)\n              0x08c379a000000000000000000000000000000000000000000000000000000000\n              dup2\n              mstore\n              0x04\n              add\n              dup1\n              dup1\n              0x20\n              add\n              dup3\n              dup2\n              sub\n              dup3\n              mstore\n              0x20\n              dup2\n              mstore\n              0x20\n              add\n              dup1\n              0x4f776e61626c653a2063616c6c6572206973206e6f7420746865206f776e6572\n              dup2\n              mstore\n              pop\n              0x20\n              add\n              swap2\n              pop\n              pop\n              mload(0x40)\n              dup1\n              swap2\n              sub\n              swap1\n              revert\n            tag_145:\n                /* \"smartChefFactory2.sol\":2885:2886  0 */\n              0x00\n                /* \"smartChefFactory2.sol\":2848:2888  OwnershipTransferred(_owner, address(0)) */\n              0xffffffffffffffffffffffffffffffffffffffff\n              and\n                /* \"smartChefFactory2.sol\":2869:2875  _owner */\n              0x00\n              dup1\n              sload\n              swap1\n              0x0100\n              exp\n              swap1\n              div\n              0xffffffffffffffffffffffffffffffffffffffff\n              and\n                /* \"smartChefFactory2.sol\":2848:2888  OwnershipTransferred(_owner, address(0)) */\n              0xffffffffffffffffffffffffffffffffffffffff\n              and\n              0x8be0079c531659141344cd1fd0a4f28419497f9722a3daafe3b4186f6b6457e0\n              mload(0x40)\n              mload(0x40)\n              dup1\n              swap2\n              sub\n              swap1\n              log3\n                /* \"smartChefFactory2.sol\":2916:2917  0 */\n              0x00\n                /* \"smartChefFactory2.sol\":2899:2905  _owner */\n              dup1\n              0x00\n                /* \"smartChefFactory2.sol\":2899:2918  _owner = address(0) */\n              0x0100\n              exp\n              dup2\n              sload\n              dup2\n              0xffffffffffffffffffffffffffffffffffffffff\n              mul\n              not\n              and\n              swap1\n              dup4\n              0xffffffffffffffffffffffffffffffffffffffff\n              and\n              mul\n              or\n              swap1\n              sstore\n              pop\n                /* \"smartChefFactory2.sol\":2778:2926  function renounceOwnership() public virtual onlyOwner {\r... */\n              jump\t// out\n                /* \"smartChefFactory2.sol\":36127:36215  function stopReward() external onlyOwner {\r... */\n            tag_62:\n                /* \"smartChefFactory2.sol\":2358:2370  _msgSender() */\n              tag_148\n                /* \"smartChefFactory2.sol\":2358:2368  _msgSender */\n              tag_103\n                /* \"smartChefFactory2.sol\":2358:2370  _msgSender() */\n              jump\t// in\n            tag_148:\n                /* \"smartChefFactory2.sol\":2347:2370  owner() == _msgSender() */\n              0xffffffffffffffffffffffffffffffffffffffff\n              and\n                /* \"smartChefFactory2.sol\":2347:2354  owner() */\n              tag_149\n                /* \"smartChefFactory2.sol\":2347:2352  owner */\n              tag_69\n                /* \"smartChefFactory2.sol\":2347:2354  owner() */\n              jump\t// in\n            tag_149:\n                /* \"smartChefFactory2.sol\":2347:2370  owner() == _msgSender() */\n              0xffffffffffffffffffffffffffffffffffffffff\n              and\n              eq\n                /* \"smartChefFactory2.sol\":2339:2407  require(owner() == _msgSender(), \"Ownable: caller is not the owner\") */\n              tag_150\n              jumpi\n              mload(0x40)\n              0x08c379a000000000000000000000000000000000000000000000000000000000\n              dup2\n              mstore\n              0x04\n              add\n              dup1\n              dup1\n              0x20\n              add\n              dup3\n              dup2\n              sub\n              dup3\n              mstore\n              0x20\n              dup2\n              mstore\n              0x20\n              add\n              dup1\n              0x4f776e61626c653a2063616c6c6572206973206e6f7420746865206f776e6572\n              dup2\n              mstore\n              pop\n              0x20\n              add\n              swap2\n              pop\n              pop\n              mload(0x40)\n              dup1\n              swap2\n              sub\n              swap1\n              revert\n            tag_150:\n                /* \"smartChefFactory2.sol\":36195:36207  block.number */\n              number\n                /* \"smartChefFactory2.sol\":36179:36192  bonusEndBlock */\n              0x04\n                /* \"smartChefFactory2.sol\":36179:36207  bonusEndBlock = block.number */\n              dup2\n              swap1\n              sstore\n              pop\n                /* \"smartChefFactory2.sol\":36127:36215  function stopReward() external onlyOwner {\r... */\n              jump\t// out\n                /* \"smartChefFactory2.sol\":31377:32616  function initialize(\r... */\n            tag_65:\n                /* \"smartChefFactory2.sol\":31651:31664  isInitialized */\n              0x02\n              0x15\n              swap1\n              sload\n              swap1\n              0x0100\n              exp\n              swap1\n              div\n              0xff\n              and\n                /* \"smartChefFactory2.sol\":31650:31664  !isInitialized */\n              iszero\n                /* \"smartChefFactory2.sol\":31642:31688  require(!isInitialized, \"Already initialized\") */\n              tag_153\n              jumpi\n              mload(0x40)\n              0x08c379a000000000000000000000000000000000000000000000000000000000\n              dup2\n              mstore\n              0x04\n              add\n              dup1\n              dup1\n              0x20\n              add\n              dup3\n              dup2\n              sub\n              dup3\n              mstore\n              0x13\n              dup2\n              mstore\n              0x20\n              add\n              dup1\n              0x416c726561647920696e697469616c697a656400000000000000000000000000\n              dup2\n              mstore\n              pop\n              0x20\n              add\n              swap2\n              pop\n              pop\n              mload(0x40)\n              dup1\n              swap2\n              sub\n              swap1\n              revert\n            tag_153:\n                /* \"smartChefFactory2.sol\":31721:31739  SMART_CHEF_FACTORY */\n              0x02\n              0x00\n              swap1\n              sload\n              swap1\n              0x0100\n              exp\n              swap1\n              div\n              0xffffffffffffffffffffffffffffffffffffffff\n              and\n                /* \"smartChefFactory2.sol\":31707:31739  msg.sender == SMART_CHEF_FACTORY */\n              0xffffffffffffffffffffffffffffffffffffffff\n              and\n                /* \"smartChefFactory2.sol\":31707:31717  msg.sender */\n              caller\n                /* \"smartChefFactory2.sol\":31707:31739  msg.sender == SMART_CHEF_FACTORY */\n              0xffffffffffffffffffffffffffffffffffffffff\n              and\n              eq\n                /* \"smartChefFactory2.sol\":31699:31755  require(msg.sender == SMART_CHEF_FACTORY, \"Not factory\") */\n              tag_154\n              jumpi\n              mload(0x40)\n              0x08c379a000000000000000000000000000000000000000000000000000000000\n              dup2\n              mstore\n              0x04\n              add\n              dup1\n              dup1\n              0x20\n              add\n              dup3\n              dup2\n              sub\n              dup3\n              mstore\n              0x0b\n              dup2\n              mstore\n              0x20\n              add\n              dup1\n              0x4e6f7420666163746f7279000000000000000000000000000000000000000000\n              dup2\n              mstore\n              pop\n              0x20\n              add\n              swap2\n              pop\n              pop\n              mload(0x40)\n              dup1\n              swap2\n              sub\n              swap1\n              revert\n            tag_154:\n                /* \"smartChefFactory2.sol\":31827:31831  true */\n              0x01\n                /* \"smartChefFactory2.sol\":31811:31824  isInitialized */\n              0x02\n              0x15\n                /* \"smartChefFactory2.sol\":31811:31831  isInitialized = true */\n              0x0100\n              exp\n              dup2\n              sload\n              dup2\n              0xff\n              mul\n              not\n              and\n              swap1\n              dup4\n              iszero\n              iszero\n              mul\n              or\n              swap1\n              sstore\n              pop\n                /* \"smartChefFactory2.sol\":31858:31870  _stakedToken */\n              dup7\n                /* \"smartChefFactory2.sol\":31844:31855  stakedToken */\n              0x0b\n              0x00\n                /* \"smartChefFactory2.sol\":31844:31870  stakedToken = _stakedToken */\n              0x0100\n              exp\n              dup2\n              sload\n              dup2\n              0xffffffffffffffffffffffffffffffffffffffff\n              mul\n              not\n              and\n              swap1\n              dup4\n              0xffffffffffffffffffffffffffffffffffffffff\n              and\n              mul\n              or\n              swap1\n              sstore\n              pop\n                /* \"smartChefFactory2.sol\":31895:31907  _rewardToken */\n              dup6\n                /* \"smartChefFactory2.sol\":31881:31892  rewardToken */\n              0x0a\n              0x00\n                /* \"smartChefFactory2.sol\":31881:31907  rewardToken = _rewardToken */\n              0x0100\n              exp\n              dup2\n              sload\n              dup2\n              0xffffffffffffffffffffffffffffffffffffffff\n              mul\n              not\n              and\n              swap1\n              dup4\n              0xffffffffffffffffffffffffffffffffffffffff\n              and\n              mul\n              or\n              swap1\n              sstore\n              pop\n                /* \"smartChefFactory2.sol\":31935:31950  _rewardPerBlock */\n              dup5\n                /* \"smartChefFactory2.sol\":31918:31932  rewardPerBlock */\n              0x08\n                /* \"smartChefFactory2.sol\":31918:31950  rewardPerBlock = _rewardPerBlock */\n              dup2\n              swap1\n              sstore\n              pop\n                /* \"smartChefFactory2.sol\":31974:31985  _startBlock */\n              dup4\n                /* \"smartChefFactory2.sol\":31961:31971  startBlock */\n              0x05\n                /* \"smartChefFactory2.sol\":31961:31985  startBlock = _startBlock */\n              dup2\n              swap1\n              sstore\n              pop\n                /* \"smartChefFactory2.sol\":32012:32026  _bonusEndBlock */\n              dup3\n                /* \"smartChefFactory2.sol\":31996:32009  bonusEndBlock */\n              0x04\n                /* \"smartChefFactory2.sol\":31996:32026  bonusEndBlock = _bonusEndBlock */\n              dup2\n              swap1\n              sstore\n              pop\n                /* \"smartChefFactory2.sol\":32063:32064  0 */\n              0x00\n                /* \"smartChefFactory2.sol\":32043:32060  _poolLimitPerUser */\n              dup3\n                /* \"smartChefFactory2.sol\":32043:32064  _poolLimitPerUser > 0 */\n              gt\n                /* \"smartChefFactory2.sol\":32039:32163  if (_poolLimitPerUser > 0) {\r... */\n              iszero\n              tag_155\n              jumpi\n                /* \"smartChefFactory2.sol\":32096:32100  true */\n              0x01\n                /* \"smartChefFactory2.sol\":32081:32093  hasUserLimit */\n              0x02\n              0x14\n                /* \"smartChefFactory2.sol\":32081:32100  hasUserLimit = true */\n              0x0100\n              exp\n              dup2\n              sload\n              dup2\n              0xff\n              mul\n              not\n              and\n              swap1\n              dup4\n              iszero\n              iszero\n              mul\n              or\n              swap1\n              sstore\n              pop\n                /* \"smartChefFactory2.sol\":32134:32151  _poolLimitPerUser */\n              dup2\n                /* \"smartChefFactory2.sol\":32115:32131  poolLimitPerUser */\n              0x07\n                /* \"smartChefFactory2.sol\":32115:32151  poolLimitPerUser = _poolLimitPerUser */\n              dup2\n              swap1\n              sstore\n              pop\n                /* \"smartChefFactory2.sol\":32039:32163  if (_poolLimitPerUser > 0) {\r... */\n            tag_155:\n                /* \"smartChefFactory2.sol\":32175:32202  uint256 decimalsRewardToken */\n              0x00\n                /* \"smartChefFactory2.sol\":32213:32224  rewardToken */\n              0x0a\n              0x00\n              swap1\n              sload\n              swap1\n              0x0100\n              exp\n              swap1\n              div\n              0xffffffffffffffffffffffffffffffffffffffff\n              and\n                /* \"smartChefFactory2.sol\":32213:32233  rewardToken.decimals */\n              0xffffffffffffffffffffffffffffffffffffffff\n              and\n              0x313ce567\n                /* \"smartChefFactory2.sol\":32213:32235  rewardToken.decimals() */\n              mload(0x40)\n              dup2\n              0xffffffff\n              and\n              0xe0\n              shl\n              dup2\n              mstore\n              0x04\n              add\n              0x20\n              mload(0x40)\n              dup1\n              dup4\n              sub\n              dup2\n              dup7\n              dup1\n              extcodesize\n              iszero\n              dup1\n              iszero\n              tag_156\n              jumpi\n              0x00\n              dup1\n              revert\n            tag_156:\n              pop\n              gas\n              staticcall\n              iszero\n              dup1\n              iszero\n              tag_158\n              jumpi\n              returndatasize\n              0x00\n              dup1\n              returndatacopy\n              revert(0x00, returndatasize)\n            tag_158:\n              pop\n              pop\n              pop\n              pop\n              mload(0x40)\n              returndatasize\n              0x20\n              dup2\n              lt\n              iszero\n              tag_159\n              jumpi\n              0x00\n              dup1\n              revert\n            tag_159:\n              dup2\n              add\n              swap1\n              dup1\n              dup1\n              mload\n              swap1\n              0x20\n              add\n              swap1\n              swap3\n              swap2\n              swap1\n              pop\n              pop\n              pop\n                /* \"smartChefFactory2.sol\":32205:32236  uint256(rewardToken.decimals()) */\n              0xff\n              and\n                /* \"smartChefFactory2.sol\":32175:32236  uint256 decimalsRewardToken = uint256(rewardToken.decimals()) */\n              swap1\n              pop\n                /* \"smartChefFactory2.sol\":32277:32279  30 */\n              0x1e\n                /* \"smartChefFactory2.sol\":32255:32274  decimalsRewardToken */\n              dup2\n                /* \"smartChefFactory2.sol\":32255:32279  decimalsRewardToken < 30 */\n              lt\n                /* \"smartChefFactory2.sol\":32247:32306  require(decimalsRewardToken < 30, \"Must be inferior to 30\") */\n              tag_160\n              jumpi\n              mload(0x40)\n              0x08c379a000000000000000000000000000000000000000000000000000000000\n              dup2\n              mstore\n              0x04\n              add\n              dup1\n              dup1\n              0x20\n              add\n              dup3\n              dup2\n              sub\n              dup3\n              mstore\n              0x16\n              dup2\n              mstore\n              0x20\n              add\n              dup1\n              0x4d75737420626520696e666572696f7220746f20333000000000000000000000\n              dup2\n              mstore\n              pop\n              0x20\n              add\n              swap2\n              pop\n              pop\n              mload(0x40)\n              dup1\n              swap2\n              sub\n              swap1\n              revert\n            tag_160:\n                /* \"smartChefFactory2.sol\":32351:32387  uint256(30).sub(decimalsRewardToken) */\n              tag_161\n                /* \"smartChefFactory2.sol\":32367:32386  decimalsRewardToken */\n              dup2\n                /* \"smartChefFactory2.sol\":32359:32361  30 */\n              0x1e\n                /* \"smartChefFactory2.sol\":32351:32366  uint256(30).sub */\n              tag_119\n              swap1\n                /* \"smartChefFactory2.sol\":32351:32387  uint256(30).sub(decimalsRewardToken) */\n              swap2\n              swap1\n              0xffffffff\n              and\n              jump\t// in\n            tag_161:\n                /* \"smartChefFactory2.sol\":32346:32348  10 */\n              0x0a\n                /* \"smartChefFactory2.sol\":32346:32388  10**(uint256(30).sub(decimalsRewardToken)) */\n              exp\n                /* \"smartChefFactory2.sol\":32319:32335  PRECISION_FACTOR */\n              0x09\n                /* \"smartChefFactory2.sol\":32319:32389  PRECISION_FACTOR = uint256(10**(uint256(30).sub(decimalsRewardToken))) */\n              dup2\n              swap1\n              sstore\n              pop\n                /* \"smartChefFactory2.sol\":32474:32484  startBlock */\n              sload(0x05)\n                /* \"smartChefFactory2.sol\":32456:32471  lastRewardBlock */\n              0x06\n                /* \"smartChefFactory2.sol\":32456:32484  lastRewardBlock = startBlock */\n              dup2\n              swap1\n              sstore\n              pop\n                /* \"smartChefFactory2.sol\":32583:32608  transferOwnership(_admin) */\n              tag_162\n                /* \"smartChefFactory2.sol\":32601:32607  _admin */\n              dup3\n                /* \"smartChefFactory2.sol\":32583:32600  transferOwnership */\n              tag_95\n                /* \"smartChefFactory2.sol\":32583:32608  transferOwnership(_admin) */\n              jump\t// in\n            tag_162:\n                /* \"smartChefFactory2.sol\":31377:32616  function initialize(\r... */\n              pop\n              pop\n              pop\n              pop\n              pop\n              pop\n              pop\n              pop\n              jump\t// out\n                /* \"smartChefFactory2.sol\":29891:29920  uint256 public rewardPerBlock */\n            tag_67:\n              sload(0x08)\n              dup2\n              jump\t// out\n                /* \"smartChefFactory2.sol\":2127:2214  function owner() public view virtual returns (address) {\r... */\n            tag_69:\n                /* \"smartChefFactory2.sol\":2173:2180  address */\n              0x00\n                /* \"smartChefFactory2.sol\":2200:2206  _owner */\n              dup1\n              0x00\n              swap1\n              sload\n              swap1\n              0x0100\n              exp\n              swap1\n              div\n              0xffffffffffffffffffffffffffffffffffffffff\n              and\n                /* \"smartChefFactory2.sol\":2193:2206  return _owner */\n              swap1\n              pop\n                /* \"smartChefFactory2.sol\":2127:2214  function owner() public view virtual returns (address) {\r... */\n              swap1\n              jump\t// out\n                /* \"smartChefFactory2.sol\":29480:29511  uint256 public accTokenPerShare */\n            tag_71:\n              sload(0x03)\n              dup2\n              jump\t// out\n                /* \"smartChefFactory2.sol\":29347:29371  bool public hasUserLimit */\n            tag_73:\n              0x02\n              0x14\n              swap1\n              sload\n              swap1\n              0x0100\n              exp\n              swap1\n              div\n              0xff\n              and\n              dup2\n              jump\t// out\n                /* \"smartChefFactory2.sol\":37555:38161  function updateStartAndEndBlocks(uint256 _startBlock, uint256 _bonusEndBlock) external onlyOwner {\r... */\n            tag_76:\n                /* \"smartChefFactory2.sol\":2358:2370  _msgSender() */\n              tag_165\n                /* \"smartChefFactory2.sol\":2358:2368  _msgSender */\n              tag_103\n                /* \"smartChefFactory2.sol\":2358:2370  _msgSender() */\n              jump\t// in\n            tag_165:\n                /* \"smartChefFactory2.sol\":2347:2370  owner() == _msgSender() */\n              0xffffffffffffffffffffffffffffffffffffffff\n              and\n                /* \"smartChefFactory2.sol\":2347:2354  owner() */\n              tag_166\n                /* \"smartChefFactory2.sol\":2347:2352  owner */\n              tag_69\n                /* \"smartChefFactory2.sol\":2347:2354  owner() */\n              jump\t// in\n            tag_166:\n                /* \"smartChefFactory2.sol\":2347:2370  owner() == _msgSender() */\n              0xffffffffffffffffffffffffffffffffffffffff\n              and\n              eq\n                /* \"smartChefFactory2.sol\":2339:2407  require(owner() == _msgSender(), \"Ownable: caller is not the owner\") */\n              tag_167\n              jumpi\n              mload(0x40)\n              0x08c379a000000000000000000000000000000000000000000000000000000000\n              dup2\n              mstore\n              0x04\n              add\n              dup1\n              dup1\n              0x20\n              add\n              dup3\n              dup2\n              sub\n              dup3\n              mstore\n              0x20\n              dup2\n              mstore\n              0x20\n              add\n              dup1\n              0x4f776e61626c653a2063616c6c6572206973206e6f7420746865206f776e6572\n              dup2\n              mstore\n              pop\n              0x20\n              add\n              swap2\n              pop\n              pop\n              mload(0x40)\n              dup1\n              swap2\n              sub\n              swap1\n              revert\n            tag_167:\n                /* \"smartChefFactory2.sol\":37686:37696  startBlock */\n              sload(0x05)\n                /* \"smartChefFactory2.sol\":37671:37683  block.number */\n              number\n                /* \"smartChefFactory2.sol\":37671:37696  block.number < startBlock */\n              lt\n                /* \"smartChefFactory2.sol\":37663:37717  require(block.number < startBlock, \"Pool has started\") */\n              tag_169\n              jumpi\n              mload(0x40)\n              0x08c379a000000000000000000000000000000000000000000000000000000000\n              dup2\n              mstore\n              0x04\n              add\n              dup1\n              dup1\n              0x20\n              add\n              dup3\n              dup2\n              sub\n              dup3\n              mstore\n              0x10\n              dup2\n              mstore\n              0x20\n              add\n              dup1\n              0x506f6f6c20686173207374617274656400000000000000000000000000000000\n              dup2\n              mstore\n              pop\n              0x20\n              add\n              swap2\n              pop\n              pop\n              mload(0x40)\n              dup1\n              swap2\n              sub\n              swap1\n              revert\n            tag_169:\n                /* \"smartChefFactory2.sol\":37750:37764  _bonusEndBlock */\n              dup1\n                /* \"smartChefFactory2.sol\":37736:37747  _startBlock */\n              dup3\n                /* \"smartChefFactory2.sol\":37736:37764  _startBlock < _bonusEndBlock */\n              lt\n                /* \"smartChefFactory2.sol\":37728:37815  require(_startBlock < _bonusEndBlock, \"New startBlock must be lower than new endBlock\") */\n              tag_170\n              jumpi\n              mload(0x40)\n              0x08c379a000000000000000000000000000000000000000000000000000000000\n              dup2\n              mstore\n              0x04\n              add\n              dup1\n              dup1\n              0x20\n              add\n              dup3\n              dup2\n              sub\n              dup3\n              mstore\n              0x2e\n              dup2\n              mstore\n              0x20\n              add\n              dup1\n              data_55e8b512461165150226d7fb62af16288a660c0fc1f35821ba4ad8ad658a0bb0\n              0x2e\n              swap2\n              codecopy\n              0x40\n              add\n              swap2\n              pop\n              pop\n              mload(0x40)\n              dup1\n              swap2\n              sub\n              swap1\n              revert\n            tag_170:\n                /* \"smartChefFactory2.sol\":37849:37860  _startBlock */\n              dup2\n                /* \"smartChefFactory2.sol\":37834:37846  block.number */\n              number\n                /* \"smartChefFactory2.sol\":37834:37860  block.number < _startBlock */\n              lt\n                /* \"smartChefFactory2.sol\":37826:37913  require(block.number < _startBlock, \"New startBlock must be higher than current block\") */\n              tag_171\n              jumpi\n              mload(0x40)\n              0x08c379a000000000000000000000000000000000000000000000000000000000\n              dup2\n              mstore\n              0x04\n              add\n              dup1\n              dup1\n              0x20\n              add\n              dup3\n              dup2\n              sub\n              dup3\n              mstore\n              0x30\n              dup2\n              mstore\n              0x20\n              add\n              dup1\n              data_8ddaf6510efec06eaa5007f0744244862092545bc763e566e2661c53c8ff3a7e\n              0x30\n              swap2\n              codecopy\n              0x40\n              add\n              swap2\n              pop\n              pop\n              mload(0x40)\n              dup1\n              swap2\n              sub\n              swap1\n              revert\n            tag_171:\n                /* \"smartChefFactory2.sol\":37939:37950  _startBlock */\n              dup2\n                /* \"smartChefFactory2.sol\":37926:37936  startBlock */\n              0x05\n                /* \"smartChefFactory2.sol\":37926:37950  startBlock = _startBlock */\n              dup2\n              swap1\n              sstore\n              pop\n                /* \"smartChefFactory2.sol\":37977:37991  _bonusEndBlock */\n              dup1\n                /* \"smartChefFactory2.sol\":37961:37974  bonusEndBlock */\n              0x04\n                /* \"smartChefFactory2.sol\":37961:37991  bonusEndBlock = _bonusEndBlock */\n              dup2\n              swap1\n              sstore\n              pop\n                /* \"smartChefFactory2.sol\":38076:38086  startBlock */\n              sload(0x05)\n                /* \"smartChefFactory2.sol\":38058:38073  lastRewardBlock */\n              0x06\n                /* \"smartChefFactory2.sol\":38058:38086  lastRewardBlock = startBlock */\n              dup2\n              swap1\n              sstore\n              pop\n                /* \"smartChefFactory2.sol\":38104:38153  NewStartAndEndBlocks(_startBlock, _bonusEndBlock) */\n              0x7cd0ab87d19036f3dfadadb232c78aa4879dda3f0c994a9d637532410ee2ce06\n                /* \"smartChefFactory2.sol\":38125:38136  _startBlock */\n              dup3\n                /* \"smartChefFactory2.sol\":38138:38152  _bonusEndBlock */\n              dup3\n                /* \"smartChefFactory2.sol\":38104:38153  NewStartAndEndBlocks(_startBlock, _bonusEndBlock) */\n              mload(0x40)\n              dup1\n              dup4\n              dup2\n              mstore\n              0x20\n              add\n              dup3\n              dup2\n              mstore\n              0x20\n              add\n              swap3\n              pop\n              pop\n              pop\n              mload(0x40)\n              dup1\n              swap2\n              sub\n              swap1\n              log1\n                /* \"smartChefFactory2.sol\":37555:38161  function updateStartAndEndBlocks(uint256 _startBlock, uint256 _bonusEndBlock) external onlyOwner {\r... */\n              pop\n              pop\n              jump\t// out\n                /* \"smartChefFactory2.sol\":36441:36916  function updatePoolLimitPerUser(bool _hasUserLimit, uint256 _poolLimitPerUser) external onlyOwner {\r... */\n            tag_79:\n                /* \"smartChefFactory2.sol\":2358:2370  _msgSender() */\n              tag_173\n                /* \"smartChefFactory2.sol\":2358:2368  _msgSender */\n              tag_103\n                /* \"smartChefFactory2.sol\":2358:2370  _msgSender() */\n              jump\t// in\n            tag_173:\n                /* \"smartChefFactory2.sol\":2347:2370  owner() == _msgSender() */\n              0xffffffffffffffffffffffffffffffffffffffff\n              and\n                /* \"smartChefFactory2.sol\":2347:2354  owner() */\n              tag_174\n                /* \"smartChefFactory2.sol\":2347:2352  owner */\n              tag_69\n                /* \"smartChefFactory2.sol\":2347:2354  owner() */\n              jump\t// in\n            tag_174:\n                /* \"smartChefFactory2.sol\":2347:2370  owner() == _msgSender() */\n              0xffffffffffffffffffffffffffffffffffffffff\n              and\n              eq\n                /* \"smartChefFactory2.sol\":2339:2407  require(owner() == _msgSender(), \"Ownable: caller is not the owner\") */\n              tag_175\n              jumpi\n              mload(0x40)\n              0x08c379a000000000000000000000000000000000000000000000000000000000\n              dup2\n              mstore\n              0x04\n              add\n              dup1\n              dup1\n              0x20\n              add\n              dup3\n              dup2\n              sub\n              dup3\n              mstore\n              0x20\n              dup2\n              mstore\n              0x20\n              add\n              dup1\n              0x4f776e61626c653a2063616c6c6572206973206e6f7420746865206f776e6572\n              dup2\n              mstore\n              pop\n              0x20\n              add\n              swap2\n              pop\n              pop\n              mload(0x40)\n              dup1\n              swap2\n              sub\n              swap1\n              revert\n            tag_175:\n                /* \"smartChefFactory2.sol\":36558:36570  hasUserLimit */\n              0x02\n              0x14\n              swap1\n              sload\n              swap1\n              0x0100\n              exp\n              swap1\n              div\n              0xff\n              and\n                /* \"smartChefFactory2.sol\":36550:36586  require(hasUserLimit, \"Must be set\") */\n              tag_177\n              jumpi\n              mload(0x40)\n              0x08c379a000000000000000000000000000000000000000000000000000000000\n              dup2\n              mstore\n              0x04\n              add\n              dup1\n              dup1\n              0x20\n              add\n              dup3\n              dup2\n              sub\n              dup3\n              mstore\n              0x0b\n              dup2\n              mstore\n              0x20\n              add\n              dup1\n              0x4d75737420626520736574000000000000000000000000000000000000000000\n              dup2\n              mstore\n              pop\n              0x20\n              add\n              swap2\n              pop\n              pop\n              mload(0x40)\n              dup1\n              swap2\n              sub\n              swap1\n              revert\n            tag_177:\n                /* \"smartChefFactory2.sol\":36601:36614  _hasUserLimit */\n              dup2\n                /* \"smartChefFactory2.sol\":36597:36863  if (_hasUserLimit) {\r... */\n              iszero\n              tag_178\n              jumpi\n                /* \"smartChefFactory2.sol\":36659:36675  poolLimitPerUser */\n              sload(0x07)\n                /* \"smartChefFactory2.sol\":36639:36656  _poolLimitPerUser */\n              dup2\n                /* \"smartChefFactory2.sol\":36639:36675  _poolLimitPerUser > poolLimitPerUser */\n              gt\n                /* \"smartChefFactory2.sol\":36631:36704  require(_poolLimitPerUser > poolLimitPerUser, \"New limit must be higher\") */\n              tag_179\n              jumpi\n              mload(0x40)\n              0x08c379a000000000000000000000000000000000000000000000000000000000\n              dup2\n              mstore\n              0x04\n              add\n              dup1\n              dup1\n              0x20\n              add\n              dup3\n              dup2\n              sub\n              dup3\n              mstore\n              0x18\n              dup2\n              mstore\n              0x20\n              add\n              dup1\n              0x4e6577206c696d6974206d757374206265206869676865720000000000000000\n              dup2\n              mstore\n              pop\n              0x20\n              add\n              swap2\n              pop\n              pop\n              mload(0x40)\n              dup1\n              swap2\n              sub\n              swap1\n              revert\n            tag_179:\n                /* \"smartChefFactory2.sol\":36738:36755  _poolLimitPerUser */\n              dup1\n                /* \"smartChefFactory2.sol\":36719:36735  poolLimitPerUser */\n              0x07\n                /* \"smartChefFactory2.sol\":36719:36755  poolLimitPerUser = _poolLimitPerUser */\n              dup2\n              swap1\n              sstore\n              pop\n                /* \"smartChefFactory2.sol\":36597:36863  if (_hasUserLimit) {\r... */\n              jump(tag_180)\n            tag_178:\n                /* \"smartChefFactory2.sol\":36803:36816  _hasUserLimit */\n              dup2\n                /* \"smartChefFactory2.sol\":36788:36800  hasUserLimit */\n              0x02\n              0x14\n                /* \"smartChefFactory2.sol\":36788:36816  hasUserLimit = _hasUserLimit */\n              0x0100\n              exp\n              dup2\n              sload\n              dup2\n              0xff\n              mul\n              not\n              and\n              swap1\n              dup4\n              iszero\n              iszero\n              mul\n              or\n              swap1\n              sstore\n              pop\n                /* \"smartChefFactory2.sol\":36850:36851  0 */\n              0x00\n                /* \"smartChefFactory2.sol\":36831:36847  poolLimitPerUser */\n              0x07\n                /* \"smartChefFactory2.sol\":36831:36851  poolLimitPerUser = 0 */\n              dup2\n              swap1\n              sstore\n              pop\n                /* \"smartChefFactory2.sol\":36597:36863  if (_hasUserLimit) {\r... */\n            tag_180:\n                /* \"smartChefFactory2.sol\":36878:36908  NewPoolLimit(poolLimitPerUser) */\n              0x241f67ee5f41b7a5cabf911367329be7215900f602ebfc47f89dce2a6bcd847c\n                /* \"smartChefFactory2.sol\":36891:36907  poolLimitPerUser */\n              sload(0x07)\n                /* \"smartChefFactory2.sol\":36878:36908  NewPoolLimit(poolLimitPerUser) */\n              mload(0x40)\n              dup1\n              dup3\n              dup2\n              mstore\n              0x20\n              add\n              swap2\n              pop\n              pop\n              mload(0x40)\n              dup1\n              swap2\n              sub\n              swap1\n              log1\n                /* \"smartChefFactory2.sol\":36441:36916  function updatePoolLimitPerUser(bool _hasUserLimit, uint256 _poolLimitPerUser) external onlyOwner {\r... */\n              pop\n              pop\n              jump\t// out\n                /* \"smartChefFactory2.sol\":29738:29768  uint256 public lastRewardBlock */\n            tag_81:\n              sload(0x06)\n              dup2\n              jump\t// out\n                /* \"smartChefFactory2.sol\":32774:33644  function deposit(uint256 _amount) external nonReentrant {\r... */\n            tag_84:\n                /* \"smartChefFactory2.sol\":15864:15865  2 */\n              0x02\n                /* \"smartChefFactory2.sol\":16469:16476  _status */\n              sload(0x01)\n                /* \"smartChefFactory2.sol\":16469:16488  _status != _ENTERED */\n              eq\n              iszero\n                /* \"smartChefFactory2.sol\":16461:16524  require(_status != _ENTERED, \"ReentrancyGuard: reentrant call\") */\n              tag_182\n              jumpi\n              mload(0x40)\n              0x08c379a000000000000000000000000000000000000000000000000000000000\n              dup2\n              mstore\n              0x04\n              add\n              dup1\n              dup1\n              0x20\n              add\n              dup3\n              dup2\n              sub\n              dup3\n              mstore\n              0x1f\n              dup2\n              mstore\n              0x20\n              add\n              dup1\n              0x5265656e7472616e637947756172643a207265656e7472616e742063616c6c00\n              dup2\n              mstore\n              pop\n              0x20\n              add\n              swap2\n              pop\n              pop\n              mload(0x40)\n              dup1\n              swap2\n              sub\n              swap1\n              revert\n            tag_182:\n                /* \"smartChefFactory2.sol\":15864:15865  2 */\n              0x02\n                /* \"smartChefFactory2.sol\":16602:16609  _status */\n              0x01\n                /* \"smartChefFactory2.sol\":16602:16620  _status = _ENTERED */\n              dup2\n              swap1\n              sstore\n              pop\n                /* \"smartChefFactory2.sol\":32841:32862  UserInfo storage user */\n              0x00\n                /* \"smartChefFactory2.sol\":32865:32873  userInfo */\n              0x0c\n                /* \"smartChefFactory2.sol\":32865:32885  userInfo[msg.sender] */\n              0x00\n                /* \"smartChefFactory2.sol\":32874:32884  msg.sender */\n              caller\n                /* \"smartChefFactory2.sol\":32865:32885  userInfo[msg.sender] */\n              0xffffffffffffffffffffffffffffffffffffffff\n              and\n              0xffffffffffffffffffffffffffffffffffffffff\n              and\n              dup2\n              mstore\n              0x20\n              add\n              swap1\n              dup2\n              mstore\n              0x20\n              add\n              0x00\n              keccak256\n                /* \"smartChefFactory2.sol\":32841:32885  UserInfo storage user = userInfo[msg.sender] */\n              swap1\n              pop\n                /* \"smartChefFactory2.sol\":32902:32914  hasUserLimit */\n              0x02\n              0x14\n              swap1\n              sload\n              swap1\n              0x0100\n              exp\n              swap1\n              div\n              0xff\n              and\n                /* \"smartChefFactory2.sol\":32898:33023  if (hasUserLimit) {\r... */\n              iszero\n              tag_184\n              jumpi\n                /* \"smartChefFactory2.sol\":32967:32983  poolLimitPerUser */\n              sload(0x07)\n                /* \"smartChefFactory2.sol\":32939:32963  _amount.add(user.amount) */\n              tag_185\n                /* \"smartChefFactory2.sol\":32951:32955  user */\n              dup3\n                /* \"smartChefFactory2.sol\":32951:32962  user.amount */\n              0x00\n              add\n              sload\n                /* \"smartChefFactory2.sol\":32939:32946  _amount */\n              dup5\n                /* \"smartChefFactory2.sol\":32939:32950  _amount.add */\n              tag_186\n              swap1\n                /* \"smartChefFactory2.sol\":32939:32963  _amount.add(user.amount) */\n              swap2\n              swap1\n              0xffffffff\n              and\n              jump\t// in\n            tag_185:\n                /* \"smartChefFactory2.sol\":32939:32983  _amount.add(user.amount) <= poolLimitPerUser */\n              gt\n              iszero\n                /* \"smartChefFactory2.sol\":32931:33011  require(_amount.add(user.amount) <= poolLimitPerUser, \"User amount above limit\") */\n              tag_187\n              jumpi\n              mload(0x40)\n              0x08c379a000000000000000000000000000000000000000000000000000000000\n              dup2\n              mstore\n              0x04\n              add\n              dup1\n              dup1\n              0x20\n              add\n              dup3\n              dup2\n              sub\n              dup3\n              mstore\n              0x17\n              dup2\n              mstore\n              0x20\n              add\n              dup1\n              0x5573657220616d6f756e742061626f7665206c696d6974000000000000000000\n              dup2\n              mstore\n              pop\n              0x20\n              add\n              swap2\n              pop\n              pop\n              mload(0x40)\n              dup1\n              swap2\n              sub\n              swap1\n              revert\n            tag_187:\n                /* \"smartChefFactory2.sol\":32898:33023  if (hasUserLimit) {\r... */\n            tag_184:\n                /* \"smartChefFactory2.sol\":33035:33048  _updatePool() */\n              tag_188\n                /* \"smartChefFactory2.sol\":33035:33046  _updatePool */\n              tag_113\n                /* \"smartChefFactory2.sol\":33035:33048  _updatePool() */\n              jump\t// in\n            tag_188:\n                /* \"smartChefFactory2.sol\":33079:33080  0 */\n              0x00\n                /* \"smartChefFactory2.sol\":33065:33069  user */\n              dup2\n                /* \"smartChefFactory2.sol\":33065:33076  user.amount */\n              0x00\n              add\n              sload\n                /* \"smartChefFactory2.sol\":33065:33080  user.amount > 0 */\n              gt\n                /* \"smartChefFactory2.sol\":33061:33323  if (user.amount > 0) {\r... */\n              iszero\n              tag_189\n              jumpi\n                /* \"smartChefFactory2.sol\":33097:33112  uint256 pending */\n              0x00\n                /* \"smartChefFactory2.sol\":33115:33191  user.amount.mul(accTokenPerShare).div(PRECISION_FACTOR).sub(user.rewardDebt) */\n              tag_190\n                /* \"smartChefFactory2.sol\":33175:33179  user */\n              dup3\n                /* \"smartChefFactory2.sol\":33175:33190  user.rewardDebt */\n              0x01\n              add\n              sload\n                /* \"smartChefFactory2.sol\":33115:33170  user.amount.mul(accTokenPerShare).div(PRECISION_FACTOR) */\n              tag_191\n                /* \"smartChefFactory2.sol\":33153:33169  PRECISION_FACTOR */\n              sload(0x09)\n                /* \"smartChefFactory2.sol\":33115:33148  user.amount.mul(accTokenPerShare) */\n              tag_192\n                /* \"smartChefFactory2.sol\":33131:33147  accTokenPerShare */\n              sload(0x03)\n                /* \"smartChefFactory2.sol\":33115:33119  user */\n              dup8\n                /* \"smartChefFactory2.sol\":33115:33126  user.amount */\n              0x00\n              add\n              sload\n                /* \"smartChefFactory2.sol\":33115:33130  user.amount.mul */\n              tag_117\n              swap1\n                /* \"smartChefFactory2.sol\":33115:33148  user.amount.mul(accTokenPerShare) */\n              swap2\n              swap1\n              0xffffffff\n              and\n              jump\t// in\n            tag_192:\n                /* \"smartChefFactory2.sol\":33115:33152  user.amount.mul(accTokenPerShare).div */\n              tag_118\n              swap1\n                /* \"smartChefFactory2.sol\":33115:33170  user.amount.mul(accTokenPerShare).div(PRECISION_FACTOR) */\n              swap2\n              swap1\n              0xffffffff\n              and\n              jump\t// in\n            tag_191:\n                /* \"smartChefFactory2.sol\":33115:33174  user.amount.mul(accTokenPerShare).div(PRECISION_FACTOR).sub */\n              tag_119\n              swap1\n                /* \"smartChefFactory2.sol\":33115:33191  user.amount.mul(accTokenPerShare).div(PRECISION_FACTOR).sub(user.rewardDebt) */\n              swap2\n              swap1\n              0xffffffff\n              and\n              jump\t// in\n            tag_190:\n                /* \"smartChefFactory2.sol\":33097:33191  uint256 pending = user.amount.mul(accTokenPerShare).div(PRECISION_FACTOR).sub(user.rewardDebt) */\n              swap1\n              pop\n                /* \"smartChefFactory2.sol\":33220:33221  0 */\n              0x00\n                /* \"smartChefFactory2.sol\":33210:33217  pending */\n              dup2\n                /* \"smartChefFactory2.sol\":33210:33221  pending > 0 */\n              gt\n                /* \"smartChefFactory2.sol\":33206:33312  if (pending > 0) {\r... */\n              iszero\n              tag_193\n              jumpi\n                /* \"smartChefFactory2.sol\":33242:33296  rewardToken.safeTransfer(address(msg.sender), pending) */\n              tag_194\n                /* \"smartChefFactory2.sol\":33275:33285  msg.sender */\n              caller\n                /* \"smartChefFactory2.sol\":33288:33295  pending */\n              dup3\n                /* \"smartChefFactory2.sol\":33242:33253  rewardToken */\n              0x0a\n              0x00\n              swap1\n              sload\n              swap1\n              0x0100\n              exp\n              swap1\n              div\n              0xffffffffffffffffffffffffffffffffffffffff\n              and\n                /* \"smartChefFactory2.sol\":33242:33266  rewardToken.safeTransfer */\n              0xffffffffffffffffffffffffffffffffffffffff\n              and\n              tag_123\n              swap1\n                /* \"smartChefFactory2.sol\":33242:33296  rewardToken.safeTransfer(address(msg.sender), pending) */\n              swap3\n              swap2\n              swap1\n              0xffffffff\n              and\n              jump\t// in\n            tag_194:\n                /* \"smartChefFactory2.sol\":33206:33312  if (pending > 0) {\r... */\n            tag_193:\n                /* \"smartChefFactory2.sol\":33061:33323  if (user.amount > 0) {\r... */\n              pop\n            tag_189:\n                /* \"smartChefFactory2.sol\":33349:33350  0 */\n              0x00\n                /* \"smartChefFactory2.sol\":33339:33346  _amount */\n              dup3\n                /* \"smartChefFactory2.sol\":33339:33350  _amount > 0 */\n              gt\n                /* \"smartChefFactory2.sol\":33335:33505  if (_amount > 0) {\r... */\n              iszero\n              tag_195\n              jumpi\n                /* \"smartChefFactory2.sol\":33381:33405  user.amount.add(_amount) */\n              tag_196\n                /* \"smartChefFactory2.sol\":33397:33404  _amount */\n              dup3\n                /* \"smartChefFactory2.sol\":33381:33385  user */\n              dup3\n                /* \"smartChefFactory2.sol\":33381:33392  user.amount */\n              0x00\n              add\n              sload\n                /* \"smartChefFactory2.sol\":33381:33396  user.amount.add */\n              tag_186\n              swap1\n                /* \"smartChefFactory2.sol\":33381:33405  user.amount.add(_amount) */\n              swap2\n              swap1\n              0xffffffff\n              and\n              jump\t// in\n            tag_196:\n                /* \"smartChefFactory2.sol\":33367:33371  user */\n              dup2\n                /* \"smartChefFactory2.sol\":33367:33378  user.amount */\n              0x00\n              add\n                /* \"smartChefFactory2.sol\":33367:33405  user.amount = user.amount.add(_amount) */\n              dup2\n              swap1\n              sstore\n              pop\n                /* \"smartChefFactory2.sol\":33420:33493  stakedToken.safeTransferFrom(address(msg.sender), address(this), _amount) */\n              tag_197\n                /* \"smartChefFactory2.sol\":33457:33467  msg.sender */\n              caller\n                /* \"smartChefFactory2.sol\":33478:33482  this */\n              address\n                /* \"smartChefFactory2.sol\":33485:33492  _amount */\n              dup5\n                /* \"smartChefFactory2.sol\":33420:33431  stakedToken */\n              0x0b\n              0x00\n              swap1\n              sload\n              swap1\n              0x0100\n              exp\n              swap1\n              div\n              0xffffffffffffffffffffffffffffffffffffffff\n              and\n                /* \"smartChefFactory2.sol\":33420:33448  stakedToken.safeTransferFrom */\n              0xffffffffffffffffffffffffffffffffffffffff\n              and\n              tag_198\n              swap1\n                /* \"smartChefFactory2.sol\":33420:33493  stakedToken.safeTransferFrom(address(msg.sender), address(this), _amount) */\n              swap4\n              swap3\n              swap2\n              swap1\n              0xffffffff\n              and\n              jump\t// in\n            tag_197:\n                /* \"smartChefFactory2.sol\":33335:33505  if (_amount > 0) {\r... */\n            tag_195:\n                /* \"smartChefFactory2.sol\":33535:33590  user.amount.mul(accTokenPerShare).div(PRECISION_FACTOR) */\n              tag_199\n                /* \"smartChefFactory2.sol\":33573:33589  PRECISION_FACTOR */\n              sload(0x09)\n                /* \"smartChefFactory2.sol\":33535:33568  user.amount.mul(accTokenPerShare) */\n              tag_200\n                /* \"smartChefFactory2.sol\":33551:33567  accTokenPerShare */\n              sload(0x03)\n                /* \"smartChefFactory2.sol\":33535:33539  user */\n              dup5\n                /* \"smartChefFactory2.sol\":33535:33546  user.amount */\n              0x00\n              add\n              sload\n                /* \"smartChefFactory2.sol\":33535:33550  user.amount.mul */\n              tag_117\n              swap1\n                /* \"smartChefFactory2.sol\":33535:33568  user.amount.mul(accTokenPerShare) */\n              swap2\n              swap1\n              0xffffffff\n              and\n              jump\t// in\n            tag_200:\n                /* \"smartChefFactory2.sol\":33535:33572  user.amount.mul(accTokenPerShare).div */\n              tag_118\n              swap1\n                /* \"smartChefFactory2.sol\":33535:33590  user.amount.mul(accTokenPerShare).div(PRECISION_FACTOR) */\n              swap2\n              swap1\n              0xffffffff\n              and\n              jump\t// in\n            tag_199:\n                /* \"smartChefFactory2.sol\":33517:33521  user */\n              dup2\n                /* \"smartChefFactory2.sol\":33517:33532  user.rewardDebt */\n              0x01\n              add\n                /* \"smartChefFactory2.sol\":33517:33590  user.rewardDebt = user.amount.mul(accTokenPerShare).div(PRECISION_FACTOR) */\n              dup2\n              swap1\n              sstore\n              pop\n                /* \"smartChefFactory2.sol\":33616:33626  msg.sender */\n              caller\n                /* \"smartChefFactory2.sol\":33608:33636  Deposit(msg.sender, _amount) */\n              0xffffffffffffffffffffffffffffffffffffffff\n              and\n              0xe1fffcc4923d04b559f4d29a8bfc6cda04eb5b0d3c460751c2402c5c5cc9109c\n                /* \"smartChefFactory2.sol\":33628:33635  _amount */\n              dup4\n                /* \"smartChefFactory2.sol\":33608:33636  Deposit(msg.sender, _amount) */\n              mload(0x40)\n              dup1\n              dup3\n              dup2\n              mstore\n              0x20\n              add\n              swap2\n              pop\n              pop\n              mload(0x40)\n              dup1\n              swap2\n              sub\n              swap1\n              log2\n                /* \"smartChefFactory2.sol\":16633:16634  _ */\n              pop\n                /* \"smartChefFactory2.sol\":15820:15821  1 */\n              0x01\n                /* \"smartChefFactory2.sol\":16781:16788  _status */\n              dup1\n                /* \"smartChefFactory2.sol\":16781:16803  _status = _NOT_ENTERED */\n              dup2\n              swap1\n              sstore\n              pop\n                /* \"smartChefFactory2.sol\":32774:33644  function deposit(uint256 _amount) external nonReentrant {\r... */\n              pop\n              jump\t// out\n                /* \"smartChefFactory2.sol\":29264:29297  address public SMART_CHEF_FACTORY */\n            tag_86:\n              0x02\n              0x00\n              swap1\n              sload\n              swap1\n              0x0100\n              exp\n              swap1\n              div\n              0xffffffffffffffffffffffffffffffffffffffff\n              and\n              dup2\n              jump\t// out\n                /* \"smartChefFactory2.sol\":30082:30107  IBEP20 public stakedToken */\n            tag_88:\n              0x0b\n              0x00\n              swap1\n              sload\n              swap1\n              0x0100\n              exp\n              swap1\n              div\n              0xffffffffffffffffffffffffffffffffffffffff\n              and\n              dup2\n              jump\t// out\n                /* \"smartChefFactory2.sol\":29958:29989  uint256 public PRECISION_FACTOR */\n            tag_90:\n              sload(0x09)\n              dup2\n              jump\t// out\n                /* \"smartChefFactory2.sol\":34667:35074  function emergencyWithdraw() external nonReentrant {\r... */\n            tag_92:\n                /* \"smartChefFactory2.sol\":15864:15865  2 */\n              0x02\n                /* \"smartChefFactory2.sol\":16469:16476  _status */\n              sload(0x01)\n                /* \"smartChefFactory2.sol\":16469:16488  _status != _ENTERED */\n              eq\n              iszero\n                /* \"smartChefFactory2.sol\":16461:16524  require(_status != _ENTERED, \"ReentrancyGuard: reentrant call\") */\n              tag_202\n              jumpi\n              mload(0x40)\n              0x08c379a000000000000000000000000000000000000000000000000000000000\n              dup2\n              mstore\n              0x04\n              add\n              dup1\n              dup1\n              0x20\n              add\n              dup3\n              dup2\n              sub\n              dup3\n              mstore\n              0x1f\n              dup2\n              mstore\n              0x20\n              add\n              dup1\n              0x5265656e7472616e637947756172643a207265656e7472616e742063616c6c00\n              dup2\n              mstore\n              pop\n              0x20\n              add\n              swap2\n              pop\n              pop\n              mload(0x40)\n              dup1\n              swap2\n              sub\n              swap1\n              revert\n            tag_202:\n                /* \"smartChefFactory2.sol\":15864:15865  2 */\n              0x02\n                /* \"smartChefFactory2.sol\":16602:16609  _status */\n              0x01\n                /* \"smartChefFactory2.sol\":16602:16620  _status = _ENTERED */\n              dup2\n              swap1\n              sstore\n              pop\n                /* \"smartChefFactory2.sol\":34729:34750  UserInfo storage user */\n              0x00\n                /* \"smartChefFactory2.sol\":34753:34761  userInfo */\n              0x0c\n                /* \"smartChefFactory2.sol\":34753:34773  userInfo[msg.sender] */\n              0x00\n                /* \"smartChefFactory2.sol\":34762:34772  msg.sender */\n              caller\n                /* \"smartChefFactory2.sol\":34753:34773  userInfo[msg.sender] */\n              0xffffffffffffffffffffffffffffffffffffffff\n              and\n              0xffffffffffffffffffffffffffffffffffffffff\n              and\n              dup2\n              mstore\n              0x20\n              add\n              swap1\n              dup2\n              mstore\n              0x20\n              add\n              0x00\n              keccak256\n                /* \"smartChefFactory2.sol\":34729:34773  UserInfo storage user = userInfo[msg.sender] */\n              swap1\n              pop\n                /* \"smartChefFactory2.sol\":34784:34808  uint256 amountToTransfer */\n              0x00\n                /* \"smartChefFactory2.sol\":34811:34815  user */\n              dup2\n                /* \"smartChefFactory2.sol\":34811:34822  user.amount */\n              0x00\n              add\n              sload\n                /* \"smartChefFactory2.sol\":34784:34822  uint256 amountToTransfer = user.amount */\n              swap1\n              pop\n                /* \"smartChefFactory2.sol\":34847:34848  0 */\n              0x00\n                /* \"smartChefFactory2.sol\":34833:34837  user */\n              dup3\n                /* \"smartChefFactory2.sol\":34833:34844  user.amount */\n              0x00\n              add\n                /* \"smartChefFactory2.sol\":34833:34848  user.amount = 0 */\n              dup2\n              swap1\n              sstore\n              pop\n                /* \"smartChefFactory2.sol\":34877:34878  0 */\n              0x00\n                /* \"smartChefFactory2.sol\":34859:34863  user */\n              dup3\n                /* \"smartChefFactory2.sol\":34859:34874  user.rewardDebt */\n              0x01\n              add\n                /* \"smartChefFactory2.sol\":34859:34878  user.rewardDebt = 0 */\n              dup2\n              swap1\n              sstore\n              pop\n                /* \"smartChefFactory2.sol\":34914:34915  0 */\n              0x00\n                /* \"smartChefFactory2.sol\":34895:34911  amountToTransfer */\n              dup2\n                /* \"smartChefFactory2.sol\":34895:34915  amountToTransfer > 0 */\n              gt\n                /* \"smartChefFactory2.sol\":34891:35007  if (amountToTransfer > 0) {\r... */\n              iszero\n              tag_204\n              jumpi\n                /* \"smartChefFactory2.sol\":34932:34995  stakedToken.safeTransfer(address(msg.sender), amountToTransfer) */\n              tag_205\n                /* \"smartChefFactory2.sol\":34965:34975  msg.sender */\n              caller\n                /* \"smartChefFactory2.sol\":34978:34994  amountToTransfer */\n              dup3\n                /* \"smartChefFactory2.sol\":34932:34943  stakedToken */\n              0x0b\n              0x00\n              swap1\n              sload\n              swap1\n              0x0100\n              exp\n              swap1\n              div\n              0xffffffffffffffffffffffffffffffffffffffff\n              and\n                /* \"smartChefFactory2.sol\":34932:34956  stakedToken.safeTransfer */\n              0xffffffffffffffffffffffffffffffffffffffff\n              and\n              tag_123\n              swap1\n                /* \"smartChefFactory2.sol\":34932:34995  stakedToken.safeTransfer(address(msg.sender), amountToTransfer) */\n              swap3\n              swap2\n              swap1\n              0xffffffff\n              and\n              jump\t// in\n            tag_205:\n                /* \"smartChefFactory2.sol\":34891:35007  if (amountToTransfer > 0) {\r... */\n            tag_204:\n                /* \"smartChefFactory2.sol\":35042:35052  msg.sender */\n              caller\n                /* \"smartChefFactory2.sol\":35024:35066  EmergencyWithdraw(msg.sender, user.amount) */\n              0xffffffffffffffffffffffffffffffffffffffff\n              and\n              0x5fafa99d0643513820be26656b45130b01e1c03062e1266bf36f88cbd3bd9695\n                /* \"smartChefFactory2.sol\":35054:35058  user */\n              dup4\n                /* \"smartChefFactory2.sol\":35054:35065  user.amount */\n              0x00\n              add\n              sload\n                /* \"smartChefFactory2.sol\":35024:35066  EmergencyWithdraw(msg.sender, user.amount) */\n              mload(0x40)\n              dup1\n              dup3\n              dup2\n              mstore\n              0x20\n              add\n              swap2\n              pop\n              pop\n              mload(0x40)\n              dup1\n              swap2\n              sub\n              swap1\n              log2\n                /* \"smartChefFactory2.sol\":16633:16634  _ */\n              pop\n              pop\n                /* \"smartChefFactory2.sol\":15820:15821  1 */\n              0x01\n                /* \"smartChefFactory2.sol\":16781:16788  _status */\n              dup1\n                /* \"smartChefFactory2.sol\":16781:16803  _status = _NOT_ENTERED */\n              dup2\n              swap1\n              sstore\n              pop\n                /* \"smartChefFactory2.sol\":34667:35074  function emergencyWithdraw() external nonReentrant {\r... */\n              jump\t// out\n                /* \"smartChefFactory2.sol\":3081:3325  function transferOwnership(address newOwner) public virtual onlyOwner {\r... */\n            tag_95:\n                /* \"smartChefFactory2.sol\":2358:2370  _msgSender() */\n              tag_207\n                /* \"smartChefFactory2.sol\":2358:2368  _msgSender */\n              tag_103\n                /* \"smartChefFactory2.sol\":2358:2370  _msgSender() */\n              jump\t// in\n            tag_207:\n                /* \"smartChefFactory2.sol\":2347:2370  owner() == _msgSender() */\n              0xffffffffffffffffffffffffffffffffffffffff\n              and\n                /* \"smartChefFactory2.sol\":2347:2354  owner() */\n              tag_208\n                /* \"smartChefFactory2.sol\":2347:2352  owner */\n              tag_69\n                /* \"smartChefFactory2.sol\":2347:2354  owner() */\n              jump\t// in\n            tag_208:\n                /* \"smartChefFactory2.sol\":2347:2370  owner() == _msgSender() */\n              0xffffffffffffffffffffffffffffffffffffffff\n              and\n              eq\n                /* \"smartChefFactory2.sol\":2339:2407  require(owner() == _msgSender(), \"Ownable: caller is not the owner\") */\n              tag_209\n              jumpi\n              mload(0x40)\n              0x08c379a000000000000000000000000000000000000000000000000000000000\n              dup2\n              mstore\n              0x04\n              add\n              dup1\n              dup1\n              0x20\n              add\n              dup3\n              dup2\n              sub\n              dup3\n              mstore\n              0x20\n              dup2\n              mstore\n              0x20\n              add\n              dup1\n              0x4f776e61626c653a2063616c6c6572206973206e6f7420746865206f776e6572\n              dup2\n              mstore\n              pop\n              0x20\n              add\n              swap2\n              pop\n              pop\n              mload(0x40)\n              dup1\n              swap2\n              sub\n              swap1\n              revert\n            tag_209:\n                /* \"smartChefFactory2.sol\":3190:3191  0 */\n              0x00\n                /* \"smartChefFactory2.sol\":3170:3192  newOwner != address(0) */\n              0xffffffffffffffffffffffffffffffffffffffff\n              and\n                /* \"smartChefFactory2.sol\":3170:3178  newOwner */\n              dup2\n                /* \"smartChefFactory2.sol\":3170:3192  newOwner != address(0) */\n              0xffffffffffffffffffffffffffffffffffffffff\n              and\n              eq\n              iszero\n                /* \"smartChefFactory2.sol\":3162:3235  require(newOwner != address(0), \"Ownable: new owner is the zero address\") */\n              tag_211\n              jumpi\n              mload(0x40)\n              0x08c379a000000000000000000000000000000000000000000000000000000000\n              dup2\n              mstore\n              0x04\n              add\n              dup1\n              dup1\n              0x20\n              add\n              dup3\n              dup2\n              sub\n              dup3\n              mstore\n              0x26\n              dup2\n              mstore\n              0x20\n              add\n              dup1\n              data_245f15ff17f551913a7a18385165551503906a406f905ac1c2437281a7cd0cfe\n              0x26\n              swap2\n              codecopy\n              0x40\n              add\n              swap2\n              pop\n              pop\n              mload(0x40)\n              dup1\n              swap2\n              sub\n              swap1\n              revert\n            tag_211:\n                /* \"smartChefFactory2.sol\":3280:3288  newOwner */\n              dup1\n                /* \"smartChefFactory2.sol\":3251:3289  OwnershipTransferred(_owner, newOwner) */\n              0xffffffffffffffffffffffffffffffffffffffff\n              and\n                /* \"smartChefFactory2.sol\":3272:3278  _owner */\n              0x00\n              dup1\n              sload\n              swap1\n              0x0100\n              exp\n              swap1\n              div\n              0xffffffffffffffffffffffffffffffffffffffff\n              and\n                /* \"smartChefFactory2.sol\":3251:3289  OwnershipTransferred(_owner, newOwner) */\n              0xffffffffffffffffffffffffffffffffffffffff\n              and\n              0x8be0079c531659141344cd1fd0a4f28419497f9722a3daafe3b4186f6b6457e0\n              mload(0x40)\n              mload(0x40)\n              dup1\n              swap2\n              sub\n              swap1\n              log3\n                /* \"smartChefFactory2.sol\":3309:3317  newOwner */\n              dup1\n                /* \"smartChefFactory2.sol\":3300:3306  _owner */\n              0x00\n              dup1\n                /* \"smartChefFactory2.sol\":3300:3317  _owner = newOwner */\n              0x0100\n              exp\n              dup2\n              sload\n              dup2\n              0xffffffffffffffffffffffffffffffffffffffff\n              mul\n              not\n              and\n              swap1\n              dup4\n              0xffffffffffffffffffffffffffffffffffffffff\n              and\n              mul\n              or\n              swap1\n              sstore\n              pop\n                /* \"smartChefFactory2.sol\":3081:3325  function transferOwnership(address newOwner) public virtual onlyOwner {\r... */\n              pop\n              jump\t// out\n                /* \"smartChefFactory2.sol\":38334:39128  function pendingReward(address _user) external view returns (uint256) {\r... */\n            tag_98:\n                /* \"smartChefFactory2.sol\":38395:38402  uint256 */\n              0x00\n                /* \"smartChefFactory2.sol\":38415:38436  UserInfo storage user */\n              dup1\n                /* \"smartChefFactory2.sol\":38439:38447  userInfo */\n              0x0c\n                /* \"smartChefFactory2.sol\":38439:38454  userInfo[_user] */\n              0x00\n                /* \"smartChefFactory2.sol\":38448:38453  _user */\n              dup5\n                /* \"smartChefFactory2.sol\":38439:38454  userInfo[_user] */\n              0xffffffffffffffffffffffffffffffffffffffff\n              and\n              0xffffffffffffffffffffffffffffffffffffffff\n              and\n              dup2\n              mstore\n              0x20\n              add\n              swap1\n              dup2\n              mstore\n              0x20\n              add\n              0x00\n              keccak256\n                /* \"smartChefFactory2.sol\":38415:38454  UserInfo storage user = userInfo[_user] */\n              swap1\n              pop\n                /* \"smartChefFactory2.sol\":38465:38490  uint256 stakedTokenSupply */\n              0x00\n                /* \"smartChefFactory2.sol\":38493:38504  stakedToken */\n              0x0b\n              0x00\n              swap1\n              sload\n              swap1\n              0x0100\n              exp\n              swap1\n              div\n              0xffffffffffffffffffffffffffffffffffffffff\n              and\n                /* \"smartChefFactory2.sol\":38493:38514  stakedToken.balanceOf */\n              0xffffffffffffffffffffffffffffffffffffffff\n              and\n              0x70a08231\n                /* \"smartChefFactory2.sol\":38523:38527  this */\n              address\n                /* \"smartChefFactory2.sol\":38493:38529  stakedToken.balanceOf(address(this)) */\n              mload(0x40)\n              dup3\n              0xffffffff\n              and\n              0xe0\n              shl\n              dup2\n              mstore\n              0x04\n              add\n              dup1\n              dup3\n              0xffffffffffffffffffffffffffffffffffffffff\n              and\n              dup2\n              mstore\n              0x20\n              add\n              swap2\n              pop\n              pop\n              0x20\n              mload(0x40)\n              dup1\n              dup4\n              sub\n              dup2\n              dup7\n              dup1\n              extcodesize\n              iszero\n              dup1\n              iszero\n              tag_213\n              jumpi\n              0x00\n              dup1\n              revert\n            tag_213:\n              pop\n              gas\n              staticcall\n              iszero\n              dup1\n              iszero\n              tag_215\n              jumpi\n              returndatasize\n              0x00\n              dup1\n              returndatacopy\n              revert(0x00, returndatasize)\n            tag_215:\n              pop\n              pop\n              pop\n              pop\n              mload(0x40)\n              returndatasize\n              0x20\n              dup2\n              lt\n              iszero\n              tag_216\n              jumpi\n              0x00\n              dup1\n              revert\n            tag_216:\n              dup2\n              add\n              swap1\n              dup1\n              dup1\n              mload\n              swap1\n              0x20\n              add\n              swap1\n              swap3\n              swap2\n              swap1\n              pop\n              pop\n              pop\n                /* \"smartChefFactory2.sol\":38465:38529  uint256 stakedTokenSupply = stakedToken.balanceOf(address(this)) */\n              swap1\n              pop\n                /* \"smartChefFactory2.sol\":38559:38574  lastRewardBlock */\n              sload(0x06)\n                /* \"smartChefFactory2.sol\":38544:38556  block.number */\n              number\n                /* \"smartChefFactory2.sol\":38544:38574  block.number > lastRewardBlock */\n              gt\n                /* \"smartChefFactory2.sol\":38544:38600  block.number > lastRewardBlock && stakedTokenSupply != 0 */\n              dup1\n              iszero\n              tag_217\n              jumpi\n              pop\n                /* \"smartChefFactory2.sol\":38599:38600  0 */\n              0x00\n                /* \"smartChefFactory2.sol\":38578:38595  stakedTokenSupply */\n              dup2\n                /* \"smartChefFactory2.sol\":38578:38600  stakedTokenSupply != 0 */\n              eq\n              iszero\n                /* \"smartChefFactory2.sol\":38544:38600  block.number > lastRewardBlock && stakedTokenSupply != 0 */\n            tag_217:\n                /* \"smartChefFactory2.sol\":38540:39121  if (block.number > lastRewardBlock && stakedTokenSupply != 0) {\r... */\n              iszero\n              tag_218\n              jumpi\n                /* \"smartChefFactory2.sol\":38617:38635  uint256 multiplier */\n              0x00\n                /* \"smartChefFactory2.sol\":38638:38683  _getMultiplier(lastRewardBlock, block.number) */\n              tag_219\n                /* \"smartChefFactory2.sol\":38653:38668  lastRewardBlock */\n              sload(0x06)\n                /* \"smartChefFactory2.sol\":38670:38682  block.number */\n              number\n                /* \"smartChefFactory2.sol\":38638:38652  _getMultiplier */\n              tag_220\n                /* \"smartChefFactory2.sol\":38638:38683  _getMultiplier(lastRewardBlock, block.number) */\n              jump\t// in\n            tag_219:\n                /* \"smartChefFactory2.sol\":38617:38683  uint256 multiplier = _getMultiplier(lastRewardBlock, block.number) */\n              swap1\n              pop\n                /* \"smartChefFactory2.sol\":38698:38716  uint256 cakeReward */\n              0x00\n                /* \"smartChefFactory2.sol\":38719:38749  multiplier.mul(rewardPerBlock) */\n              tag_221\n                /* \"smartChefFactory2.sol\":38734:38748  rewardPerBlock */\n              sload(0x08)\n                /* \"smartChefFactory2.sol\":38719:38729  multiplier */\n              dup4\n                /* \"smartChefFactory2.sol\":38719:38733  multiplier.mul */\n              tag_117\n              swap1\n                /* \"smartChefFactory2.sol\":38719:38749  multiplier.mul(rewardPerBlock) */\n              swap2\n              swap1\n              0xffffffff\n              and\n              jump\t// in\n            tag_221:\n                /* \"smartChefFactory2.sol\":38698:38749  uint256 cakeReward = multiplier.mul(rewardPerBlock) */\n              swap1\n              pop\n                /* \"smartChefFactory2.sol\":38764:38793  uint256 adjustedTokenPerShare */\n              0x00\n                /* \"smartChefFactory2.sol\":38813:38890  accTokenPerShare.add(cakeReward.mul(PRECISION_FACTOR).div(stakedTokenSupply)) */\n              tag_222\n                /* \"smartChefFactory2.sol\":38834:38889  cakeReward.mul(PRECISION_FACTOR).div(stakedTokenSupply) */\n              tag_223\n                /* \"smartChefFactory2.sol\":38871:38888  stakedTokenSupply */\n              dup6\n                /* \"smartChefFactory2.sol\":38834:38866  cakeReward.mul(PRECISION_FACTOR) */\n              tag_224\n                /* \"smartChefFactory2.sol\":38849:38865  PRECISION_FACTOR */\n              sload(0x09)\n                /* \"smartChefFactory2.sol\":38834:38844  cakeReward */\n              dup7\n                /* \"smartChefFactory2.sol\":38834:38848  cakeReward.mul */\n              tag_117\n              swap1\n                /* \"smartChefFactory2.sol\":38834:38866  cakeReward.mul(PRECISION_FACTOR) */\n              swap2\n              swap1\n              0xffffffff\n              and\n              jump\t// in\n            tag_224:\n                /* \"smartChefFactory2.sol\":38834:38870  cakeReward.mul(PRECISION_FACTOR).div */\n              tag_118\n              swap1\n                /* \"smartChefFactory2.sol\":38834:38889  cakeReward.mul(PRECISION_FACTOR).div(stakedTokenSupply) */\n              swap2\n              swap1\n              0xffffffff\n              and\n              jump\t// in\n            tag_223:\n                /* \"smartChefFactory2.sol\":38813:38829  accTokenPerShare */\n              sload(0x03)\n                /* \"smartChefFactory2.sol\":38813:38833  accTokenPerShare.add */\n              tag_186\n              swap1\n                /* \"smartChefFactory2.sol\":38813:38890  accTokenPerShare.add(cakeReward.mul(PRECISION_FACTOR).div(stakedTokenSupply)) */\n              swap2\n              swap1\n              0xffffffff\n              and\n              jump\t// in\n            tag_222:\n                /* \"smartChefFactory2.sol\":38764:38890  uint256 adjustedTokenPerShare =\r... */\n              swap1\n              pop\n                /* \"smartChefFactory2.sol\":38912:38993  user.amount.mul(adjustedTokenPerShare).div(PRECISION_FACTOR).sub(user.rewardDebt) */\n              tag_225\n                /* \"smartChefFactory2.sol\":38977:38981  user */\n              dup6\n                /* \"smartChefFactory2.sol\":38977:38992  user.rewardDebt */\n              0x01\n              add\n              sload\n                /* \"smartChefFactory2.sol\":38912:38972  user.amount.mul(adjustedTokenPerShare).div(PRECISION_FACTOR) */\n              tag_226\n                /* \"smartChefFactory2.sol\":38955:38971  PRECISION_FACTOR */\n              sload(0x09)\n                /* \"smartChefFactory2.sol\":38912:38950  user.amount.mul(adjustedTokenPerShare) */\n              tag_227\n                /* \"smartChefFactory2.sol\":38928:38949  adjustedTokenPerShare */\n              dup6\n                /* \"smartChefFactory2.sol\":38912:38916  user */\n              dup11\n                /* \"smartChefFactory2.sol\":38912:38923  user.amount */\n              0x00\n              add\n              sload\n                /* \"smartChefFactory2.sol\":38912:38927  user.amount.mul */\n              tag_117\n              swap1\n                /* \"smartChefFactory2.sol\":38912:38950  user.amount.mul(adjustedTokenPerShare) */\n              swap2\n              swap1\n              0xffffffff\n              and\n              jump\t// in\n            tag_227:\n                /* \"smartChefFactory2.sol\":38912:38954  user.amount.mul(adjustedTokenPerShare).div */\n              tag_118\n              swap1\n                /* \"smartChefFactory2.sol\":38912:38972  user.amount.mul(adjustedTokenPerShare).div(PRECISION_FACTOR) */\n              swap2\n              swap1\n              0xffffffff\n              and\n              jump\t// in\n            tag_226:\n                /* \"smartChefFactory2.sol\":38912:38976  user.amount.mul(adjustedTokenPerShare).div(PRECISION_FACTOR).sub */\n              tag_119\n              swap1\n                /* \"smartChefFactory2.sol\":38912:38993  user.amount.mul(adjustedTokenPerShare).div(PRECISION_FACTOR).sub(user.rewardDebt) */\n              swap2\n              swap1\n              0xffffffff\n              and\n              jump\t// in\n            tag_225:\n                /* \"smartChefFactory2.sol\":38905:38993  return user.amount.mul(adjustedTokenPerShare).div(PRECISION_FACTOR).sub(user.rewardDebt) */\n              swap6\n              pop\n              pop\n              pop\n              pop\n              pop\n              pop\n              jump(tag_212)\n                /* \"smartChefFactory2.sol\":38540:39121  if (block.number > lastRewardBlock && stakedTokenSupply != 0) {\r... */\n            tag_218:\n                /* \"smartChefFactory2.sol\":39033:39109  user.amount.mul(accTokenPerShare).div(PRECISION_FACTOR).sub(user.rewardDebt) */\n              tag_229\n                /* \"smartChefFactory2.sol\":39093:39097  user */\n              dup3\n                /* \"smartChefFactory2.sol\":39093:39108  user.rewardDebt */\n              0x01\n              add\n              sload\n                /* \"smartChefFactory2.sol\":39033:39088  user.amount.mul(accTokenPerShare).div(PRECISION_FACTOR) */\n              tag_230\n                /* \"smartChefFactory2.sol\":39071:39087  PRECISION_FACTOR */\n              sload(0x09)\n                /* \"smartChefFactory2.sol\":39033:39066  user.amount.mul(accTokenPerShare) */\n              tag_231\n                /* \"smartChefFactory2.sol\":39049:39065  accTokenPerShare */\n              sload(0x03)\n                /* \"smartChefFactory2.sol\":39033:39037  user */\n              dup8\n                /* \"smartChefFactory2.sol\":39033:39044  user.amount */\n              0x00\n              add\n              sload\n                /* \"smartChefFactory2.sol\":39033:39048  user.amount.mul */\n              tag_117\n              swap1\n                /* \"smartChefFactory2.sol\":39033:39066  user.amount.mul(accTokenPerShare) */\n              swap2\n              swap1\n              0xffffffff\n              and\n              jump\t// in\n            tag_231:\n                /* \"smartChefFactory2.sol\":39033:39070  user.amount.mul(accTokenPerShare).div */\n              tag_118\n              swap1\n                /* \"smartChefFactory2.sol\":39033:39088  user.amount.mul(accTokenPerShare).div(PRECISION_FACTOR) */\n              swap2\n              swap1\n              0xffffffff\n              and\n              jump\t// in\n            tag_230:\n                /* \"smartChefFactory2.sol\":39033:39092  user.amount.mul(accTokenPerShare).div(PRECISION_FACTOR).sub */\n              tag_119\n              swap1\n                /* \"smartChefFactory2.sol\":39033:39109  user.amount.mul(accTokenPerShare).div(PRECISION_FACTOR).sub(user.rewardDebt) */\n              swap2\n              swap1\n              0xffffffff\n              and\n              jump\t// in\n            tag_229:\n                /* \"smartChefFactory2.sol\":39026:39109  return user.amount.mul(accTokenPerShare).div(PRECISION_FACTOR).sub(user.rewardDebt) */\n              swap3\n              pop\n              pop\n              pop\n                /* \"smartChefFactory2.sol\":38334:39128  function pendingReward(address _user) external view returns (uint256) {\r... */\n            tag_212:\n              swap2\n              swap1\n              pop\n              jump\t// out\n                /* \"smartChefFactory2.sol\":30023:30048  IBEP20 public rewardToken */\n            tag_100:\n              0x0a\n              0x00\n              swap1\n              sload\n              swap1\n              0x0100\n              exp\n              swap1\n              div\n              0xffffffffffffffffffffffffffffffffffffffff\n              and\n              dup2\n              jump\t// out\n                /* \"smartChefFactory2.sol\":667:773  function _msgSender() internal view virtual returns (address payable) {\r... */\n            tag_103:\n                /* \"smartChefFactory2.sol\":720:735  address payable */\n              0x00\n                /* \"smartChefFactory2.sol\":755:765  msg.sender */\n              caller\n                /* \"smartChefFactory2.sol\":748:765  return msg.sender */\n              swap1\n              pop\n                /* \"smartChefFactory2.sol\":667:773  function _msgSender() internal view virtual returns (address payable) {\r... */\n              swap1\n              jump\t// out\n                /* \"smartChefFactory2.sol\":39229:39833  function _updatePool() internal {\r... */\n            tag_113:\n                /* \"smartChefFactory2.sol\":39292:39307  lastRewardBlock */\n              sload(0x06)\n                /* \"smartChefFactory2.sol\":39276:39288  block.number */\n              number\n                /* \"smartChefFactory2.sol\":39276:39307  block.number <= lastRewardBlock */\n              gt\n                /* \"smartChefFactory2.sol\":39272:39342  if (block.number <= lastRewardBlock) {\r... */\n              tag_234\n              jumpi\n                /* \"smartChefFactory2.sol\":39324:39331  return; */\n              jump(tag_233)\n                /* \"smartChefFactory2.sol\":39272:39342  if (block.number <= lastRewardBlock) {\r... */\n            tag_234:\n                /* \"smartChefFactory2.sol\":39354:39379  uint256 stakedTokenSupply */\n              0x00\n                /* \"smartChefFactory2.sol\":39382:39393  stakedToken */\n              0x0b\n              0x00\n              swap1\n              sload\n              swap1\n              0x0100\n              exp\n              swap1\n              div\n              0xffffffffffffffffffffffffffffffffffffffff\n              and\n                /* \"smartChefFactory2.sol\":39382:39403  stakedToken.balanceOf */\n              0xffffffffffffffffffffffffffffffffffffffff\n              and\n              0x70a08231\n                /* \"smartChefFactory2.sol\":39412:39416  this */\n              address\n                /* \"smartChefFactory2.sol\":39382:39418  stakedToken.balanceOf(address(this)) */\n              mload(0x40)\n              dup3\n              0xffffffff\n              and\n              0xe0\n              shl\n              dup2\n              mstore\n              0x04\n              add\n              dup1\n              dup3\n              0xffffffffffffffffffffffffffffffffffffffff\n              and\n              dup2\n              mstore\n              0x20\n              add\n              swap2\n              pop\n              pop\n              0x20\n              mload(0x40)\n              dup1\n              dup4\n              sub\n              dup2\n              dup7\n              dup1\n              extcodesize\n              iszero\n              dup1\n              iszero\n              tag_235\n              jumpi\n              0x00\n              dup1\n              revert\n            tag_235:\n              pop\n              gas\n              staticcall\n              iszero\n              dup1\n              iszero\n              tag_237\n              jumpi\n              returndatasize\n              0x00\n              dup1\n              returndatacopy\n              revert(0x00, returndatasize)\n            tag_237:\n              pop\n              pop\n              pop\n              pop\n              mload(0x40)\n              returndatasize\n              0x20\n              dup2\n              lt\n              iszero\n              tag_238\n              jumpi\n              0x00\n              dup1\n              revert\n            tag_238:\n              dup2\n              add\n              swap1\n              dup1\n              dup1\n              mload\n              swap1\n              0x20\n              add\n              swap1\n              swap3\n              swap2\n              swap1\n              pop\n              pop\n              pop\n                /* \"smartChefFactory2.sol\":39354:39418  uint256 stakedTokenSupply = stakedToken.balanceOf(address(this)) */\n              swap1\n              pop\n                /* \"smartChefFactory2.sol\":39456:39457  0 */\n              0x00\n                /* \"smartChefFactory2.sol\":39435:39452  stakedTokenSupply */\n              dup2\n                /* \"smartChefFactory2.sol\":39435:39457  stakedTokenSupply == 0 */\n              eq\n                /* \"smartChefFactory2.sol\":39431:39537  if (stakedTokenSupply == 0) {\r... */\n              iszero\n              tag_239\n              jumpi\n                /* \"smartChefFactory2.sol\":39492:39504  block.number */\n              number\n                /* \"smartChefFactory2.sol\":39474:39489  lastRewardBlock */\n              0x06\n                /* \"smartChefFactory2.sol\":39474:39504  lastRewardBlock = block.number */\n              dup2\n              swap1\n              sstore\n              pop\n                /* \"smartChefFactory2.sol\":39519:39526  return; */\n              pop\n              jump(tag_233)\n                /* \"smartChefFactory2.sol\":39431:39537  if (stakedTokenSupply == 0) {\r... */\n            tag_239:\n                /* \"smartChefFactory2.sol\":39549:39567  uint256 multiplier */\n              0x00\n                /* \"smartChefFactory2.sol\":39570:39615  _getMultiplier(lastRewardBlock, block.number) */\n              tag_240\n                /* \"smartChefFactory2.sol\":39585:39600  lastRewardBlock */\n              sload(0x06)\n                /* \"smartChefFactory2.sol\":39602:39614  block.number */\n              number\n                /* \"smartChefFactory2.sol\":39570:39584  _getMultiplier */\n              tag_220\n                /* \"smartChefFactory2.sol\":39570:39615  _getMultiplier(lastRewardBlock, block.number) */\n              jump\t// in\n            tag_240:\n                /* \"smartChefFactory2.sol\":39549:39615  uint256 multiplier = _getMultiplier(lastRewardBlock, block.number) */\n              swap1\n              pop\n                /* \"smartChefFactory2.sol\":39626:39644  uint256 cakeReward */\n              0x00\n                /* \"smartChefFactory2.sol\":39647:39677  multiplier.mul(rewardPerBlock) */\n              tag_241\n                /* \"smartChefFactory2.sol\":39662:39676  rewardPerBlock */\n              sload(0x08)\n                /* \"smartChefFactory2.sol\":39647:39657  multiplier */\n              dup4\n                /* \"smartChefFactory2.sol\":39647:39661  multiplier.mul */\n              tag_117\n              swap1\n                /* \"smartChefFactory2.sol\":39647:39677  multiplier.mul(rewardPerBlock) */\n              swap2\n              swap1\n              0xffffffff\n              and\n              jump\t// in\n            tag_241:\n                /* \"smartChefFactory2.sol\":39626:39677  uint256 cakeReward = multiplier.mul(rewardPerBlock) */\n              swap1\n              pop\n                /* \"smartChefFactory2.sol\":39707:39784  accTokenPerShare.add(cakeReward.mul(PRECISION_FACTOR).div(stakedTokenSupply)) */\n              tag_242\n                /* \"smartChefFactory2.sol\":39728:39783  cakeReward.mul(PRECISION_FACTOR).div(stakedTokenSupply) */\n              tag_243\n                /* \"smartChefFactory2.sol\":39765:39782  stakedTokenSupply */\n              dup5\n                /* \"smartChefFactory2.sol\":39728:39760  cakeReward.mul(PRECISION_FACTOR) */\n              tag_244\n                /* \"smartChefFactory2.sol\":39743:39759  PRECISION_FACTOR */\n              sload(0x09)\n                /* \"smartChefFactory2.sol\":39728:39738  cakeReward */\n              dup6\n                /* \"smartChefFactory2.sol\":39728:39742  cakeReward.mul */\n              tag_117\n              swap1\n                /* \"smartChefFactory2.sol\":39728:39760  cakeReward.mul(PRECISION_FACTOR) */\n              swap2\n              swap1\n              0xffffffff\n              and\n              jump\t// in\n            tag_244:\n                /* \"smartChefFactory2.sol\":39728:39764  cakeReward.mul(PRECISION_FACTOR).div */\n              tag_118\n              swap1\n                /* \"smartChefFactory2.sol\":39728:39783  cakeReward.mul(PRECISION_FACTOR).div(stakedTokenSupply) */\n              swap2\n              swap1\n              0xffffffff\n              and\n              jump\t// in\n            tag_243:\n                /* \"smartChefFactory2.sol\":39707:39723  accTokenPerShare */\n              sload(0x03)\n                /* \"smartChefFactory2.sol\":39707:39727  accTokenPerShare.add */\n              tag_186\n              swap1\n                /* \"smartChefFactory2.sol\":39707:39784  accTokenPerShare.add(cakeReward.mul(PRECISION_FACTOR).div(stakedTokenSupply)) */\n              swap2\n              swap1\n              0xffffffff\n              and\n              jump\t// in\n            tag_242:\n                /* \"smartChefFactory2.sol\":39688:39704  accTokenPerShare */\n              0x03\n                /* \"smartChefFactory2.sol\":39688:39784  accTokenPerShare = accTokenPerShare.add(cakeReward.mul(PRECISION_FACTOR).div(stakedTokenSupply)) */\n              dup2\n              swap1\n              sstore\n              pop\n                /* \"smartChefFactory2.sol\":39813:39825  block.number */\n              number\n                /* \"smartChefFactory2.sol\":39795:39810  lastRewardBlock */\n              0x06\n                /* \"smartChefFactory2.sol\":39795:39825  lastRewardBlock = block.number */\n              dup2\n              swap1\n              sstore\n              pop\n                /* \"smartChefFactory2.sol\":39229:39833  function _updatePool() internal {\r... */\n              pop\n              pop\n              pop\n            tag_233:\n              jump\t// out\n                /* \"smartChefFactory2.sol\":10226:10446  function mul(uint256 a, uint256 b) internal pure returns (uint256) {\r... */\n            tag_117:\n                /* \"smartChefFactory2.sol\":10284:10291  uint256 */\n              0x00\n                /* \"smartChefFactory2.sol\":10313:10314  0 */\n              dup1\n                /* \"smartChefFactory2.sol\":10308:10309  a */\n              dup4\n                /* \"smartChefFactory2.sol\":10308:10314  a == 0 */\n              eq\n                /* \"smartChefFactory2.sol\":10304:10324  if (a == 0) return 0 */\n              iszero\n              tag_246\n              jumpi\n                /* \"smartChefFactory2.sol\":10323:10324  0 */\n              0x00\n                /* \"smartChefFactory2.sol\":10316:10324  return 0 */\n              swap1\n              pop\n              jump(tag_245)\n                /* \"smartChefFactory2.sol\":10304:10324  if (a == 0) return 0 */\n            tag_246:\n                /* \"smartChefFactory2.sol\":10335:10344  uint256 c */\n              0x00\n                /* \"smartChefFactory2.sol\":10351:10352  b */\n              dup3\n                /* \"smartChefFactory2.sol\":10347:10348  a */\n              dup5\n                /* \"smartChefFactory2.sol\":10347:10352  a * b */\n              mul\n                /* \"smartChefFactory2.sol\":10335:10352  uint256 c = a * b */\n              swap1\n              pop\n                /* \"smartChefFactory2.sol\":10380:10381  b */\n              dup3\n                /* \"smartChefFactory2.sol\":10375:10376  a */\n              dup5\n                /* \"smartChefFactory2.sol\":10371:10372  c */\n              dup3\n                /* \"smartChefFactory2.sol\":10371:10376  c / a */\n              dup2\n              tag_247\n              jumpi\n              invalid\n            tag_247:\n              div\n                /* \"smartChefFactory2.sol\":10371:10381  c / a == b */\n              eq\n                /* \"smartChefFactory2.sol\":10363:10419  require(c / a == b, \"SafeMath: multiplication overflow\") */\n              tag_248\n              jumpi\n              mload(0x40)\n              0x08c379a000000000000000000000000000000000000000000000000000000000\n              dup2\n              mstore\n              0x04\n              add\n              dup1\n              dup1\n              0x20\n              add\n              dup3\n              dup2\n              sub\n              dup3\n              mstore\n              0x21\n              dup2\n              mstore\n              0x20\n              add\n              dup1\n              data_9113bb53c2876a3805b2c9242029423fc540a728243ce887ab24c82cf119fba3\n              0x21\n              swap2\n              codecopy\n              0x40\n              add\n              swap2\n              pop\n              pop\n              mload(0x40)\n              dup1\n              swap2\n              sub\n              swap1\n              revert\n            tag_248:\n                /* \"smartChefFactory2.sol\":10437:10438  c */\n              dup1\n                /* \"smartChefFactory2.sol\":10430:10438  return c */\n              swap2\n              pop\n              pop\n                /* \"smartChefFactory2.sol\":10226:10446  function mul(uint256 a, uint256 b) internal pure returns (uint256) {\r... */\n            tag_245:\n              swap3\n              swap2\n              pop\n              pop\n              jump\t// out\n                /* \"smartChefFactory2.sol\":10924:11077  function div(uint256 a, uint256 b) internal pure returns (uint256) {\r... */\n            tag_118:\n                /* \"smartChefFactory2.sol\":10982:10989  uint256 */\n              0x00\n                /* \"smartChefFactory2.sol\":11014:11015  0 */\n              dup1\n                /* \"smartChefFactory2.sol\":11010:11011  b */\n              dup3\n                /* \"smartChefFactory2.sol\":11010:11015  b > 0 */\n              gt\n                /* \"smartChefFactory2.sol\":11002:11046  require(b > 0, \"SafeMath: division by zero\") */\n              tag_250\n              jumpi\n              mload(0x40)\n              0x08c379a000000000000000000000000000000000000000000000000000000000\n              dup2\n              mstore\n              0x04\n              add\n              dup1\n              dup1\n              0x20\n              add\n              dup3\n              dup2\n              sub\n              dup3\n              mstore\n              0x1a\n              dup2\n              mstore\n              0x20\n              add\n              dup1\n              0x536166654d6174683a206469766973696f6e206279207a65726f000000000000\n              dup2\n              mstore\n              pop\n              0x20\n              add\n              swap2\n              pop\n              pop\n              mload(0x40)\n              dup1\n              swap2\n              sub\n              swap1\n              revert\n            tag_250:\n                /* \"smartChefFactory2.sol\":11068:11069  b */\n              dup2\n                /* \"smartChefFactory2.sol\":11064:11065  a */\n              dup4\n                /* \"smartChefFactory2.sol\":11064:11069  a / b */\n              dup2\n              tag_251\n              jumpi\n              invalid\n            tag_251:\n              div\n                /* \"smartChefFactory2.sol\":11057:11069  return a / b */\n              swap1\n              pop\n                /* \"smartChefFactory2.sol\":10924:11077  function div(uint256 a, uint256 b) internal pure returns (uint256) {\r... */\n              swap3\n              swap2\n              pop\n              pop\n              jump\t// out\n                /* \"smartChefFactory2.sol\":9809:9967  function sub(uint256 a, uint256 b) internal pure returns (uint256) {\r... */\n            tag_119:\n                /* \"smartChefFactory2.sol\":9867:9874  uint256 */\n              0x00\n                /* \"smartChefFactory2.sol\":9900:9901  a */\n              dup3\n                /* \"smartChefFactory2.sol\":9895:9896  b */\n              dup3\n                /* \"smartChefFactory2.sol\":9895:9901  b <= a */\n              gt\n              iszero\n                /* \"smartChefFactory2.sol\":9887:9936  require(b <= a, \"SafeMath: subtraction overflow\") */\n              tag_253\n              jumpi\n              mload(0x40)\n              0x08c379a000000000000000000000000000000000000000000000000000000000\n              dup2\n              mstore\n              0x04\n              add\n              dup1\n              dup1\n              0x20\n              add\n              dup3\n              dup2\n              sub\n              dup3\n              mstore\n              0x1e\n              dup2\n              mstore\n              0x20\n              add\n              dup1\n              0x536166654d6174683a207375627472616374696f6e206f766572666c6f770000\n              dup2\n              mstore\n              pop\n              0x20\n              add\n              swap2\n              pop\n              pop\n              mload(0x40)\n              dup1\n              swap2\n              sub\n              swap1\n              revert\n            tag_253:\n                /* \"smartChefFactory2.sol\":9958:9959  b */\n              dup2\n                /* \"smartChefFactory2.sol\":9954:9955  a */\n              dup4\n                /* \"smartChefFactory2.sol\":9954:9959  a - b */\n              sub\n                /* \"smartChefFactory2.sol\":9947:9959  return a - b */\n              swap1\n              pop\n                /* \"smartChefFactory2.sol\":9809:9967  function sub(uint256 a, uint256 b) internal pure returns (uint256) {\r... */\n              swap3\n              swap2\n              pop\n              pop\n              jump\t// out\n                /* \"smartChefFactory2.sol\":25715:25926  function safeTransfer(\r... */\n            tag_123:\n                /* \"smartChefFactory2.sol\":25832:25918  _callOptionalReturn(token, abi.encodeWithSelector(token.transfer.selector, to, value)) */\n              tag_255\n                /* \"smartChefFactory2.sol\":25852:25857  token */\n              dup4\n                /* \"smartChefFactory2.sol\":25882:25905  token.transfer.selector */\n              shl(0xe0, 0xa9059cbb)\n                /* \"smartChefFactory2.sol\":25907:25909  to */\n              dup5\n                /* \"smartChefFactory2.sol\":25911:25916  value */\n              dup5\n                /* \"smartChefFactory2.sol\":25859:25917  abi.encodeWithSelector(token.transfer.selector, to, value) */\n              add(0x24, mload(0x40))\n              dup1\n              dup4\n              0xffffffffffffffffffffffffffffffffffffffff\n              and\n              dup2\n              mstore\n              0x20\n              add\n              dup3\n              dup2\n              mstore\n              0x20\n              add\n              swap3\n              pop\n              pop\n              pop\n              mload(0x40)\n              0x20\n              dup2\n              dup4\n              sub\n              sub\n              dup2\n              mstore\n              swap1\n              0x40\n              mstore\n              swap1\n              not(0xffffffffffffffffffffffffffffffffffffffffffffffffffffffff)\n              and\n              0x20\n              dup3\n              add\n              dup1\n              mload\n              0xffffffffffffffffffffffffffffffffffffffffffffffffffffffff\n              dup4\n              dup2\n              dup4\n              and\n              or\n              dup4\n              mstore\n              pop\n              pop\n              pop\n              pop\n                /* \"smartChefFactory2.sol\":25832:25851  _callOptionalReturn */\n              tag_256\n                /* \"smartChefFactory2.sol\":25832:25918  _callOptionalReturn(token, abi.encodeWithSelector(token.transfer.selector, to, value)) */\n              jump\t// in\n            tag_255:\n                /* \"smartChefFactory2.sol\":25715:25926  function safeTransfer(\r... */\n              pop\n              pop\n              pop\n              jump\t// out\n                /* \"smartChefFactory2.sol\":9347:9526  function add(uint256 a, uint256 b) internal pure returns (uint256) {\r... */\n            tag_186:\n                /* \"smartChefFactory2.sol\":9405:9412  uint256 */\n              0x00\n                /* \"smartChefFactory2.sol\":9425:9434  uint256 c */\n              dup1\n                /* \"smartChefFactory2.sol\":9441:9442  b */\n              dup3\n                /* \"smartChefFactory2.sol\":9437:9438  a */\n              dup5\n                /* \"smartChefFactory2.sol\":9437:9442  a + b */\n              add\n                /* \"smartChefFactory2.sol\":9425:9442  uint256 c = a + b */\n              swap1\n              pop\n                /* \"smartChefFactory2.sol\":9466:9467  a */\n              dup4\n                /* \"smartChefFactory2.sol\":9461:9462  c */\n              dup2\n                /* \"smartChefFactory2.sol\":9461:9467  c >= a */\n              lt\n              iszero\n                /* \"smartChefFactory2.sol\":9453:9499  require(c >= a, \"SafeMath: addition overflow\") */\n              tag_258\n              jumpi\n              mload(0x40)\n              0x08c379a000000000000000000000000000000000000000000000000000000000\n              dup2\n              mstore\n              0x04\n              add\n              dup1\n              dup1\n              0x20\n              add\n              dup3\n              dup2\n              sub\n              dup3\n              mstore\n              0x1b\n              dup2\n              mstore\n              0x20\n              add\n              dup1\n              0x536166654d6174683a206164646974696f6e206f766572666c6f770000000000\n              dup2\n              mstore\n              pop\n              0x20\n              add\n              swap2\n              pop\n              pop\n              mload(0x40)\n              dup1\n              swap2\n              sub\n              swap1\n              revert\n            tag_258:\n                /* \"smartChefFactory2.sol\":9517:9518  c */\n              dup1\n                /* \"smartChefFactory2.sol\":9510:9518  return c */\n              swap2\n              pop\n              pop\n                /* \"smartChefFactory2.sol\":9347:9526  function add(uint256 a, uint256 b) internal pure returns (uint256) {\r... */\n              swap3\n              swap2\n              pop\n              pop\n              jump\t// out\n                /* \"smartChefFactory2.sol\":25934:26182  function safeTransferFrom(\r... */\n            tag_198:\n                /* \"smartChefFactory2.sol\":26078:26174  _callOptionalReturn(token, abi.encodeWithSelector(token.transferFrom.selector, from, to, value)) */\n              tag_260\n                /* \"smartChefFactory2.sol\":26098:26103  token */\n              dup5\n                /* \"smartChefFactory2.sol\":26128:26155  token.transferFrom.selector */\n              shl(0xe0, 0x23b872dd)\n                /* \"smartChefFactory2.sol\":26157:26161  from */\n              dup6\n                /* \"smartChefFactory2.sol\":26163:26165  to */\n              dup6\n                /* \"smartChefFactory2.sol\":26167:26172  value */\n              dup6\n                /* \"smartChefFactory2.sol\":26105:26173  abi.encodeWithSelector(token.transferFrom.selector, from, to, value) */\n              add(0x24, mload(0x40))\n              dup1\n              dup5\n              0xffffffffffffffffffffffffffffffffffffffff\n              and\n              dup2\n              mstore\n              0x20\n              add\n              dup4\n              0xffffffffffffffffffffffffffffffffffffffff\n              and\n              dup2\n              mstore\n              0x20\n              add\n              dup3\n              dup2\n              mstore\n              0x20\n              add\n              swap4\n              pop\n              pop\n              pop\n              pop\n              mload(0x40)\n              0x20\n              dup2\n              dup4\n              sub\n              sub\n              dup2\n              mstore\n              swap1\n              0x40\n              mstore\n              swap1\n              not(0xffffffffffffffffffffffffffffffffffffffffffffffffffffffff)\n              and\n              0x20\n              dup3\n              add\n              dup1\n              mload\n              0xffffffffffffffffffffffffffffffffffffffffffffffffffffffff\n              dup4\n              dup2\n              dup4\n              and\n              or\n              dup4\n              mstore\n              pop\n              pop\n              pop\n              pop\n                /* \"smartChefFactory2.sol\":26078:26097  _callOptionalReturn */\n              tag_256\n                /* \"smartChefFactory2.sol\":26078:26174  _callOptionalReturn(token, abi.encodeWithSelector(token.transferFrom.selector, from, to, value)) */\n              jump\t// in\n            tag_260:\n                /* \"smartChefFactory2.sol\":25934:26182  function safeTransferFrom(\r... */\n              pop\n              pop\n              pop\n              pop\n              jump\t// out\n                /* \"smartChefFactory2.sol\":40007:40316  function _getMultiplier(uint256 _from, uint256 _to) internal view returns (uint256) {\r... */\n            tag_220:\n                /* \"smartChefFactory2.sol\":40082:40089  uint256 */\n              0x00\n                /* \"smartChefFactory2.sol\":40113:40126  bonusEndBlock */\n              sload(0x04)\n                /* \"smartChefFactory2.sol\":40106:40109  _to */\n              dup3\n                /* \"smartChefFactory2.sol\":40106:40126  _to <= bonusEndBlock */\n              gt\n                /* \"smartChefFactory2.sol\":40102:40309  if (_to <= bonusEndBlock) {\r... */\n              tag_262\n              jumpi\n                /* \"smartChefFactory2.sol\":40150:40164  _to.sub(_from) */\n              tag_263\n                /* \"smartChefFactory2.sol\":40158:40163  _from */\n              dup4\n                /* \"smartChefFactory2.sol\":40150:40153  _to */\n              dup4\n                /* \"smartChefFactory2.sol\":40150:40157  _to.sub */\n              tag_119\n              swap1\n                /* \"smartChefFactory2.sol\":40150:40164  _to.sub(_from) */\n              swap2\n              swap1\n              0xffffffff\n              and\n              jump\t// in\n            tag_263:\n                /* \"smartChefFactory2.sol\":40143:40164  return _to.sub(_from) */\n              swap1\n              pop\n              jump(tag_261)\n                /* \"smartChefFactory2.sol\":40102:40309  if (_to <= bonusEndBlock) {\r... */\n            tag_262:\n                /* \"smartChefFactory2.sol\":40195:40208  bonusEndBlock */\n              sload(0x04)\n                /* \"smartChefFactory2.sol\":40186:40191  _from */\n              dup4\n                /* \"smartChefFactory2.sol\":40186:40208  _from >= bonusEndBlock */\n              lt\n                /* \"smartChefFactory2.sol\":40182:40309  if (_from >= bonusEndBlock) {\r... */\n              tag_265\n              jumpi\n                /* \"smartChefFactory2.sol\":40232:40233  0 */\n              0x00\n                /* \"smartChefFactory2.sol\":40225:40233  return 0 */\n              swap1\n              pop\n              jump(tag_261)\n                /* \"smartChefFactory2.sol\":40182:40309  if (_from >= bonusEndBlock) {\r... */\n            tag_265:\n                /* \"smartChefFactory2.sol\":40273:40297  bonusEndBlock.sub(_from) */\n              tag_267\n                /* \"smartChefFactory2.sol\":40291:40296  _from */\n              dup4\n                /* \"smartChefFactory2.sol\":40273:40286  bonusEndBlock */\n              sload(0x04)\n                /* \"smartChefFactory2.sol\":40273:40290  bonusEndBlock.sub */\n              tag_119\n              swap1\n                /* \"smartChefFactory2.sol\":40273:40297  bonusEndBlock.sub(_from) */\n              swap2\n              swap1\n              0xffffffff\n              and\n              jump\t// in\n            tag_267:\n                /* \"smartChefFactory2.sol\":40266:40297  return bonusEndBlock.sub(_from) */\n              swap1\n              pop\n                /* \"smartChefFactory2.sol\":40007:40316  function _getMultiplier(uint256 _from, uint256 _to) internal view returns (uint256) {\r... */\n            tag_261:\n              swap3\n              swap2\n              pop\n              pop\n              jump\t// out\n                /* \"smartChefFactory2.sol\":28226:29000  function _callOptionalReturn(IBEP20 token, bytes memory data) private {\r... */\n            tag_256:\n                /* \"smartChefFactory2.sol\":28650:28673  bytes memory returndata */\n              0x60\n                /* \"smartChefFactory2.sol\":28676:28745  address(token).functionCall(data, \"SafeBEP20: low-level call failed\") */\n              tag_269\n                /* \"smartChefFactory2.sol\":28704:28708  data */\n              dup3\n                /* \"smartChefFactory2.sol\":28676:28745  address(token).functionCall(data, \"SafeBEP20: low-level call failed\") */\n              mload(0x40)\n              dup1\n              0x40\n              add\n              0x40\n              mstore\n              dup1\n              0x20\n              dup2\n              mstore\n              0x20\n              add\n              0x5361666542455032303a206c6f772d6c6576656c2063616c6c206661696c6564\n              dup2\n              mstore\n              pop\n                /* \"smartChefFactory2.sol\":28684:28689  token */\n              dup6\n                /* \"smartChefFactory2.sol\":28676:28703  address(token).functionCall */\n              0xffffffffffffffffffffffffffffffffffffffff\n              and\n              tag_270\n              swap1\n                /* \"smartChefFactory2.sol\":28676:28745  address(token).functionCall(data, \"SafeBEP20: low-level call failed\") */\n              swap3\n              swap2\n              swap1\n              0xffffffff\n              and\n              jump\t// in\n            tag_269:\n                /* \"smartChefFactory2.sol\":28650:28745  bytes memory returndata = address(token).functionCall(data, \"SafeBEP20: low-level call failed\") */\n              swap1\n              pop\n                /* \"smartChefFactory2.sol\":28780:28781  0 */\n              0x00\n                /* \"smartChefFactory2.sol\":28760:28770  returndata */\n              dup2\n                /* \"smartChefFactory2.sol\":28760:28777  returndata.length */\n              mload\n                /* \"smartChefFactory2.sol\":28760:28781  returndata.length > 0 */\n              gt\n                /* \"smartChefFactory2.sol\":28756:28993  if (returndata.length > 0) {\r... */\n              iszero\n              tag_271\n              jumpi\n                /* \"smartChefFactory2.sol\":28915:28925  returndata */\n              dup1\n                /* \"smartChefFactory2.sol\":28904:28934  abi.decode(returndata, (bool)) */\n              dup1\n              0x20\n              add\n              swap1\n              mload\n              0x20\n              dup2\n              lt\n              iszero\n              tag_272\n              jumpi\n              0x00\n              dup1\n              revert\n            tag_272:\n              dup2\n              add\n              swap1\n              dup1\n              dup1\n              mload\n              swap1\n              0x20\n              add\n              swap1\n              swap3\n              swap2\n              swap1\n              pop\n              pop\n              pop\n                /* \"smartChefFactory2.sol\":28896:28981  require(abi.decode(returndata, (bool)), \"SafeBEP20: BEP20 operation did not succeed\") */\n              tag_273\n              jumpi\n              mload(0x40)\n              0x08c379a000000000000000000000000000000000000000000000000000000000\n              dup2\n              mstore\n              0x04\n              add\n              dup1\n              dup1\n              0x20\n              add\n              dup3\n              dup2\n              sub\n              dup3\n              mstore\n              0x2a\n              dup2\n              mstore\n              0x20\n              add\n              dup1\n              data_21c3364d55537bf20eb8f05374e9f53f47299e1883c412f1f1135f398f2c2082\n              0x2a\n              swap2\n              codecopy\n              0x40\n              add\n              swap2\n              pop\n              pop\n              mload(0x40)\n              dup1\n              swap2\n              sub\n              swap1\n              revert\n            tag_273:\n                /* \"smartChefFactory2.sol\":28756:28993  if (returndata.length > 0) {\r... */\n            tag_271:\n                /* \"smartChefFactory2.sol\":28226:29000  function _callOptionalReturn(IBEP20 token, bytes memory data) private {\r... */\n              pop\n              pop\n              pop\n              jump\t// out\n                /* \"smartChefFactory2.sol\":20528:20757  function functionCall(\r... */\n            tag_270:\n                /* \"smartChefFactory2.sol\":20665:20677  bytes memory */\n              0x60\n                /* \"smartChefFactory2.sol\":20697:20749  functionCallWithValue(target, data, 0, errorMessage) */\n              tag_275\n                /* \"smartChefFactory2.sol\":20719:20725  target */\n              dup5\n                /* \"smartChefFactory2.sol\":20727:20731  data */\n              dup5\n                /* \"smartChefFactory2.sol\":20733:20734  0 */\n              0x00\n                /* \"smartChefFactory2.sol\":20736:20748  errorMessage */\n              dup6\n                /* \"smartChefFactory2.sol\":20697:20718  functionCallWithValue */\n              tag_276\n                /* \"smartChefFactory2.sol\":20697:20749  functionCallWithValue(target, data, 0, errorMessage) */\n              jump\t// in\n            tag_275:\n                /* \"smartChefFactory2.sol\":20690:20749  return functionCallWithValue(target, data, 0, errorMessage) */\n              swap1\n              pop\n                /* \"smartChefFactory2.sol\":20528:20757  function functionCall(\r... */\n              swap4\n              swap3\n              pop\n              pop\n              pop\n              jump\t// out\n                /* \"smartChefFactory2.sol\":21648:22219  function functionCallWithValue(\r... */\n            tag_276:\n                /* \"smartChefFactory2.sol\":21818:21830  bytes memory */\n              0x60\n                /* \"smartChefFactory2.sol\":21876:21881  value */\n              dup3\n                /* \"smartChefFactory2.sol\":21851:21872  address(this).balance */\n              selfbalance\n                /* \"smartChefFactory2.sol\":21851:21881  address(this).balance >= value */\n              lt\n              iszero\n                /* \"smartChefFactory2.sol\":21843:21924  require(address(this).balance >= value, \"Address: insufficient balance for call\") */\n              tag_278\n              jumpi\n              mload(0x40)\n              0x08c379a000000000000000000000000000000000000000000000000000000000\n              dup2\n              mstore\n              0x04\n              add\n              dup1\n              dup1\n              0x20\n              add\n              dup3\n              dup2\n              sub\n              dup3\n              mstore\n              0x26\n              dup2\n              mstore\n              0x20\n              add\n              dup1\n              data_565f1a77334fc4792800921178c71e4521acffab18ff9e7885b49377ee80ab4c\n              0x26\n              swap2\n              codecopy\n              0x40\n              add\n              swap2\n              pop\n              pop\n              mload(0x40)\n              dup1\n              swap2\n              sub\n              swap1\n              revert\n            tag_278:\n                /* \"smartChefFactory2.sol\":21943:21961  isContract(target) */\n              tag_279\n                /* \"smartChefFactory2.sol\":21954:21960  target */\n              dup6\n                /* \"smartChefFactory2.sol\":21943:21953  isContract */\n              tag_280\n                /* \"smartChefFactory2.sol\":21943:21961  isContract(target) */\n              jump\t// in\n            tag_279:\n                /* \"smartChefFactory2.sol\":21935:21995  require(isContract(target), \"Address: call to non-contract\") */\n              tag_281\n              jumpi\n              mload(0x40)\n              0x08c379a000000000000000000000000000000000000000000000000000000000\n              dup2\n              mstore\n              0x04\n              add\n              dup1\n              dup1\n              0x20\n              add\n              dup3\n              dup2\n              sub\n              dup3\n              mstore\n              0x1d\n              dup2\n              mstore\n              0x20\n              add\n              dup1\n              0x416464726573733a2063616c6c20746f206e6f6e2d636f6e7472616374000000\n              dup2\n              mstore\n              pop\n              0x20\n              add\n              swap2\n              pop\n              pop\n              mload(0x40)\n              dup1\n              swap2\n              sub\n              swap1\n              revert\n            tag_281:\n                /* \"smartChefFactory2.sol\":22069:22081  bool success */\n              0x00\n                /* \"smartChefFactory2.sol\":22083:22106  bytes memory returndata */\n              0x60\n                /* \"smartChefFactory2.sol\":22110:22116  target */\n              dup7\n                /* \"smartChefFactory2.sol\":22110:22121  target.call */\n              0xffffffffffffffffffffffffffffffffffffffff\n              and\n                /* \"smartChefFactory2.sol\":22129:22134  value */\n              dup6\n                /* \"smartChefFactory2.sol\":22136:22140  data */\n              dup8\n                /* \"smartChefFactory2.sol\":22110:22141  target.call{value: value}(data) */\n              mload(0x40)\n              dup1\n              dup3\n              dup1\n              mload\n              swap1\n              0x20\n              add\n              swap1\n              dup1\n              dup4\n              dup4\n            tag_282:\n              0x20\n              dup4\n              lt\n              tag_284\n              jumpi\n              dup1\n              mload\n              dup3\n              mstore\n              0x20\n              dup3\n              add\n              swap2\n              pop\n              0x20\n              dup2\n              add\n              swap1\n              pop\n              0x20\n              dup4\n              sub\n              swap3\n              pop\n              jump(tag_282)\n            tag_284:\n              0x01\n              dup4\n              0x20\n              sub\n              0x0100\n              exp\n              sub\n              dup1\n              not\n              dup3\n              mload\n              and\n              dup2\n              dup5\n              mload\n              and\n              dup1\n              dup3\n              or\n              dup6\n              mstore\n              pop\n              pop\n              pop\n              pop\n              pop\n              pop\n              swap1\n              pop\n              add\n              swap2\n              pop\n              pop\n              0x00\n              mload(0x40)\n              dup1\n              dup4\n              sub\n              dup2\n              dup6\n              dup8\n              gas\n              call\n              swap3\n              pop\n              pop\n              pop\n              returndatasize\n              dup1\n              0x00\n              dup2\n              eq\n              tag_287\n              jumpi\n              mload(0x40)\n              swap2\n              pop\n              and(add(returndatasize, 0x3f), not(0x1f))\n              dup3\n              add\n              0x40\n              mstore\n              returndatasize\n              dup3\n              mstore\n              returndatasize\n              0x00\n              0x20\n              dup5\n              add\n              returndatacopy\n              jump(tag_286)\n            tag_287:\n              0x60\n              swap2\n              pop\n            tag_286:\n              pop\n                /* \"smartChefFactory2.sol\":22068:22141  (bool success, bytes memory returndata) = target.call{value: value}(data) */\n              swap2\n              pop\n              swap2\n              pop\n                /* \"smartChefFactory2.sol\":22159:22211  _verifyCallResult(success, returndata, errorMessage) */\n              tag_288\n                /* \"smartChefFactory2.sol\":22177:22184  success */\n              dup3\n                /* \"smartChefFactory2.sol\":22186:22196  returndata */\n              dup3\n                /* \"smartChefFactory2.sol\":22198:22210  errorMessage */\n              dup7\n                /* \"smartChefFactory2.sol\":22159:22176  _verifyCallResult */\n              tag_289\n                /* \"smartChefFactory2.sol\":22159:22211  _verifyCallResult(success, returndata, errorMessage) */\n              jump\t// in\n            tag_288:\n                /* \"smartChefFactory2.sol\":22152:22211  return _verifyCallResult(success, returndata, errorMessage) */\n              swap3\n              pop\n              pop\n              pop\n                /* \"smartChefFactory2.sol\":21648:22219  function functionCallWithValue(\r... */\n              swap5\n              swap4\n              pop\n              pop\n              pop\n              pop\n              jump\t// out\n                /* \"smartChefFactory2.sol\":17588:18032  function isContract(address account) internal view returns (bool) {\r... */\n            tag_280:\n                /* \"smartChefFactory2.sol\":17648:17652  bool */\n              0x00\n                /* \"smartChefFactory2.sol\":17856:17868  uint256 size */\n              dup1\n                /* \"smartChefFactory2.sol\":17980:17987  account */\n              dup3\n                /* \"smartChefFactory2.sol\":17968:17988  extcodesize(account) */\n              extcodesize\n                /* \"smartChefFactory2.sol\":17960:17988  size := extcodesize(account) */\n              swap1\n              pop\n                /* \"smartChefFactory2.sol\":18023:18024  0 */\n              0x00\n                /* \"smartChefFactory2.sol\":18016:18020  size */\n              dup2\n                /* \"smartChefFactory2.sol\":18016:18024  size > 0 */\n              gt\n                /* \"smartChefFactory2.sol\":18009:18024  return size > 0 */\n              swap2\n              pop\n              pop\n                /* \"smartChefFactory2.sol\":17588:18032  function isContract(address account) internal view returns (bool) {\r... */\n              swap2\n              swap1\n              pop\n              jump\t// out\n                /* \"smartChefFactory2.sol\":24297:25074  function _verifyCallResult(\r... */\n            tag_289:\n                /* \"smartChefFactory2.sol\":24447:24459  bytes memory */\n              0x60\n                /* \"smartChefFactory2.sol\":24476:24483  success */\n              dup4\n                /* \"smartChefFactory2.sol\":24472:25067  if (success) {\r... */\n              iszero\n              tag_292\n              jumpi\n                /* \"smartChefFactory2.sol\":24507:24517  returndata */\n              dup3\n                /* \"smartChefFactory2.sol\":24500:24517  return returndata */\n              swap1\n              pop\n              jump(tag_291)\n                /* \"smartChefFactory2.sol\":24472:25067  if (success) {\r... */\n            tag_292:\n                /* \"smartChefFactory2.sol\":24641:24642  0 */\n              0x00\n                /* \"smartChefFactory2.sol\":24621:24631  returndata */\n              dup4\n                /* \"smartChefFactory2.sol\":24621:24638  returndata.length */\n              mload\n                /* \"smartChefFactory2.sol\":24621:24642  returndata.length > 0 */\n              gt\n                /* \"smartChefFactory2.sol\":24617:25056  if (returndata.length > 0) {\r... */\n              iszero\n              tag_294\n              jumpi\n                /* \"smartChefFactory2.sol\":24884:24894  returndata */\n              dup3\n                /* \"smartChefFactory2.sol\":24878:24895  mload(returndata) */\n              mload\n                /* \"smartChefFactory2.sol\":24945:24960  returndata_size */\n              dup1\n                /* \"smartChefFactory2.sol\":24932:24942  returndata */\n              dup5\n                /* \"smartChefFactory2.sol\":24928:24930  32 */\n              0x20\n                /* \"smartChefFactory2.sol\":24924:24943  add(32, returndata) */\n              add\n                /* \"smartChefFactory2.sol\":24917:24961  revert(add(32, returndata), returndata_size) */\n              revert\n                /* \"smartChefFactory2.sol\":24832:24980  {\r... */\n            tag_294:\n                /* \"smartChefFactory2.sol\":25027:25039  errorMessage */\n              dup2\n                /* \"smartChefFactory2.sol\":25020:25040  revert(errorMessage) */\n              mload(0x40)\n              0x08c379a000000000000000000000000000000000000000000000000000000000\n              dup2\n              mstore\n              0x04\n              add\n              dup1\n              dup1\n              0x20\n              add\n              dup3\n              dup2\n              sub\n              dup3\n              mstore\n              dup4\n              dup2\n              dup2\n              mload\n              dup2\n              mstore\n              0x20\n              add\n              swap2\n              pop\n              dup1\n              mload\n              swap1\n              0x20\n              add\n              swap1\n              dup1\n              dup4\n              dup4\n              0x00\n            tag_296:\n              dup4\n              dup2\n              lt\n              iszero\n              tag_298\n              jumpi\n              dup1\n              dup3\n              add\n              mload\n              dup2\n              dup5\n              add\n              mstore\n              0x20\n              dup2\n              add\n              swap1\n              pop\n              jump(tag_296)\n            tag_298:\n              pop\n              pop\n              pop\n              pop\n              swap1\n              pop\n              swap1\n              dup2\n              add\n              swap1\n              0x1f\n              and\n              dup1\n              iszero\n              tag_299\n              jumpi\n              dup1\n              dup3\n              sub\n              dup1\n              mload\n              0x01\n              dup4\n              0x20\n              sub\n              0x0100\n              exp\n              sub\n              not\n              and\n              dup2\n              mstore\n              0x20\n              add\n              swap2\n              pop\n            tag_299:\n              pop\n              swap3\n              pop\n              pop\n              pop\n              mload(0x40)\n              dup1\n              swap2\n              sub\n              swap1\n              revert\n                /* \"smartChefFactory2.sol\":24297:25074  function _verifyCallResult(\r... */\n            tag_291:\n              swap4\n              swap3\n              pop\n              pop\n              pop\n              jump\t// out\n            stop\n            data_21c3364d55537bf20eb8f05374e9f53f47299e1883c412f1f1135f398f2c2082 5361666542455032303a204245503230206f7065726174696f6e20646964206e6f742073756363656564\n            data_245f15ff17f551913a7a18385165551503906a406f905ac1c2437281a7cd0cfe 4f776e61626c653a206e6577206f776e657220697320746865207a65726f2061646472657373\n            data_55e8b512461165150226d7fb62af16288a660c0fc1f35821ba4ad8ad658a0bb0 4e6577207374617274426c6f636b206d757374206265206c6f776572207468616e206e657720656e64426c6f636b\n            data_565f1a77334fc4792800921178c71e4521acffab18ff9e7885b49377ee80ab4c 416464726573733a20696e73756666696369656e742062616c616e636520666f722063616c6c\n            data_8ddaf6510efec06eaa5007f0744244862092545bc763e566e2661c53c8ff3a7e 4e6577207374617274426c6f636b206d75737420626520686967686572207468616e2063757272656e7420626c6f636b\n            data_9113bb53c2876a3805b2c9242029423fc540a728243ce887ab24c82cf119fba3 536166654d6174683a206d756c7469706c69636174696f6e206f766572666c6f77\n\n            auxdata: 0xa264697066735822122064cbdd58853dea9f547fa56609930eefd6a5b7189933b1b68d0575bf49aa607064736f6c634300060c0033\n        }\n    }\n\n    auxdata: 0xa26469706673582212204d918cede36212b2a149c935764b61b84d810692f68856433e9fab69b1b7e4e264736f6c634300060c0033\n}\n",
				"bytecode": {
					"linkReferences": {},
					"object": "608060405234801561001057600080fd5b5060006100216100c460201b60201c565b9050806000806101000a81548173ffffffffffffffffffffffffffffffffffffffff021916908373ffffffffffffffffffffffffffffffffffffffff1602179055508073ffffffffffffffffffffffffffffffffffffffff16600073ffffffffffffffffffffffffffffffffffffffff167f8be0079c531659141344cd1fd0a4f28419497f9722a3daafe3b4186f6b6457e060405160405180910390a3506100cc565b600033905090565b6136ce806100db6000396000f3fe608060405234801561001057600080fd5b506004361061004c5760003560e01c8063715018a6146100515780638da5cb5b1461005b578063cc8402f51461008f578063f2fde38b1461013b575b600080fd5b61005961017f565b005b6100636102ec565b604051808273ffffffffffffffffffffffffffffffffffffffff16815260200191505060405180910390f35b610139600480360360e08110156100a557600080fd5b81019080803573ffffffffffffffffffffffffffffffffffffffff169060200190929190803573ffffffffffffffffffffffffffffffffffffffff16906020019092919080359060200190929190803590602001909291908035906020019092919080359060200190929190803573ffffffffffffffffffffffffffffffffffffffff169060200190929190505050610315565b005b61017d6004803603602081101561015157600080fd5b81019080803573ffffffffffffffffffffffffffffffffffffffff1690602001909291905050506106af565b005b6101876108a1565b73ffffffffffffffffffffffffffffffffffffffff166101a56102ec565b73ffffffffffffffffffffffffffffffffffffffff161461022e576040517f08c379a00000000000000000000000000000000000000000000000000000000081526004018080602001828103825260208152602001807f4f776e61626c653a2063616c6c6572206973206e6f7420746865206f776e657281525060200191505060405180910390fd5b600073ffffffffffffffffffffffffffffffffffffffff1660008054906101000a900473ffffffffffffffffffffffffffffffffffffffff1673ffffffffffffffffffffffffffffffffffffffff167f8be0079c531659141344cd1fd0a4f28419497f9722a3daafe3b4186f6b6457e060405160405180910390a360008060006101000a81548173ffffffffffffffffffffffffffffffffffffffff021916908373ffffffffffffffffffffffffffffffffffffffff160217905550565b60008060009054906101000a900473ffffffffffffffffffffffffffffffffffffffff16905090565b61031d6108a1565b73ffffffffffffffffffffffffffffffffffffffff1661033b6102ec565b73ffffffffffffffffffffffffffffffffffffffff16146103c4576040517f08c379a00000000000000000000000000000000000000000000000000000000081526004018080602001828103825260208152602001807f4f776e61626c653a2063616c6c6572206973206e6f7420746865206f776e657281525060200191505060405180910390fd5b60008773ffffffffffffffffffffffffffffffffffffffff166318160ddd6040518163ffffffff1660e01b815260040160206040518083038186803b15801561040c57600080fd5b505afa158015610420573d6000803e3d6000fd5b505050506040513d602081101561043657600080fd5b8101908080519060200190929190505050101561045257600080fd5b60008673ffffffffffffffffffffffffffffffffffffffff166318160ddd6040518163ffffffff1660e01b815260040160206040518083038186803b15801561049a57600080fd5b505afa1580156104ae573d6000803e3d6000fd5b505050506040513d60208110156104c457600080fd5b810190808051906020019092919050505010156104e057600080fd5b6060604051806020016104f2906108a9565b6020820181038252601f19601f8201166040525090506000888887604051602001808473ffffffffffffffffffffffffffffffffffffffff1660601b81526014018373ffffffffffffffffffffffffffffffffffffffff1660601b815260140182815260200193505050506040516020818303038152906040528051906020012090506000818351602085016000f590508073ffffffffffffffffffffffffffffffffffffffff166383a5041c8b8b8b8b8b8b8b6040518863ffffffff1660e01b8152600401808873ffffffffffffffffffffffffffffffffffffffff1681526020018773ffffffffffffffffffffffffffffffffffffffff1681526020018681526020018581526020018481526020018381526020018273ffffffffffffffffffffffffffffffffffffffff168152602001975050505050505050600060405180830381600087803b15801561064857600080fd5b505af115801561065c573d6000803e3d6000fd5b505050508073ffffffffffffffffffffffffffffffffffffffff167fe0d103a92c6ff6c4aceb49d436f4028e0deb4884fdbcb9f32b03045eabb44a6c60405160405180910390a250505050505050505050565b6106b76108a1565b73ffffffffffffffffffffffffffffffffffffffff166106d56102ec565b73ffffffffffffffffffffffffffffffffffffffff161461075e576040517f08c379a00000000000000000000000000000000000000000000000000000000081526004018080602001828103825260208152602001807f4f776e61626c653a2063616c6c6572206973206e6f7420746865206f776e657281525060200191505060405180910390fd5b600073ffffffffffffffffffffffffffffffffffffffff168173ffffffffffffffffffffffffffffffffffffffff1614156107e4576040517f08c379a00000000000000000000000000000000000000000000000000000000081526004018080602001828103825260268152602001806136736026913960400191505060405180910390fd5b8073ffffffffffffffffffffffffffffffffffffffff1660008054906101000a900473ffffffffffffffffffffffffffffffffffffffff1673ffffffffffffffffffffffffffffffffffffffff167f8be0079c531659141344cd1fd0a4f28419497f9722a3daafe3b4186f6b6457e060405160405180910390a3806000806101000a81548173ffffffffffffffffffffffffffffffffffffffff021916908373ffffffffffffffffffffffffffffffffffffffff16021790555050565b600033905090565b612dbc806108b78339019056fe608060405234801561001057600080fd5b50600061002161010c60201b60201c565b9050806000806101000a81548173ffffffffffffffffffffffffffffffffffffffff021916908373ffffffffffffffffffffffffffffffffffffffff1602179055508073ffffffffffffffffffffffffffffffffffffffff16600073ffffffffffffffffffffffffffffffffffffffff167f8be0079c531659141344cd1fd0a4f28419497f9722a3daafe3b4186f6b6457e060405160405180910390a3506001808190555033600260006101000a81548173ffffffffffffffffffffffffffffffffffffffff021916908373ffffffffffffffffffffffffffffffffffffffff160217905550610114565b600033905090565b612c9880620001246000396000f3fe608060405234801561001057600080fd5b50600436106101a95760003560e01c80638da5cb5b116100f9578063bd61719111610097578063db2e21bc11610071578063db2e21bc146105f3578063f2fde38b146105fd578063f40f0f5214610641578063f7c618c114610699576101a9565b8063bd6171911461056d578063cc7a262e146105a1578063ccd34cd5146105d5576101a9565b80639513997f116100d35780639513997f146104af578063a0b40905146104e7578063a9f8d18114610521578063b6b55f251461053f576101a9565b80638da5cb5b1461043d5780638f6629151461047157806392e8990e1461048f576101a9565b80633f138d4b11610166578063715018a611610140578063715018a61461035f57806380dc06721461036957806383a5041c146103735780638ae39cac1461041f576101a9565b80633f138d4b146102d557806348cd4cb11461032357806366fe9f8a14610341576101a9565b806301f8a976146101ae5780631959a002146101dc5780631aed65531461023b5780632e1a7d4d146102595780633279beab14610287578063392e53cd146102b5575b600080fd5b6101da600480360360208110156101c457600080fd5b81019080803590602001909291905050506106cd565b005b61021e600480360360208110156101f257600080fd5b81019080803573ffffffffffffffffffffffffffffffffffffffff169060200190929190505050610834565b604051808381526020018281526020019250505060405180910390f35b610243610858565b6040518082815260200191505060405180910390f35b6102856004803603602081101561026f57600080fd5b810190808035906020019092919050505061085e565b005b6102b36004803603602081101561029d57600080fd5b8101908080359060200190929190505050610b47565b005b6102bd610c46565b60405180821515815260200191505060405180910390f35b610321600480360360408110156102eb57600080fd5b81019080803573ffffffffffffffffffffffffffffffffffffffff16906020019092919080359060200190929190505050610c59565b005b61032b610f14565b6040518082815260200191505060405180910390f35b610349610f1a565b6040518082815260200191505060405180910390f35b610367610f20565b005b61037161108d565b005b61041d600480360360e081101561038957600080fd5b81019080803573ffffffffffffffffffffffffffffffffffffffff169060200190929190803573ffffffffffffffffffffffffffffffffffffffff16906020019092919080359060200190929190803590602001909291908035906020019092919080359060200190929190803573ffffffffffffffffffffffffffffffffffffffff169060200190929190505050611145565b005b6104276114c2565b6040518082815260200191505060405180910390f35b6104456114c8565b604051808273ffffffffffffffffffffffffffffffffffffffff16815260200191505060405180910390f35b6104796114f1565b6040518082815260200191505060405180910390f35b6104976114f7565b60405180821515815260200191505060405180910390f35b6104e5600480360360408110156104c557600080fd5b81019080803590602001909291908035906020019092919050505061150a565b005b61051f600480360360408110156104fd57600080fd5b810190808035151590602001909291908035906020019092919050505061173a565b005b610529611954565b6040518082815260200191505060405180910390f35b61056b6004803603602081101561055557600080fd5b810190808035906020019092919050505061195a565b005b610575611c7d565b604051808273ffffffffffffffffffffffffffffffffffffffff16815260200191505060405180910390f35b6105a9611ca3565b604051808273ffffffffffffffffffffffffffffffffffffffff16815260200191505060405180910390f35b6105dd611cc9565b6040518082815260200191505060405180910390f35b6105fb611ccf565b005b61063f6004803603602081101561061357600080fd5b81019080803573ffffffffffffffffffffffffffffffffffffffff169060200190929190505050611e64565b005b6106836004803603602081101561065757600080fd5b81019080803573ffffffffffffffffffffffffffffffffffffffff169060200190929190505050612056565b6040518082815260200191505060405180910390f35b6106a161227b565b604051808273ffffffffffffffffffffffffffffffffffffffff16815260200191505060405180910390f35b6106d56122a1565b73ffffffffffffffffffffffffffffffffffffffff166106f36114c8565b73ffffffffffffffffffffffffffffffffffffffff161461077c576040517f08c379a00000000000000000000000000000000000000000000000000000000081526004018080602001828103825260208152602001807f4f776e61626c653a2063616c6c6572206973206e6f7420746865206f776e657281525060200191505060405180910390fd5b60055443106107f3576040517f08c379a00000000000000000000000000000000000000000000000000000000081526004018080602001828103825260108152602001807f506f6f6c2068617320737461727465640000000000000000000000000000000081525060200191505060405180910390fd5b806008819055507f0c4d677eef92893ac7ec52faf8140fc6c851ab4736302b4f3a89dfb20696a0df816040518082815260200191505060405180910390a150565b600c6020528060005260406000206000915090508060000154908060010154905082565b60045481565b600260015414156108d7576040517f08c379a000000000000000000000000000000000000000000000000000000000815260040180806020018281038252601f8152602001807f5265656e7472616e637947756172643a207265656e7472616e742063616c6c0081525060200191505060405180910390fd5b60026001819055506000600c60003373ffffffffffffffffffffffffffffffffffffffff1673ffffffffffffffffffffffffffffffffffffffff1681526020019081526020016000209050818160000154101561099c576040517f08c379a000000000000000000000000000000000000000000000000000000000815260040180806020018281038252601b8152602001807f416d6f756e7420746f20776974686472617720746f6f2068696768000000000081525060200191505060405180910390fd5b6109a46122a9565b60006109e982600101546109db6009546109cd600354876000015461240c90919063ffffffff16565b61249290919063ffffffff16565b61251b90919063ffffffff16565b90506000831115610a6157610a0b83836000015461251b90919063ffffffff16565b8260000181905550610a603384600b60009054906101000a900473ffffffffffffffffffffffffffffffffffffffff1673ffffffffffffffffffffffffffffffffffffffff1661259e9092919063ffffffff16565b5b6000811115610ab857610ab73382600a60009054906101000a900473ffffffffffffffffffffffffffffffffffffffff1673ffffffffffffffffffffffffffffffffffffffff1661259e9092919063ffffffff16565b5b610ae5600954610ad7600354856000015461240c90919063ffffffff16565b61249290919063ffffffff16565b82600101819055503373ffffffffffffffffffffffffffffffffffffffff167f884edad9ce6fa2440d8a54cc123490eb96d2768479d49ff9c7366125a9424364846040518082815260200191505060405180910390a250506001808190555050565b610b4f6122a1565b73ffffffffffffffffffffffffffffffffffffffff16610b6d6114c8565b73ffffffffffffffffffffffffffffffffffffffff1614610bf6576040517f08c379a00000000000000000000000000000000000000000000000000000000081526004018080602001828103825260208152602001807f4f776e61626c653a2063616c6c6572206973206e6f7420746865206f776e657281525060200191505060405180910390fd5b610c433382600a60009054906101000a900473ffffffffffffffffffffffffffffffffffffffff1673ffffffffffffffffffffffffffffffffffffffff1661259e9092919063ffffffff16565b50565b600260159054906101000a900460ff1681565b610c616122a1565b73ffffffffffffffffffffffffffffffffffffffff16610c7f6114c8565b73ffffffffffffffffffffffffffffffffffffffff1614610d08576040517f08c379a00000000000000000000000000000000000000000000000000000000081526004018080602001828103825260208152602001807f4f776e61626c653a2063616c6c6572206973206e6f7420746865206f776e657281525060200191505060405180910390fd5b600b60009054906101000a900473ffffffffffffffffffffffffffffffffffffffff1673ffffffffffffffffffffffffffffffffffffffff168273ffffffffffffffffffffffffffffffffffffffff161415610dcc576040517f08c379a00000000000000000000000000000000000000000000000000000000081526004018080602001828103825260168152602001807f43616e6e6f74206265207374616b656420746f6b656e0000000000000000000081525060200191505060405180910390fd5b600a60009054906101000a900473ffffffffffffffffffffffffffffffffffffffff1673ffffffffffffffffffffffffffffffffffffffff168273ffffffffffffffffffffffffffffffffffffffff161415610e90576040517f08c379a00000000000000000000000000000000000000000000000000000000081526004018080602001828103825260168152602001807f43616e6e6f742062652072657761726420746f6b656e0000000000000000000081525060200191505060405180910390fd5b610ebb33828473ffffffffffffffffffffffffffffffffffffffff1661259e9092919063ffffffff16565b7f74545154aac348a3eac92596bd1971957ca94795f4e954ec5f613b55fab781298282604051808373ffffffffffffffffffffffffffffffffffffffff1681526020018281526020019250505060405180910390a15050565b60055481565b60075481565b610f286122a1565b73ffffffffffffffffffffffffffffffffffffffff16610f466114c8565b73ffffffffffffffffffffffffffffffffffffffff1614610fcf576040517f08c379a00000000000000000000000000000000000000000000000000000000081526004018080602001828103825260208152602001807f4f776e61626c653a2063616c6c6572206973206e6f7420746865206f776e657281525060200191505060405180910390fd5b600073ffffffffffffffffffffffffffffffffffffffff1660008054906101000a900473ffffffffffffffffffffffffffffffffffffffff1673ffffffffffffffffffffffffffffffffffffffff167f8be0079c531659141344cd1fd0a4f28419497f9722a3daafe3b4186f6b6457e060405160405180910390a360008060006101000a81548173ffffffffffffffffffffffffffffffffffffffff021916908373ffffffffffffffffffffffffffffffffffffffff160217905550565b6110956122a1565b73ffffffffffffffffffffffffffffffffffffffff166110b36114c8565b73ffffffffffffffffffffffffffffffffffffffff161461113c576040517f08c379a00000000000000000000000000000000000000000000000000000000081526004018080602001828103825260208152602001807f4f776e61626c653a2063616c6c6572206973206e6f7420746865206f776e657281525060200191505060405180910390fd5b43600481905550565b600260159054906101000a900460ff16156111c8576040517f08c379a00000000000000000000000000000000000000000000000000000000081526004018080602001828103825260138152602001807f416c726561647920696e697469616c697a65640000000000000000000000000081525060200191505060405180910390fd5b600260009054906101000a900473ffffffffffffffffffffffffffffffffffffffff1673ffffffffffffffffffffffffffffffffffffffff163373ffffffffffffffffffffffffffffffffffffffff161461128b576040517f08c379a000000000000000000000000000000000000000000000000000000000815260040180806020018281038252600b8152602001807f4e6f7420666163746f727900000000000000000000000000000000000000000081525060200191505060405180910390fd5b6001600260156101000a81548160ff02191690831515021790555086600b60006101000a81548173ffffffffffffffffffffffffffffffffffffffff021916908373ffffffffffffffffffffffffffffffffffffffff16021790555085600a60006101000a81548173ffffffffffffffffffffffffffffffffffffffff021916908373ffffffffffffffffffffffffffffffffffffffff1602179055508460088190555083600581905550826004819055506000821115611369576001600260146101000a81548160ff021916908315150217905550816007819055505b6000600a60009054906101000a900473ffffffffffffffffffffffffffffffffffffffff1673ffffffffffffffffffffffffffffffffffffffff1663313ce5676040518163ffffffff1660e01b815260040160206040518083038186803b1580156113d357600080fd5b505afa1580156113e7573d6000803e3d6000fd5b505050506040513d60208110156113fd57600080fd5b810190808051906020019092919050505060ff169050601e8110611489576040517f08c379a00000000000000000000000000000000000000000000000000000000081526004018080602001828103825260168152602001807f4d75737420626520696e666572696f7220746f2033300000000000000000000081525060200191505060405180910390fd5b61149d81601e61251b90919063ffffffff16565b600a0a6009819055506005546006819055506114b882611e64565b5050505050505050565b60085481565b60008060009054906101000a900473ffffffffffffffffffffffffffffffffffffffff16905090565b60035481565b600260149054906101000a900460ff1681565b6115126122a1565b73ffffffffffffffffffffffffffffffffffffffff166115306114c8565b73ffffffffffffffffffffffffffffffffffffffff16146115b9576040517f08c379a00000000000000000000000000000000000000000000000000000000081526004018080602001828103825260208152602001807f4f776e61626c653a2063616c6c6572206973206e6f7420746865206f776e657281525060200191505060405180910390fd5b6005544310611630576040517f08c379a00000000000000000000000000000000000000000000000000000000081526004018080602001828103825260108152602001807f506f6f6c2068617320737461727465640000000000000000000000000000000081525060200191505060405180910390fd5b808210611688576040517f08c379a000000000000000000000000000000000000000000000000000000000815260040180806020018281038252602e815260200180612bbe602e913960400191505060405180910390fd5b8143106116e0576040517f08c379a0000000000000000000000000000000000000000000000000000000008152600401808060200182810382526030815260200180612c126030913960400191505060405180910390fd5b81600581905550806004819055506005546006819055507f7cd0ab87d19036f3dfadadb232c78aa4879dda3f0c994a9d637532410ee2ce068282604051808381526020018281526020019250505060405180910390a15050565b6117426122a1565b73ffffffffffffffffffffffffffffffffffffffff166117606114c8565b73ffffffffffffffffffffffffffffffffffffffff16146117e9576040517f08c379a00000000000000000000000000000000000000000000000000000000081526004018080602001828103825260208152602001807f4f776e61626c653a2063616c6c6572206973206e6f7420746865206f776e657281525060200191505060405180910390fd5b600260149054906101000a900460ff1661186b576040517f08c379a000000000000000000000000000000000000000000000000000000000815260040180806020018281038252600b8152602001807f4d7573742062652073657400000000000000000000000000000000000000000081525060200191505060405180910390fd5b81156118f45760075481116118e8576040517f08c379a00000000000000000000000000000000000000000000000000000000081526004018080602001828103825260188152602001807f4e6577206c696d6974206d75737420626520686967686572000000000000000081525060200191505060405180910390fd5b80600781905550611917565b81600260146101000a81548160ff02191690831515021790555060006007819055505b7f241f67ee5f41b7a5cabf911367329be7215900f602ebfc47f89dce2a6bcd847c6007546040518082815260200191505060405180910390a15050565b60065481565b600260015414156119d3576040517f08c379a000000000000000000000000000000000000000000000000000000000815260040180806020018281038252601f8152602001807f5265656e7472616e637947756172643a207265656e7472616e742063616c6c0081525060200191505060405180910390fd5b60026001819055506000600c60003373ffffffffffffffffffffffffffffffffffffffff1673ffffffffffffffffffffffffffffffffffffffff1681526020019081526020016000209050600260149054906101000a900460ff1615611ac257600754611a4d82600001548461264090919063ffffffff16565b1115611ac1576040517f08c379a00000000000000000000000000000000000000000000000000000000081526004018080602001828103825260178152602001807f5573657220616d6f756e742061626f7665206c696d697400000000000000000081525060200191505060405180910390fd5b5b611aca6122a9565b600081600001541115611b77576000611b1c8260010154611b0e600954611b00600354876000015461240c90919063ffffffff16565b61249290919063ffffffff16565b61251b90919063ffffffff16565b90506000811115611b7557611b743382600a60009054906101000a900473ffffffffffffffffffffffffffffffffffffffff1673ffffffffffffffffffffffffffffffffffffffff1661259e9092919063ffffffff16565b5b505b6000821115611bef57611b9782826000015461264090919063ffffffff16565b8160000181905550611bee333084600b60009054906101000a900473ffffffffffffffffffffffffffffffffffffffff1673ffffffffffffffffffffffffffffffffffffffff166126c8909392919063ffffffff16565b5b611c1c600954611c0e600354846000015461240c90919063ffffffff16565b61249290919063ffffffff16565b81600101819055503373ffffffffffffffffffffffffffffffffffffffff167fe1fffcc4923d04b559f4d29a8bfc6cda04eb5b0d3c460751c2402c5c5cc9109c836040518082815260200191505060405180910390a2506001808190555050565b600260009054906101000a900473ffffffffffffffffffffffffffffffffffffffff1681565b600b60009054906101000a900473ffffffffffffffffffffffffffffffffffffffff1681565b60095481565b60026001541415611d48576040517f08c379a000000000000000000000000000000000000000000000000000000000815260040180806020018281038252601f8152602001807f5265656e7472616e637947756172643a207265656e7472616e742063616c6c0081525060200191505060405180910390fd5b60026001819055506000600c60003373ffffffffffffffffffffffffffffffffffffffff1673ffffffffffffffffffffffffffffffffffffffff168152602001908152602001600020905060008160000154905060008260000181905550600082600101819055506000811115611e0757611e063382600b60009054906101000a900473ffffffffffffffffffffffffffffffffffffffff1673ffffffffffffffffffffffffffffffffffffffff1661259e9092919063ffffffff16565b5b3373ffffffffffffffffffffffffffffffffffffffff167f5fafa99d0643513820be26656b45130b01e1c03062e1266bf36f88cbd3bd969583600001546040518082815260200191505060405180910390a2505060018081905550565b611e6c6122a1565b73ffffffffffffffffffffffffffffffffffffffff16611e8a6114c8565b73ffffffffffffffffffffffffffffffffffffffff1614611f13576040517f08c379a00000000000000000000000000000000000000000000000000000000081526004018080602001828103825260208152602001807f4f776e61626c653a2063616c6c6572206973206e6f7420746865206f776e657281525060200191505060405180910390fd5b600073ffffffffffffffffffffffffffffffffffffffff168173ffffffffffffffffffffffffffffffffffffffff161415611f99576040517f08c379a0000000000000000000000000000000000000000000000000000000008152600401808060200182810382526026815260200180612b986026913960400191505060405180910390fd5b8073ffffffffffffffffffffffffffffffffffffffff1660008054906101000a900473ffffffffffffffffffffffffffffffffffffffff1673ffffffffffffffffffffffffffffffffffffffff167f8be0079c531659141344cd1fd0a4f28419497f9722a3daafe3b4186f6b6457e060405160405180910390a3806000806101000a81548173ffffffffffffffffffffffffffffffffffffffff021916908373ffffffffffffffffffffffffffffffffffffffff16021790555050565b600080600c60008473ffffffffffffffffffffffffffffffffffffffff1673ffffffffffffffffffffffffffffffffffffffff16815260200190815260200160002090506000600b60009054906101000a900473ffffffffffffffffffffffffffffffffffffffff1673ffffffffffffffffffffffffffffffffffffffff166370a08231306040518263ffffffff1660e01b8152600401808273ffffffffffffffffffffffffffffffffffffffff16815260200191505060206040518083038186803b15801561212557600080fd5b505afa158015612139573d6000803e3d6000fd5b505050506040513d602081101561214f57600080fd5b8101908080519060200190929190505050905060065443118015612174575060008114155b1561222e57600061218760065443612789565b905060006121a06008548361240c90919063ffffffff16565b905060006121df6121ce856121c06009548661240c90919063ffffffff16565b61249290919063ffffffff16565b60035461264090919063ffffffff16565b90506122228560010154612214600954612206858a6000015461240c90919063ffffffff16565b61249290919063ffffffff16565b61251b90919063ffffffff16565b95505050505050612276565b6122718260010154612263600954612255600354876000015461240c90919063ffffffff16565b61249290919063ffffffff16565b61251b90919063ffffffff16565b925050505b919050565b600a60009054906101000a900473ffffffffffffffffffffffffffffffffffffffff1681565b600033905090565b60065443116122b75761240a565b6000600b60009054906101000a900473ffffffffffffffffffffffffffffffffffffffff1673ffffffffffffffffffffffffffffffffffffffff166370a08231306040518263ffffffff1660e01b8152600401808273ffffffffffffffffffffffffffffffffffffffff16815260200191505060206040518083038186803b15801561234257600080fd5b505afa158015612356573d6000803e3d6000fd5b505050506040513d602081101561236c57600080fd5b81019080805190602001909291905050509050600081141561239557436006819055505061240a565b60006123a360065443612789565b905060006123bc6008548361240c90919063ffffffff16565b90506123f96123e8846123da6009548561240c90919063ffffffff16565b61249290919063ffffffff16565b60035461264090919063ffffffff16565b600381905550436006819055505050505b565b60008083141561241f576000905061248c565b600082840290508284828161243057fe5b0414612487576040517f08c379a0000000000000000000000000000000000000000000000000000000008152600401808060200182810382526021815260200180612c426021913960400191505060405180910390fd5b809150505b92915050565b6000808211612509576040517f08c379a000000000000000000000000000000000000000000000000000000000815260040180806020018281038252601a8152602001807f536166654d6174683a206469766973696f6e206279207a65726f00000000000081525060200191505060405180910390fd5b81838161251257fe5b04905092915050565b600082821115612593576040517f08c379a000000000000000000000000000000000000000000000000000000000815260040180806020018281038252601e8152602001807f536166654d6174683a207375627472616374696f6e206f766572666c6f77000081525060200191505060405180910390fd5b818303905092915050565b61263b8363a9059cbb60e01b8484604051602401808373ffffffffffffffffffffffffffffffffffffffff16815260200182815260200192505050604051602081830303815290604052907bffffffffffffffffffffffffffffffffffffffffffffffffffffffff19166020820180517bffffffffffffffffffffffffffffffffffffffffffffffffffffffff83818316178352505050506127de565b505050565b6000808284019050838110156126be576040517f08c379a000000000000000000000000000000000000000000000000000000000815260040180806020018281038252601b8152602001807f536166654d6174683a206164646974696f6e206f766572666c6f77000000000081525060200191505060405180910390fd5b8091505092915050565b612783846323b872dd60e01b858585604051602401808473ffffffffffffffffffffffffffffffffffffffff1681526020018373ffffffffffffffffffffffffffffffffffffffff1681526020018281526020019350505050604051602081830303815290604052907bffffffffffffffffffffffffffffffffffffffffffffffffffffffff19166020820180517bffffffffffffffffffffffffffffffffffffffffffffffffffffffff83818316178352505050506127de565b50505050565b600060045482116127ae576127a7838361251b90919063ffffffff16565b90506127d8565b60045483106127c057600090506127d8565b6127d58360045461251b90919063ffffffff16565b90505b92915050565b6060612840826040518060400160405280602081526020017f5361666542455032303a206c6f772d6c6576656c2063616c6c206661696c65648152508573ffffffffffffffffffffffffffffffffffffffff166128cd9092919063ffffffff16565b90506000815111156128c85780806020019051602081101561286157600080fd5b81019080805190602001909291905050506128c7576040517f08c379a000000000000000000000000000000000000000000000000000000000815260040180806020018281038252602a815260200180612b6e602a913960400191505060405180910390fd5b5b505050565b60606128dc84846000856128e5565b90509392505050565b606082471015612940576040517f08c379a0000000000000000000000000000000000000000000000000000000008152600401808060200182810382526026815260200180612bec6026913960400191505060405180910390fd5b61294985612a8e565b6129bb576040517f08c379a000000000000000000000000000000000000000000000000000000000815260040180806020018281038252601d8152602001807f416464726573733a2063616c6c20746f206e6f6e2d636f6e747261637400000081525060200191505060405180910390fd5b600060608673ffffffffffffffffffffffffffffffffffffffff1685876040518082805190602001908083835b60208310612a0b57805182526020820191506020810190506020830392506129e8565b6001836020036101000a03801982511681845116808217855250505050505090500191505060006040518083038185875af1925050503d8060008114612a6d576040519150601f19603f3d011682016040523d82523d6000602084013e612a72565b606091505b5091509150612a82828286612aa1565b92505050949350505050565b600080823b905060008111915050919050565b60608315612ab157829050612b66565b600083511115612ac45782518084602001fd5b816040517f08c379a00000000000000000000000000000000000000000000000000000000081526004018080602001828103825283818151815260200191508051906020019080838360005b83811015612b2b578082015181840152602081019050612b10565b50505050905090810190601f168015612b585780820380516001836020036101000a031916815260200191505b509250505060405180910390fd5b939250505056fe5361666542455032303a204245503230206f7065726174696f6e20646964206e6f7420737563636565644f776e61626c653a206e6577206f776e657220697320746865207a65726f20616464726573734e6577207374617274426c6f636b206d757374206265206c6f776572207468616e206e657720656e64426c6f636b416464726573733a20696e73756666696369656e742062616c616e636520666f722063616c6c4e6577207374617274426c6f636b206d75737420626520686967686572207468616e2063757272656e7420626c6f636b536166654d6174683a206d756c7469706c69636174696f6e206f766572666c6f77a264697066735822122064cbdd58853dea9f547fa56609930eefd6a5b7189933b1b68d0575bf49aa607064736f6c634300060c00334f776e61626c653a206e6577206f776e657220697320746865207a65726f2061646472657373a26469706673582212204d918cede36212b2a149c935764b61b84d810692f68856433e9fab69b1b7e4e264736f6c634300060c0033",
					"opcodes": "PUSH1 0x80 PUSH1 0x40 MSTORE CALLVALUE DUP1 ISZERO PUSH2 0x10 JUMPI PUSH1 0x0 DUP1 REVERT JUMPDEST POP PUSH1 0x0 PUSH2 0x21 PUSH2 0xC4 PUSH1 0x20 SHL PUSH1 0x20 SHR JUMP JUMPDEST SWAP1 POP DUP1 PUSH1 0x0 DUP1 PUSH2 0x100 EXP DUP2 SLOAD DUP2 PUSH20 0xFFFFFFFFFFFFFFFFFFFFFFFFFFFFFFFFFFFFFFFF MUL NOT AND SWAP1 DUP4 PUSH20 0xFFFFFFFFFFFFFFFFFFFFFFFFFFFFFFFFFFFFFFFF AND MUL OR SWAP1 SSTORE POP DUP1 PUSH20 0xFFFFFFFFFFFFFFFFFFFFFFFFFFFFFFFFFFFFFFFF AND PUSH1 0x0 PUSH20 0xFFFFFFFFFFFFFFFFFFFFFFFFFFFFFFFFFFFFFFFF AND PUSH32 0x8BE0079C531659141344CD1FD0A4F28419497F9722A3DAAFE3B4186F6B6457E0 PUSH1 0x40 MLOAD PUSH1 0x40 MLOAD DUP1 SWAP2 SUB SWAP1 LOG3 POP PUSH2 0xCC JUMP JUMPDEST PUSH1 0x0 CALLER SWAP1 POP SWAP1 JUMP JUMPDEST PUSH2 0x36CE DUP1 PUSH2 0xDB PUSH1 0x0 CODECOPY PUSH1 0x0 RETURN INVALID PUSH1 0x80 PUSH1 0x40 MSTORE CALLVALUE DUP1 ISZERO PUSH2 0x10 JUMPI PUSH1 0x0 DUP1 REVERT JUMPDEST POP PUSH1 0x4 CALLDATASIZE LT PUSH2 0x4C JUMPI PUSH1 0x0 CALLDATALOAD PUSH1 0xE0 SHR DUP1 PUSH4 0x715018A6 EQ PUSH2 0x51 JUMPI DUP1 PUSH4 0x8DA5CB5B EQ PUSH2 0x5B JUMPI DUP1 PUSH4 0xCC8402F5 EQ PUSH2 0x8F JUMPI DUP1 PUSH4 0xF2FDE38B EQ PUSH2 0x13B JUMPI JUMPDEST PUSH1 0x0 DUP1 REVERT JUMPDEST PUSH2 0x59 PUSH2 0x17F JUMP JUMPDEST STOP JUMPDEST PUSH2 0x63 PUSH2 0x2EC JUMP JUMPDEST PUSH1 0x40 MLOAD DUP1 DUP3 PUSH20 0xFFFFFFFFFFFFFFFFFFFFFFFFFFFFFFFFFFFFFFFF AND DUP2 MSTORE PUSH1 0x20 ADD SWAP2 POP POP PUSH1 0x40 MLOAD DUP1 SWAP2 SUB SWAP1 RETURN JUMPDEST PUSH2 0x139 PUSH1 0x4 DUP1 CALLDATASIZE SUB PUSH1 0xE0 DUP2 LT ISZERO PUSH2 0xA5 JUMPI PUSH1 0x0 DUP1 REVERT JUMPDEST DUP2 ADD SWAP1 DUP1 DUP1 CALLDATALOAD PUSH20 0xFFFFFFFFFFFFFFFFFFFFFFFFFFFFFFFFFFFFFFFF AND SWAP1 PUSH1 0x20 ADD SWAP1 SWAP3 SWAP2 SWAP1 DUP1 CALLDATALOAD PUSH20 0xFFFFFFFFFFFFFFFFFFFFFFFFFFFFFFFFFFFFFFFF AND SWAP1 PUSH1 0x20 ADD SWAP1 SWAP3 SWAP2 SWAP1 DUP1 CALLDATALOAD SWAP1 PUSH1 0x20 ADD SWAP1 SWAP3 SWAP2 SWAP1 DUP1 CALLDATALOAD SWAP1 PUSH1 0x20 ADD SWAP1 SWAP3 SWAP2 SWAP1 DUP1 CALLDATALOAD SWAP1 PUSH1 0x20 ADD SWAP1 SWAP3 SWAP2 SWAP1 DUP1 CALLDATALOAD SWAP1 PUSH1 0x20 ADD SWAP1 SWAP3 SWAP2 SWAP1 DUP1 CALLDATALOAD PUSH20 0xFFFFFFFFFFFFFFFFFFFFFFFFFFFFFFFFFFFFFFFF AND SWAP1 PUSH1 0x20 ADD SWAP1 SWAP3 SWAP2 SWAP1 POP POP POP PUSH2 0x315 JUMP JUMPDEST STOP JUMPDEST PUSH2 0x17D PUSH1 0x4 DUP1 CALLDATASIZE SUB PUSH1 0x20 DUP2 LT ISZERO PUSH2 0x151 JUMPI PUSH1 0x0 DUP1 REVERT JUMPDEST DUP2 ADD SWAP1 DUP1 DUP1 CALLDATALOAD PUSH20 0xFFFFFFFFFFFFFFFFFFFFFFFFFFFFFFFFFFFFFFFF AND SWAP1 PUSH1 0x20 ADD SWAP1 SWAP3 SWAP2 SWAP1 POP POP POP PUSH2 0x6AF JUMP JUMPDEST STOP JUMPDEST PUSH2 0x187 PUSH2 0x8A1 JUMP JUMPDEST PUSH20 0xFFFFFFFFFFFFFFFFFFFFFFFFFFFFFFFFFFFFFFFF AND PUSH2 0x1A5 PUSH2 0x2EC JUMP JUMPDEST PUSH20 0xFFFFFFFFFFFFFFFFFFFFFFFFFFFFFFFFFFFFFFFF AND EQ PUSH2 0x22E JUMPI PUSH1 0x40 MLOAD PUSH32 0x8C379A000000000000000000000000000000000000000000000000000000000 DUP2 MSTORE PUSH1 0x4 ADD DUP1 DUP1 PUSH1 0x20 ADD DUP3 DUP2 SUB DUP3 MSTORE PUSH1 0x20 DUP2 MSTORE PUSH1 0x20 ADD DUP1 PUSH32 0x4F776E61626C653A2063616C6C6572206973206E6F7420746865206F776E6572 DUP2 MSTORE POP PUSH1 0x20 ADD SWAP2 POP POP PUSH1 0x40 MLOAD DUP1 SWAP2 SUB SWAP1 REVERT JUMPDEST PUSH1 0x0 PUSH20 0xFFFFFFFFFFFFFFFFFFFFFFFFFFFFFFFFFFFFFFFF AND PUSH1 0x0 DUP1 SLOAD SWAP1 PUSH2 0x100 EXP SWAP1 DIV PUSH20 0xFFFFFFFFFFFFFFFFFFFFFFFFFFFFFFFFFFFFFFFF AND PUSH20 0xFFFFFFFFFFFFFFFFFFFFFFFFFFFFFFFFFFFFFFFF AND PUSH32 0x8BE0079C531659141344CD1FD0A4F28419497F9722A3DAAFE3B4186F6B6457E0 PUSH1 0x40 MLOAD PUSH1 0x40 MLOAD DUP1 SWAP2 SUB SWAP1 LOG3 PUSH1 0x0 DUP1 PUSH1 0x0 PUSH2 0x100 EXP DUP2 SLOAD DUP2 PUSH20 0xFFFFFFFFFFFFFFFFFFFFFFFFFFFFFFFFFFFFFFFF MUL NOT AND SWAP1 DUP4 PUSH20 0xFFFFFFFFFFFFFFFFFFFFFFFFFFFFFFFFFFFFFFFF AND MUL OR SWAP1 SSTORE POP JUMP JUMPDEST PUSH1 0x0 DUP1 PUSH1 0x0 SWAP1 SLOAD SWAP1 PUSH2 0x100 EXP SWAP1 DIV PUSH20 0xFFFFFFFFFFFFFFFFFFFFFFFFFFFFFFFFFFFFFFFF AND SWAP1 POP SWAP1 JUMP JUMPDEST PUSH2 0x31D PUSH2 0x8A1 JUMP JUMPDEST PUSH20 0xFFFFFFFFFFFFFFFFFFFFFFFFFFFFFFFFFFFFFFFF AND PUSH2 0x33B PUSH2 0x2EC JUMP JUMPDEST PUSH20 0xFFFFFFFFFFFFFFFFFFFFFFFFFFFFFFFFFFFFFFFF AND EQ PUSH2 0x3C4 JUMPI PUSH1 0x40 MLOAD PUSH32 0x8C379A000000000000000000000000000000000000000000000000000000000 DUP2 MSTORE PUSH1 0x4 ADD DUP1 DUP1 PUSH1 0x20 ADD DUP3 DUP2 SUB DUP3 MSTORE PUSH1 0x20 DUP2 MSTORE PUSH1 0x20 ADD DUP1 PUSH32 0x4F776E61626C653A2063616C6C6572206973206E6F7420746865206F776E6572 DUP2 MSTORE POP PUSH1 0x20 ADD SWAP2 POP POP PUSH1 0x40 MLOAD DUP1 SWAP2 SUB SWAP1 REVERT JUMPDEST PUSH1 0x0 DUP8 PUSH20 0xFFFFFFFFFFFFFFFFFFFFFFFFFFFFFFFFFFFFFFFF AND PUSH4 0x18160DDD PUSH1 0x40 MLOAD DUP2 PUSH4 0xFFFFFFFF AND PUSH1 0xE0 SHL DUP2 MSTORE PUSH1 0x4 ADD PUSH1 0x20 PUSH1 0x40 MLOAD DUP1 DUP4 SUB DUP2 DUP7 DUP1 EXTCODESIZE ISZERO DUP1 ISZERO PUSH2 0x40C JUMPI PUSH1 0x0 DUP1 REVERT JUMPDEST POP GAS STATICCALL ISZERO DUP1 ISZERO PUSH2 0x420 JUMPI RETURNDATASIZE PUSH1 0x0 DUP1 RETURNDATACOPY RETURNDATASIZE PUSH1 0x0 REVERT JUMPDEST POP POP POP POP PUSH1 0x40 MLOAD RETURNDATASIZE PUSH1 0x20 DUP2 LT ISZERO PUSH2 0x436 JUMPI PUSH1 0x0 DUP1 REVERT JUMPDEST DUP2 ADD SWAP1 DUP1 DUP1 MLOAD SWAP1 PUSH1 0x20 ADD SWAP1 SWAP3 SWAP2 SWAP1 POP POP POP LT ISZERO PUSH2 0x452 JUMPI PUSH1 0x0 DUP1 REVERT JUMPDEST PUSH1 0x0 DUP7 PUSH20 0xFFFFFFFFFFFFFFFFFFFFFFFFFFFFFFFFFFFFFFFF AND PUSH4 0x18160DDD PUSH1 0x40 MLOAD DUP2 PUSH4 0xFFFFFFFF AND PUSH1 0xE0 SHL DUP2 MSTORE PUSH1 0x4 ADD PUSH1 0x20 PUSH1 0x40 MLOAD DUP1 DUP4 SUB DUP2 DUP7 DUP1 EXTCODESIZE ISZERO DUP1 ISZERO PUSH2 0x49A JUMPI PUSH1 0x0 DUP1 REVERT JUMPDEST POP GAS STATICCALL ISZERO DUP1 ISZERO PUSH2 0x4AE JUMPI RETURNDATASIZE PUSH1 0x0 DUP1 RETURNDATACOPY RETURNDATASIZE PUSH1 0x0 REVERT JUMPDEST POP POP POP POP PUSH1 0x40 MLOAD RETURNDATASIZE PUSH1 0x20 DUP2 LT ISZERO PUSH2 0x4C4 JUMPI PUSH1 0x0 DUP1 REVERT JUMPDEST DUP2 ADD SWAP1 DUP1 DUP1 MLOAD SWAP1 PUSH1 0x20 ADD SWAP1 SWAP3 SWAP2 SWAP1 POP POP POP LT ISZERO PUSH2 0x4E0 JUMPI PUSH1 0x0 DUP1 REVERT JUMPDEST PUSH1 0x60 PUSH1 0x40 MLOAD DUP1 PUSH1 0x20 ADD PUSH2 0x4F2 SWAP1 PUSH2 0x8A9 JUMP JUMPDEST PUSH1 0x20 DUP3 ADD DUP2 SUB DUP3 MSTORE PUSH1 0x1F NOT PUSH1 0x1F DUP3 ADD AND PUSH1 0x40 MSTORE POP SWAP1 POP PUSH1 0x0 DUP9 DUP9 DUP8 PUSH1 0x40 MLOAD PUSH1 0x20 ADD DUP1 DUP5 PUSH20 0xFFFFFFFFFFFFFFFFFFFFFFFFFFFFFFFFFFFFFFFF AND PUSH1 0x60 SHL DUP2 MSTORE PUSH1 0x14 ADD DUP4 PUSH20 0xFFFFFFFFFFFFFFFFFFFFFFFFFFFFFFFFFFFFFFFF AND PUSH1 0x60 SHL DUP2 MSTORE PUSH1 0x14 ADD DUP3 DUP2 MSTORE PUSH1 0x20 ADD SWAP4 POP POP POP POP PUSH1 0x40 MLOAD PUSH1 0x20 DUP2 DUP4 SUB SUB DUP2 MSTORE SWAP1 PUSH1 0x40 MSTORE DUP1 MLOAD SWAP1 PUSH1 0x20 ADD KECCAK256 SWAP1 POP PUSH1 0x0 DUP2 DUP4 MLOAD PUSH1 0x20 DUP6 ADD PUSH1 0x0 CREATE2 SWAP1 POP DUP1 PUSH20 0xFFFFFFFFFFFFFFFFFFFFFFFFFFFFFFFFFFFFFFFF AND PUSH4 0x83A5041C DUP12 DUP12 DUP12 DUP12 DUP12 DUP12 DUP12 PUSH1 0x40 MLOAD DUP9 PUSH4 0xFFFFFFFF AND PUSH1 0xE0 SHL DUP2 MSTORE PUSH1 0x4 ADD DUP1 DUP9 PUSH20 0xFFFFFFFFFFFFFFFFFFFFFFFFFFFFFFFFFFFFFFFF AND DUP2 MSTORE PUSH1 0x20 ADD DUP8 PUSH20 0xFFFFFFFFFFFFFFFFFFFFFFFFFFFFFFFFFFFFFFFF AND DUP2 MSTORE PUSH1 0x20 ADD DUP7 DUP2 MSTORE PUSH1 0x20 ADD DUP6 DUP2 MSTORE PUSH1 0x20 ADD DUP5 DUP2 MSTORE PUSH1 0x20 ADD DUP4 DUP2 MSTORE PUSH1 0x20 ADD DUP3 PUSH20 0xFFFFFFFFFFFFFFFFFFFFFFFFFFFFFFFFFFFFFFFF AND DUP2 MSTORE PUSH1 0x20 ADD SWAP8 POP POP POP POP POP POP POP POP PUSH1 0x0 PUSH1 0x40 MLOAD DUP1 DUP4 SUB DUP2 PUSH1 0x0 DUP8 DUP1 EXTCODESIZE ISZERO DUP1 ISZERO PUSH2 0x648 JUMPI PUSH1 0x0 DUP1 REVERT JUMPDEST POP GAS CALL ISZERO DUP1 ISZERO PUSH2 0x65C JUMPI RETURNDATASIZE PUSH1 0x0 DUP1 RETURNDATACOPY RETURNDATASIZE PUSH1 0x0 REVERT JUMPDEST POP POP POP POP DUP1 PUSH20 0xFFFFFFFFFFFFFFFFFFFFFFFFFFFFFFFFFFFFFFFF AND PUSH32 0xE0D103A92C6FF6C4ACEB49D436F4028E0DEB4884FDBCB9F32B03045EABB44A6C PUSH1 0x40 MLOAD PUSH1 0x40 MLOAD DUP1 SWAP2 SUB SWAP1 LOG2 POP POP POP POP POP POP POP POP POP POP JUMP JUMPDEST PUSH2 0x6B7 PUSH2 0x8A1 JUMP JUMPDEST PUSH20 0xFFFFFFFFFFFFFFFFFFFFFFFFFFFFFFFFFFFFFFFF AND PUSH2 0x6D5 PUSH2 0x2EC JUMP JUMPDEST PUSH20 0xFFFFFFFFFFFFFFFFFFFFFFFFFFFFFFFFFFFFFFFF AND EQ PUSH2 0x75E JUMPI PUSH1 0x40 MLOAD PUSH32 0x8C379A000000000000000000000000000000000000000000000000000000000 DUP2 MSTORE PUSH1 0x4 ADD DUP1 DUP1 PUSH1 0x20 ADD DUP3 DUP2 SUB DUP3 MSTORE PUSH1 0x20 DUP2 MSTORE PUSH1 0x20 ADD DUP1 PUSH32 0x4F776E61626C653A2063616C6C6572206973206E6F7420746865206F776E6572 DUP2 MSTORE POP PUSH1 0x20 ADD SWAP2 POP POP PUSH1 0x40 MLOAD DUP1 SWAP2 SUB SWAP1 REVERT JUMPDEST PUSH1 0x0 PUSH20 0xFFFFFFFFFFFFFFFFFFFFFFFFFFFFFFFFFFFFFFFF AND DUP2 PUSH20 0xFFFFFFFFFFFFFFFFFFFFFFFFFFFFFFFFFFFFFFFF AND EQ ISZERO PUSH2 0x7E4 JUMPI PUSH1 0x40 MLOAD PUSH32 0x8C379A000000000000000000000000000000000000000000000000000000000 DUP2 MSTORE PUSH1 0x4 ADD DUP1 DUP1 PUSH1 0x20 ADD DUP3 DUP2 SUB DUP3 MSTORE PUSH1 0x26 DUP2 MSTORE PUSH1 0x20 ADD DUP1 PUSH2 0x3673 PUSH1 0x26 SWAP2 CODECOPY PUSH1 0x40 ADD SWAP2 POP POP PUSH1 0x40 MLOAD DUP1 SWAP2 SUB SWAP1 REVERT JUMPDEST DUP1 PUSH20 0xFFFFFFFFFFFFFFFFFFFFFFFFFFFFFFFFFFFFFFFF AND PUSH1 0x0 DUP1 SLOAD SWAP1 PUSH2 0x100 EXP SWAP1 DIV PUSH20 0xFFFFFFFFFFFFFFFFFFFFFFFFFFFFFFFFFFFFFFFF AND PUSH20 0xFFFFFFFFFFFFFFFFFFFFFFFFFFFFFFFFFFFFFFFF AND PUSH32 0x8BE0079C531659141344CD1FD0A4F28419497F9722A3DAAFE3B4186F6B6457E0 PUSH1 0x40 MLOAD PUSH1 0x40 MLOAD DUP1 SWAP2 SUB SWAP1 LOG3 DUP1 PUSH1 0x0 DUP1 PUSH2 0x100 EXP DUP2 SLOAD DUP2 PUSH20 0xFFFFFFFFFFFFFFFFFFFFFFFFFFFFFFFFFFFFFFFF MUL NOT AND SWAP1 DUP4 PUSH20 0xFFFFFFFFFFFFFFFFFFFFFFFFFFFFFFFFFFFFFFFF AND MUL OR SWAP1 SSTORE POP POP JUMP JUMPDEST PUSH1 0x0 CALLER SWAP1 POP SWAP1 JUMP JUMPDEST PUSH2 0x2DBC DUP1 PUSH2 0x8B7 DUP4 CODECOPY ADD SWAP1 JUMP INVALID PUSH1 0x80 PUSH1 0x40 MSTORE CALLVALUE DUP1 ISZERO PUSH2 0x10 JUMPI PUSH1 0x0 DUP1 REVERT JUMPDEST POP PUSH1 0x0 PUSH2 0x21 PUSH2 0x10C PUSH1 0x20 SHL PUSH1 0x20 SHR JUMP JUMPDEST SWAP1 POP DUP1 PUSH1 0x0 DUP1 PUSH2 0x100 EXP DUP2 SLOAD DUP2 PUSH20 0xFFFFFFFFFFFFFFFFFFFFFFFFFFFFFFFFFFFFFFFF MUL NOT AND SWAP1 DUP4 PUSH20 0xFFFFFFFFFFFFFFFFFFFFFFFFFFFFFFFFFFFFFFFF AND MUL OR SWAP1 SSTORE POP DUP1 PUSH20 0xFFFFFFFFFFFFFFFFFFFFFFFFFFFFFFFFFFFFFFFF AND PUSH1 0x0 PUSH20 0xFFFFFFFFFFFFFFFFFFFFFFFFFFFFFFFFFFFFFFFF AND PUSH32 0x8BE0079C531659141344CD1FD0A4F28419497F9722A3DAAFE3B4186F6B6457E0 PUSH1 0x40 MLOAD PUSH1 0x40 MLOAD DUP1 SWAP2 SUB SWAP1 LOG3 POP PUSH1 0x1 DUP1 DUP2 SWAP1 SSTORE POP CALLER PUSH1 0x2 PUSH1 0x0 PUSH2 0x100 EXP DUP2 SLOAD DUP2 PUSH20 0xFFFFFFFFFFFFFFFFFFFFFFFFFFFFFFFFFFFFFFFF MUL NOT AND SWAP1 DUP4 PUSH20 0xFFFFFFFFFFFFFFFFFFFFFFFFFFFFFFFFFFFFFFFF AND MUL OR SWAP1 SSTORE POP PUSH2 0x114 JUMP JUMPDEST PUSH1 0x0 CALLER SWAP1 POP SWAP1 JUMP JUMPDEST PUSH2 0x2C98 DUP1 PUSH3 0x124 PUSH1 0x0 CODECOPY PUSH1 0x0 RETURN INVALID PUSH1 0x80 PUSH1 0x40 MSTORE CALLVALUE DUP1 ISZERO PUSH2 0x10 JUMPI PUSH1 0x0 DUP1 REVERT JUMPDEST POP PUSH1 0x4 CALLDATASIZE LT PUSH2 0x1A9 JUMPI PUSH1 0x0 CALLDATALOAD PUSH1 0xE0 SHR DUP1 PUSH4 0x8DA5CB5B GT PUSH2 0xF9 JUMPI DUP1 PUSH4 0xBD617191 GT PUSH2 0x97 JUMPI DUP1 PUSH4 0xDB2E21BC GT PUSH2 0x71 JUMPI DUP1 PUSH4 0xDB2E21BC EQ PUSH2 0x5F3 JUMPI DUP1 PUSH4 0xF2FDE38B EQ PUSH2 0x5FD JUMPI DUP1 PUSH4 0xF40F0F52 EQ PUSH2 0x641 JUMPI DUP1 PUSH4 0xF7C618C1 EQ PUSH2 0x699 JUMPI PUSH2 0x1A9 JUMP JUMPDEST DUP1 PUSH4 0xBD617191 EQ PUSH2 0x56D JUMPI DUP1 PUSH4 0xCC7A262E EQ PUSH2 0x5A1 JUMPI DUP1 PUSH4 0xCCD34CD5 EQ PUSH2 0x5D5 JUMPI PUSH2 0x1A9 JUMP JUMPDEST DUP1 PUSH4 0x9513997F GT PUSH2 0xD3 JUMPI DUP1 PUSH4 0x9513997F EQ PUSH2 0x4AF JUMPI DUP1 PUSH4 0xA0B40905 EQ PUSH2 0x4E7 JUMPI DUP1 PUSH4 0xA9F8D181 EQ PUSH2 0x521 JUMPI DUP1 PUSH4 0xB6B55F25 EQ PUSH2 0x53F JUMPI PUSH2 0x1A9 JUMP JUMPDEST DUP1 PUSH4 0x8DA5CB5B EQ PUSH2 0x43D JUMPI DUP1 PUSH4 0x8F662915 EQ PUSH2 0x471 JUMPI DUP1 PUSH4 0x92E8990E EQ PUSH2 0x48F JUMPI PUSH2 0x1A9 JUMP JUMPDEST DUP1 PUSH4 0x3F138D4B GT PUSH2 0x166 JUMPI DUP1 PUSH4 0x715018A6 GT PUSH2 0x140 JUMPI DUP1 PUSH4 0x715018A6 EQ PUSH2 0x35F JUMPI DUP1 PUSH4 0x80DC0672 EQ PUSH2 0x369 JUMPI DUP1 PUSH4 0x83A5041C EQ PUSH2 0x373 JUMPI DUP1 PUSH4 0x8AE39CAC EQ PUSH2 0x41F JUMPI PUSH2 0x1A9 JUMP JUMPDEST DUP1 PUSH4 0x3F138D4B EQ PUSH2 0x2D5 JUMPI DUP1 PUSH4 0x48CD4CB1 EQ PUSH2 0x323 JUMPI DUP1 PUSH4 0x66FE9F8A EQ PUSH2 0x341 JUMPI PUSH2 0x1A9 JUMP JUMPDEST DUP1 PUSH4 0x1F8A976 EQ PUSH2 0x1AE JUMPI DUP1 PUSH4 0x1959A002 EQ PUSH2 0x1DC JUMPI DUP1 PUSH4 0x1AED6553 EQ PUSH2 0x23B JUMPI DUP1 PUSH4 0x2E1A7D4D EQ PUSH2 0x259 JUMPI DUP1 PUSH4 0x3279BEAB EQ PUSH2 0x287 JUMPI DUP1 PUSH4 0x392E53CD EQ PUSH2 0x2B5 JUMPI JUMPDEST PUSH1 0x0 DUP1 REVERT JUMPDEST PUSH2 0x1DA PUSH1 0x4 DUP1 CALLDATASIZE SUB PUSH1 0x20 DUP2 LT ISZERO PUSH2 0x1C4 JUMPI PUSH1 0x0 DUP1 REVERT JUMPDEST DUP2 ADD SWAP1 DUP1 DUP1 CALLDATALOAD SWAP1 PUSH1 0x20 ADD SWAP1 SWAP3 SWAP2 SWAP1 POP POP POP PUSH2 0x6CD JUMP JUMPDEST STOP JUMPDEST PUSH2 0x21E PUSH1 0x4 DUP1 CALLDATASIZE SUB PUSH1 0x20 DUP2 LT ISZERO PUSH2 0x1F2 JUMPI PUSH1 0x0 DUP1 REVERT JUMPDEST DUP2 ADD SWAP1 DUP1 DUP1 CALLDATALOAD PUSH20 0xFFFFFFFFFFFFFFFFFFFFFFFFFFFFFFFFFFFFFFFF AND SWAP1 PUSH1 0x20 ADD SWAP1 SWAP3 SWAP2 SWAP1 POP POP POP PUSH2 0x834 JUMP JUMPDEST PUSH1 0x40 MLOAD DUP1 DUP4 DUP2 MSTORE PUSH1 0x20 ADD DUP3 DUP2 MSTORE PUSH1 0x20 ADD SWAP3 POP POP POP PUSH1 0x40 MLOAD DUP1 SWAP2 SUB SWAP1 RETURN JUMPDEST PUSH2 0x243 PUSH2 0x858 JUMP JUMPDEST PUSH1 0x40 MLOAD DUP1 DUP3 DUP2 MSTORE PUSH1 0x20 ADD SWAP2 POP POP PUSH1 0x40 MLOAD DUP1 SWAP2 SUB SWAP1 RETURN JUMPDEST PUSH2 0x285 PUSH1 0x4 DUP1 CALLDATASIZE SUB PUSH1 0x20 DUP2 LT ISZERO PUSH2 0x26F JUMPI PUSH1 0x0 DUP1 REVERT JUMPDEST DUP2 ADD SWAP1 DUP1 DUP1 CALLDATALOAD SWAP1 PUSH1 0x20 ADD SWAP1 SWAP3 SWAP2 SWAP1 POP POP POP PUSH2 0x85E JUMP JUMPDEST STOP JUMPDEST PUSH2 0x2B3 PUSH1 0x4 DUP1 CALLDATASIZE SUB PUSH1 0x20 DUP2 LT ISZERO PUSH2 0x29D JUMPI PUSH1 0x0 DUP1 REVERT JUMPDEST DUP2 ADD SWAP1 DUP1 DUP1 CALLDATALOAD SWAP1 PUSH1 0x20 ADD SWAP1 SWAP3 SWAP2 SWAP1 POP POP POP PUSH2 0xB47 JUMP JUMPDEST STOP JUMPDEST PUSH2 0x2BD PUSH2 0xC46 JUMP JUMPDEST PUSH1 0x40 MLOAD DUP1 DUP3 ISZERO ISZERO DUP2 MSTORE PUSH1 0x20 ADD SWAP2 POP POP PUSH1 0x40 MLOAD DUP1 SWAP2 SUB SWAP1 RETURN JUMPDEST PUSH2 0x321 PUSH1 0x4 DUP1 CALLDATASIZE SUB PUSH1 0x40 DUP2 LT ISZERO PUSH2 0x2EB JUMPI PUSH1 0x0 DUP1 REVERT JUMPDEST DUP2 ADD SWAP1 DUP1 DUP1 CALLDATALOAD PUSH20 0xFFFFFFFFFFFFFFFFFFFFFFFFFFFFFFFFFFFFFFFF AND SWAP1 PUSH1 0x20 ADD SWAP1 SWAP3 SWAP2 SWAP1 DUP1 CALLDATALOAD SWAP1 PUSH1 0x20 ADD SWAP1 SWAP3 SWAP2 SWAP1 POP POP POP PUSH2 0xC59 JUMP JUMPDEST STOP JUMPDEST PUSH2 0x32B PUSH2 0xF14 JUMP JUMPDEST PUSH1 0x40 MLOAD DUP1 DUP3 DUP2 MSTORE PUSH1 0x20 ADD SWAP2 POP POP PUSH1 0x40 MLOAD DUP1 SWAP2 SUB SWAP1 RETURN JUMPDEST PUSH2 0x349 PUSH2 0xF1A JUMP JUMPDEST PUSH1 0x40 MLOAD DUP1 DUP3 DUP2 MSTORE PUSH1 0x20 ADD SWAP2 POP POP PUSH1 0x40 MLOAD DUP1 SWAP2 SUB SWAP1 RETURN JUMPDEST PUSH2 0x367 PUSH2 0xF20 JUMP JUMPDEST STOP JUMPDEST PUSH2 0x371 PUSH2 0x108D JUMP JUMPDEST STOP JUMPDEST PUSH2 0x41D PUSH1 0x4 DUP1 CALLDATASIZE SUB PUSH1 0xE0 DUP2 LT ISZERO PUSH2 0x389 JUMPI PUSH1 0x0 DUP1 REVERT JUMPDEST DUP2 ADD SWAP1 DUP1 DUP1 CALLDATALOAD PUSH20 0xFFFFFFFFFFFFFFFFFFFFFFFFFFFFFFFFFFFFFFFF AND SWAP1 PUSH1 0x20 ADD SWAP1 SWAP3 SWAP2 SWAP1 DUP1 CALLDATALOAD PUSH20 0xFFFFFFFFFFFFFFFFFFFFFFFFFFFFFFFFFFFFFFFF AND SWAP1 PUSH1 0x20 ADD SWAP1 SWAP3 SWAP2 SWAP1 DUP1 CALLDATALOAD SWAP1 PUSH1 0x20 ADD SWAP1 SWAP3 SWAP2 SWAP1 DUP1 CALLDATALOAD SWAP1 PUSH1 0x20 ADD SWAP1 SWAP3 SWAP2 SWAP1 DUP1 CALLDATALOAD SWAP1 PUSH1 0x20 ADD SWAP1 SWAP3 SWAP2 SWAP1 DUP1 CALLDATALOAD SWAP1 PUSH1 0x20 ADD SWAP1 SWAP3 SWAP2 SWAP1 DUP1 CALLDATALOAD PUSH20 0xFFFFFFFFFFFFFFFFFFFFFFFFFFFFFFFFFFFFFFFF AND SWAP1 PUSH1 0x20 ADD SWAP1 SWAP3 SWAP2 SWAP1 POP POP POP PUSH2 0x1145 JUMP JUMPDEST STOP JUMPDEST PUSH2 0x427 PUSH2 0x14C2 JUMP JUMPDEST PUSH1 0x40 MLOAD DUP1 DUP3 DUP2 MSTORE PUSH1 0x20 ADD SWAP2 POP POP PUSH1 0x40 MLOAD DUP1 SWAP2 SUB SWAP1 RETURN JUMPDEST PUSH2 0x445 PUSH2 0x14C8 JUMP JUMPDEST PUSH1 0x40 MLOAD DUP1 DUP3 PUSH20 0xFFFFFFFFFFFFFFFFFFFFFFFFFFFFFFFFFFFFFFFF AND DUP2 MSTORE PUSH1 0x20 ADD SWAP2 POP POP PUSH1 0x40 MLOAD DUP1 SWAP2 SUB SWAP1 RETURN JUMPDEST PUSH2 0x479 PUSH2 0x14F1 JUMP JUMPDEST PUSH1 0x40 MLOAD DUP1 DUP3 DUP2 MSTORE PUSH1 0x20 ADD SWAP2 POP POP PUSH1 0x40 MLOAD DUP1 SWAP2 SUB SWAP1 RETURN JUMPDEST PUSH2 0x497 PUSH2 0x14F7 JUMP JUMPDEST PUSH1 0x40 MLOAD DUP1 DUP3 ISZERO ISZERO DUP2 MSTORE PUSH1 0x20 ADD SWAP2 POP POP PUSH1 0x40 MLOAD DUP1 SWAP2 SUB SWAP1 RETURN JUMPDEST PUSH2 0x4E5 PUSH1 0x4 DUP1 CALLDATASIZE SUB PUSH1 0x40 DUP2 LT ISZERO PUSH2 0x4C5 JUMPI PUSH1 0x0 DUP1 REVERT JUMPDEST DUP2 ADD SWAP1 DUP1 DUP1 CALLDATALOAD SWAP1 PUSH1 0x20 ADD SWAP1 SWAP3 SWAP2 SWAP1 DUP1 CALLDATALOAD SWAP1 PUSH1 0x20 ADD SWAP1 SWAP3 SWAP2 SWAP1 POP POP POP PUSH2 0x150A JUMP JUMPDEST STOP JUMPDEST PUSH2 0x51F PUSH1 0x4 DUP1 CALLDATASIZE SUB PUSH1 0x40 DUP2 LT ISZERO PUSH2 0x4FD JUMPI PUSH1 0x0 DUP1 REVERT JUMPDEST DUP2 ADD SWAP1 DUP1 DUP1 CALLDATALOAD ISZERO ISZERO SWAP1 PUSH1 0x20 ADD SWAP1 SWAP3 SWAP2 SWAP1 DUP1 CALLDATALOAD SWAP1 PUSH1 0x20 ADD SWAP1 SWAP3 SWAP2 SWAP1 POP POP POP PUSH2 0x173A JUMP JUMPDEST STOP JUMPDEST PUSH2 0x529 PUSH2 0x1954 JUMP JUMPDEST PUSH1 0x40 MLOAD DUP1 DUP3 DUP2 MSTORE PUSH1 0x20 ADD SWAP2 POP POP PUSH1 0x40 MLOAD DUP1 SWAP2 SUB SWAP1 RETURN JUMPDEST PUSH2 0x56B PUSH1 0x4 DUP1 CALLDATASIZE SUB PUSH1 0x20 DUP2 LT ISZERO PUSH2 0x555 JUMPI PUSH1 0x0 DUP1 REVERT JUMPDEST DUP2 ADD SWAP1 DUP1 DUP1 CALLDATALOAD SWAP1 PUSH1 0x20 ADD SWAP1 SWAP3 SWAP2 SWAP1 POP POP POP PUSH2 0x195A JUMP JUMPDEST STOP JUMPDEST PUSH2 0x575 PUSH2 0x1C7D JUMP JUMPDEST PUSH1 0x40 MLOAD DUP1 DUP3 PUSH20 0xFFFFFFFFFFFFFFFFFFFFFFFFFFFFFFFFFFFFFFFF AND DUP2 MSTORE PUSH1 0x20 ADD SWAP2 POP POP PUSH1 0x40 MLOAD DUP1 SWAP2 SUB SWAP1 RETURN JUMPDEST PUSH2 0x5A9 PUSH2 0x1CA3 JUMP JUMPDEST PUSH1 0x40 MLOAD DUP1 DUP3 PUSH20 0xFFFFFFFFFFFFFFFFFFFFFFFFFFFFFFFFFFFFFFFF AND DUP2 MSTORE PUSH1 0x20 ADD SWAP2 POP POP PUSH1 0x40 MLOAD DUP1 SWAP2 SUB SWAP1 RETURN JUMPDEST PUSH2 0x5DD PUSH2 0x1CC9 JUMP JUMPDEST PUSH1 0x40 MLOAD DUP1 DUP3 DUP2 MSTORE PUSH1 0x20 ADD SWAP2 POP POP PUSH1 0x40 MLOAD DUP1 SWAP2 SUB SWAP1 RETURN JUMPDEST PUSH2 0x5FB PUSH2 0x1CCF JUMP JUMPDEST STOP JUMPDEST PUSH2 0x63F PUSH1 0x4 DUP1 CALLDATASIZE SUB PUSH1 0x20 DUP2 LT ISZERO PUSH2 0x613 JUMPI PUSH1 0x0 DUP1 REVERT JUMPDEST DUP2 ADD SWAP1 DUP1 DUP1 CALLDATALOAD PUSH20 0xFFFFFFFFFFFFFFFFFFFFFFFFFFFFFFFFFFFFFFFF AND SWAP1 PUSH1 0x20 ADD SWAP1 SWAP3 SWAP2 SWAP1 POP POP POP PUSH2 0x1E64 JUMP JUMPDEST STOP JUMPDEST PUSH2 0x683 PUSH1 0x4 DUP1 CALLDATASIZE SUB PUSH1 0x20 DUP2 LT ISZERO PUSH2 0x657 JUMPI PUSH1 0x0 DUP1 REVERT JUMPDEST DUP2 ADD SWAP1 DUP1 DUP1 CALLDATALOAD PUSH20 0xFFFFFFFFFFFFFFFFFFFFFFFFFFFFFFFFFFFFFFFF AND SWAP1 PUSH1 0x20 ADD SWAP1 SWAP3 SWAP2 SWAP1 POP POP POP PUSH2 0x2056 JUMP JUMPDEST PUSH1 0x40 MLOAD DUP1 DUP3 DUP2 MSTORE PUSH1 0x20 ADD SWAP2 POP POP PUSH1 0x40 MLOAD DUP1 SWAP2 SUB SWAP1 RETURN JUMPDEST PUSH2 0x6A1 PUSH2 0x227B JUMP JUMPDEST PUSH1 0x40 MLOAD DUP1 DUP3 PUSH20 0xFFFFFFFFFFFFFFFFFFFFFFFFFFFFFFFFFFFFFFFF AND DUP2 MSTORE PUSH1 0x20 ADD SWAP2 POP POP PUSH1 0x40 MLOAD DUP1 SWAP2 SUB SWAP1 RETURN JUMPDEST PUSH2 0x6D5 PUSH2 0x22A1 JUMP JUMPDEST PUSH20 0xFFFFFFFFFFFFFFFFFFFFFFFFFFFFFFFFFFFFFFFF AND PUSH2 0x6F3 PUSH2 0x14C8 JUMP JUMPDEST PUSH20 0xFFFFFFFFFFFFFFFFFFFFFFFFFFFFFFFFFFFFFFFF AND EQ PUSH2 0x77C JUMPI PUSH1 0x40 MLOAD PUSH32 0x8C379A000000000000000000000000000000000000000000000000000000000 DUP2 MSTORE PUSH1 0x4 ADD DUP1 DUP1 PUSH1 0x20 ADD DUP3 DUP2 SUB DUP3 MSTORE PUSH1 0x20 DUP2 MSTORE PUSH1 0x20 ADD DUP1 PUSH32 0x4F776E61626C653A2063616C6C6572206973206E6F7420746865206F776E6572 DUP2 MSTORE POP PUSH1 0x20 ADD SWAP2 POP POP PUSH1 0x40 MLOAD DUP1 SWAP2 SUB SWAP1 REVERT JUMPDEST PUSH1 0x5 SLOAD NUMBER LT PUSH2 0x7F3 JUMPI PUSH1 0x40 MLOAD PUSH32 0x8C379A000000000000000000000000000000000000000000000000000000000 DUP2 MSTORE PUSH1 0x4 ADD DUP1 DUP1 PUSH1 0x20 ADD DUP3 DUP2 SUB DUP3 MSTORE PUSH1 0x10 DUP2 MSTORE PUSH1 0x20 ADD DUP1 PUSH32 0x506F6F6C20686173207374617274656400000000000000000000000000000000 DUP2 MSTORE POP PUSH1 0x20 ADD SWAP2 POP POP PUSH1 0x40 MLOAD DUP1 SWAP2 SUB SWAP1 REVERT JUMPDEST DUP1 PUSH1 0x8 DUP2 SWAP1 SSTORE POP PUSH32 0xC4D677EEF92893AC7EC52FAF8140FC6C851AB4736302B4F3A89DFB20696A0DF DUP2 PUSH1 0x40 MLOAD DUP1 DUP3 DUP2 MSTORE PUSH1 0x20 ADD SWAP2 POP POP PUSH1 0x40 MLOAD DUP1 SWAP2 SUB SWAP1 LOG1 POP JUMP JUMPDEST PUSH1 0xC PUSH1 0x20 MSTORE DUP1 PUSH1 0x0 MSTORE PUSH1 0x40 PUSH1 0x0 KECCAK256 PUSH1 0x0 SWAP2 POP SWAP1 POP DUP1 PUSH1 0x0 ADD SLOAD SWAP1 DUP1 PUSH1 0x1 ADD SLOAD SWAP1 POP DUP3 JUMP JUMPDEST PUSH1 0x4 SLOAD DUP2 JUMP JUMPDEST PUSH1 0x2 PUSH1 0x1 SLOAD EQ ISZERO PUSH2 0x8D7 JUMPI PUSH1 0x40 MLOAD PUSH32 0x8C379A000000000000000000000000000000000000000000000000000000000 DUP2 MSTORE PUSH1 0x4 ADD DUP1 DUP1 PUSH1 0x20 ADD DUP3 DUP2 SUB DUP3 MSTORE PUSH1 0x1F DUP2 MSTORE PUSH1 0x20 ADD DUP1 PUSH32 0x5265656E7472616E637947756172643A207265656E7472616E742063616C6C00 DUP2 MSTORE POP PUSH1 0x20 ADD SWAP2 POP POP PUSH1 0x40 MLOAD DUP1 SWAP2 SUB SWAP1 REVERT JUMPDEST PUSH1 0x2 PUSH1 0x1 DUP2 SWAP1 SSTORE POP PUSH1 0x0 PUSH1 0xC PUSH1 0x0 CALLER PUSH20 0xFFFFFFFFFFFFFFFFFFFFFFFFFFFFFFFFFFFFFFFF AND PUSH20 0xFFFFFFFFFFFFFFFFFFFFFFFFFFFFFFFFFFFFFFFF AND DUP2 MSTORE PUSH1 0x20 ADD SWAP1 DUP2 MSTORE PUSH1 0x20 ADD PUSH1 0x0 KECCAK256 SWAP1 POP DUP2 DUP2 PUSH1 0x0 ADD SLOAD LT ISZERO PUSH2 0x99C JUMPI PUSH1 0x40 MLOAD PUSH32 0x8C379A000000000000000000000000000000000000000000000000000000000 DUP2 MSTORE PUSH1 0x4 ADD DUP1 DUP1 PUSH1 0x20 ADD DUP3 DUP2 SUB DUP3 MSTORE PUSH1 0x1B DUP2 MSTORE PUSH1 0x20 ADD DUP1 PUSH32 0x416D6F756E7420746F20776974686472617720746F6F20686967680000000000 DUP2 MSTORE POP PUSH1 0x20 ADD SWAP2 POP POP PUSH1 0x40 MLOAD DUP1 SWAP2 SUB SWAP1 REVERT JUMPDEST PUSH2 0x9A4 PUSH2 0x22A9 JUMP JUMPDEST PUSH1 0x0 PUSH2 0x9E9 DUP3 PUSH1 0x1 ADD SLOAD PUSH2 0x9DB PUSH1 0x9 SLOAD PUSH2 0x9CD PUSH1 0x3 SLOAD DUP8 PUSH1 0x0 ADD SLOAD PUSH2 0x240C SWAP1 SWAP2 SWAP1 PUSH4 0xFFFFFFFF AND JUMP JUMPDEST PUSH2 0x2492 SWAP1 SWAP2 SWAP1 PUSH4 0xFFFFFFFF AND JUMP JUMPDEST PUSH2 0x251B SWAP1 SWAP2 SWAP1 PUSH4 0xFFFFFFFF AND JUMP JUMPDEST SWAP1 POP PUSH1 0x0 DUP4 GT ISZERO PUSH2 0xA61 JUMPI PUSH2 0xA0B DUP4 DUP4 PUSH1 0x0 ADD SLOAD PUSH2 0x251B SWAP1 SWAP2 SWAP1 PUSH4 0xFFFFFFFF AND JUMP JUMPDEST DUP3 PUSH1 0x0 ADD DUP2 SWAP1 SSTORE POP PUSH2 0xA60 CALLER DUP5 PUSH1 0xB PUSH1 0x0 SWAP1 SLOAD SWAP1 PUSH2 0x100 EXP SWAP1 DIV PUSH20 0xFFFFFFFFFFFFFFFFFFFFFFFFFFFFFFFFFFFFFFFF AND PUSH20 0xFFFFFFFFFFFFFFFFFFFFFFFFFFFFFFFFFFFFFFFF AND PUSH2 0x259E SWAP1 SWAP3 SWAP2 SWAP1 PUSH4 0xFFFFFFFF AND JUMP JUMPDEST JUMPDEST PUSH1 0x0 DUP2 GT ISZERO PUSH2 0xAB8 JUMPI PUSH2 0xAB7 CALLER DUP3 PUSH1 0xA PUSH1 0x0 SWAP1 SLOAD SWAP1 PUSH2 0x100 EXP SWAP1 DIV PUSH20 0xFFFFFFFFFFFFFFFFFFFFFFFFFFFFFFFFFFFFFFFF AND PUSH20 0xFFFFFFFFFFFFFFFFFFFFFFFFFFFFFFFFFFFFFFFF AND PUSH2 0x259E SWAP1 SWAP3 SWAP2 SWAP1 PUSH4 0xFFFFFFFF AND JUMP JUMPDEST JUMPDEST PUSH2 0xAE5 PUSH1 0x9 SLOAD PUSH2 0xAD7 PUSH1 0x3 SLOAD DUP6 PUSH1 0x0 ADD SLOAD PUSH2 0x240C SWAP1 SWAP2 SWAP1 PUSH4 0xFFFFFFFF AND JUMP JUMPDEST PUSH2 0x2492 SWAP1 SWAP2 SWAP1 PUSH4 0xFFFFFFFF AND JUMP JUMPDEST DUP3 PUSH1 0x1 ADD DUP2 SWAP1 SSTORE POP CALLER PUSH20 0xFFFFFFFFFFFFFFFFFFFFFFFFFFFFFFFFFFFFFFFF AND PUSH32 0x884EDAD9CE6FA2440D8A54CC123490EB96D2768479D49FF9C7366125A9424364 DUP5 PUSH1 0x40 MLOAD DUP1 DUP3 DUP2 MSTORE PUSH1 0x20 ADD SWAP2 POP POP PUSH1 0x40 MLOAD DUP1 SWAP2 SUB SWAP1 LOG2 POP POP PUSH1 0x1 DUP1 DUP2 SWAP1 SSTORE POP POP JUMP JUMPDEST PUSH2 0xB4F PUSH2 0x22A1 JUMP JUMPDEST PUSH20 0xFFFFFFFFFFFFFFFFFFFFFFFFFFFFFFFFFFFFFFFF AND PUSH2 0xB6D PUSH2 0x14C8 JUMP JUMPDEST PUSH20 0xFFFFFFFFFFFFFFFFFFFFFFFFFFFFFFFFFFFFFFFF AND EQ PUSH2 0xBF6 JUMPI PUSH1 0x40 MLOAD PUSH32 0x8C379A000000000000000000000000000000000000000000000000000000000 DUP2 MSTORE PUSH1 0x4 ADD DUP1 DUP1 PUSH1 0x20 ADD DUP3 DUP2 SUB DUP3 MSTORE PUSH1 0x20 DUP2 MSTORE PUSH1 0x20 ADD DUP1 PUSH32 0x4F776E61626C653A2063616C6C6572206973206E6F7420746865206F776E6572 DUP2 MSTORE POP PUSH1 0x20 ADD SWAP2 POP POP PUSH1 0x40 MLOAD DUP1 SWAP2 SUB SWAP1 REVERT JUMPDEST PUSH2 0xC43 CALLER DUP3 PUSH1 0xA PUSH1 0x0 SWAP1 SLOAD SWAP1 PUSH2 0x100 EXP SWAP1 DIV PUSH20 0xFFFFFFFFFFFFFFFFFFFFFFFFFFFFFFFFFFFFFFFF AND PUSH20 0xFFFFFFFFFFFFFFFFFFFFFFFFFFFFFFFFFFFFFFFF AND PUSH2 0x259E SWAP1 SWAP3 SWAP2 SWAP1 PUSH4 0xFFFFFFFF AND JUMP JUMPDEST POP JUMP JUMPDEST PUSH1 0x2 PUSH1 0x15 SWAP1 SLOAD SWAP1 PUSH2 0x100 EXP SWAP1 DIV PUSH1 0xFF AND DUP2 JUMP JUMPDEST PUSH2 0xC61 PUSH2 0x22A1 JUMP JUMPDEST PUSH20 0xFFFFFFFFFFFFFFFFFFFFFFFFFFFFFFFFFFFFFFFF AND PUSH2 0xC7F PUSH2 0x14C8 JUMP JUMPDEST PUSH20 0xFFFFFFFFFFFFFFFFFFFFFFFFFFFFFFFFFFFFFFFF AND EQ PUSH2 0xD08 JUMPI PUSH1 0x40 MLOAD PUSH32 0x8C379A000000000000000000000000000000000000000000000000000000000 DUP2 MSTORE PUSH1 0x4 ADD DUP1 DUP1 PUSH1 0x20 ADD DUP3 DUP2 SUB DUP3 MSTORE PUSH1 0x20 DUP2 MSTORE PUSH1 0x20 ADD DUP1 PUSH32 0x4F776E61626C653A2063616C6C6572206973206E6F7420746865206F776E6572 DUP2 MSTORE POP PUSH1 0x20 ADD SWAP2 POP POP PUSH1 0x40 MLOAD DUP1 SWAP2 SUB SWAP1 REVERT JUMPDEST PUSH1 0xB PUSH1 0x0 SWAP1 SLOAD SWAP1 PUSH2 0x100 EXP SWAP1 DIV PUSH20 0xFFFFFFFFFFFFFFFFFFFFFFFFFFFFFFFFFFFFFFFF AND PUSH20 0xFFFFFFFFFFFFFFFFFFFFFFFFFFFFFFFFFFFFFFFF AND DUP3 PUSH20 0xFFFFFFFFFFFFFFFFFFFFFFFFFFFFFFFFFFFFFFFF AND EQ ISZERO PUSH2 0xDCC JUMPI PUSH1 0x40 MLOAD PUSH32 0x8C379A000000000000000000000000000000000000000000000000000000000 DUP2 MSTORE PUSH1 0x4 ADD DUP1 DUP1 PUSH1 0x20 ADD DUP3 DUP2 SUB DUP3 MSTORE PUSH1 0x16 DUP2 MSTORE PUSH1 0x20 ADD DUP1 PUSH32 0x43616E6E6F74206265207374616B656420746F6B656E00000000000000000000 DUP2 MSTORE POP PUSH1 0x20 ADD SWAP2 POP POP PUSH1 0x40 MLOAD DUP1 SWAP2 SUB SWAP1 REVERT JUMPDEST PUSH1 0xA PUSH1 0x0 SWAP1 SLOAD SWAP1 PUSH2 0x100 EXP SWAP1 DIV PUSH20 0xFFFFFFFFFFFFFFFFFFFFFFFFFFFFFFFFFFFFFFFF AND PUSH20 0xFFFFFFFFFFFFFFFFFFFFFFFFFFFFFFFFFFFFFFFF AND DUP3 PUSH20 0xFFFFFFFFFFFFFFFFFFFFFFFFFFFFFFFFFFFFFFFF AND EQ ISZERO PUSH2 0xE90 JUMPI PUSH1 0x40 MLOAD PUSH32 0x8C379A000000000000000000000000000000000000000000000000000000000 DUP2 MSTORE PUSH1 0x4 ADD DUP1 DUP1 PUSH1 0x20 ADD DUP3 DUP2 SUB DUP3 MSTORE PUSH1 0x16 DUP2 MSTORE PUSH1 0x20 ADD DUP1 PUSH32 0x43616E6E6F742062652072657761726420746F6B656E00000000000000000000 DUP2 MSTORE POP PUSH1 0x20 ADD SWAP2 POP POP PUSH1 0x40 MLOAD DUP1 SWAP2 SUB SWAP1 REVERT JUMPDEST PUSH2 0xEBB CALLER DUP3 DUP5 PUSH20 0xFFFFFFFFFFFFFFFFFFFFFFFFFFFFFFFFFFFFFFFF AND PUSH2 0x259E SWAP1 SWAP3 SWAP2 SWAP1 PUSH4 0xFFFFFFFF AND JUMP JUMPDEST PUSH32 0x74545154AAC348A3EAC92596BD1971957CA94795F4E954EC5F613B55FAB78129 DUP3 DUP3 PUSH1 0x40 MLOAD DUP1 DUP4 PUSH20 0xFFFFFFFFFFFFFFFFFFFFFFFFFFFFFFFFFFFFFFFF AND DUP2 MSTORE PUSH1 0x20 ADD DUP3 DUP2 MSTORE PUSH1 0x20 ADD SWAP3 POP POP POP PUSH1 0x40 MLOAD DUP1 SWAP2 SUB SWAP1 LOG1 POP POP JUMP JUMPDEST PUSH1 0x5 SLOAD DUP2 JUMP JUMPDEST PUSH1 0x7 SLOAD DUP2 JUMP JUMPDEST PUSH2 0xF28 PUSH2 0x22A1 JUMP JUMPDEST PUSH20 0xFFFFFFFFFFFFFFFFFFFFFFFFFFFFFFFFFFFFFFFF AND PUSH2 0xF46 PUSH2 0x14C8 JUMP JUMPDEST PUSH20 0xFFFFFFFFFFFFFFFFFFFFFFFFFFFFFFFFFFFFFFFF AND EQ PUSH2 0xFCF JUMPI PUSH1 0x40 MLOAD PUSH32 0x8C379A000000000000000000000000000000000000000000000000000000000 DUP2 MSTORE PUSH1 0x4 ADD DUP1 DUP1 PUSH1 0x20 ADD DUP3 DUP2 SUB DUP3 MSTORE PUSH1 0x20 DUP2 MSTORE PUSH1 0x20 ADD DUP1 PUSH32 0x4F776E61626C653A2063616C6C6572206973206E6F7420746865206F776E6572 DUP2 MSTORE POP PUSH1 0x20 ADD SWAP2 POP POP PUSH1 0x40 MLOAD DUP1 SWAP2 SUB SWAP1 REVERT JUMPDEST PUSH1 0x0 PUSH20 0xFFFFFFFFFFFFFFFFFFFFFFFFFFFFFFFFFFFFFFFF AND PUSH1 0x0 DUP1 SLOAD SWAP1 PUSH2 0x100 EXP SWAP1 DIV PUSH20 0xFFFFFFFFFFFFFFFFFFFFFFFFFFFFFFFFFFFFFFFF AND PUSH20 0xFFFFFFFFFFFFFFFFFFFFFFFFFFFFFFFFFFFFFFFF AND PUSH32 0x8BE0079C531659141344CD1FD0A4F28419497F9722A3DAAFE3B4186F6B6457E0 PUSH1 0x40 MLOAD PUSH1 0x40 MLOAD DUP1 SWAP2 SUB SWAP1 LOG3 PUSH1 0x0 DUP1 PUSH1 0x0 PUSH2 0x100 EXP DUP2 SLOAD DUP2 PUSH20 0xFFFFFFFFFFFFFFFFFFFFFFFFFFFFFFFFFFFFFFFF MUL NOT AND SWAP1 DUP4 PUSH20 0xFFFFFFFFFFFFFFFFFFFFFFFFFFFFFFFFFFFFFFFF AND MUL OR SWAP1 SSTORE POP JUMP JUMPDEST PUSH2 0x1095 PUSH2 0x22A1 JUMP JUMPDEST PUSH20 0xFFFFFFFFFFFFFFFFFFFFFFFFFFFFFFFFFFFFFFFF AND PUSH2 0x10B3 PUSH2 0x14C8 JUMP JUMPDEST PUSH20 0xFFFFFFFFFFFFFFFFFFFFFFFFFFFFFFFFFFFFFFFF AND EQ PUSH2 0x113C JUMPI PUSH1 0x40 MLOAD PUSH32 0x8C379A000000000000000000000000000000000000000000000000000000000 DUP2 MSTORE PUSH1 0x4 ADD DUP1 DUP1 PUSH1 0x20 ADD DUP3 DUP2 SUB DUP3 MSTORE PUSH1 0x20 DUP2 MSTORE PUSH1 0x20 ADD DUP1 PUSH32 0x4F776E61626C653A2063616C6C6572206973206E6F7420746865206F776E6572 DUP2 MSTORE POP PUSH1 0x20 ADD SWAP2 POP POP PUSH1 0x40 MLOAD DUP1 SWAP2 SUB SWAP1 REVERT JUMPDEST NUMBER PUSH1 0x4 DUP2 SWAP1 SSTORE POP JUMP JUMPDEST PUSH1 0x2 PUSH1 0x15 SWAP1 SLOAD SWAP1 PUSH2 0x100 EXP SWAP1 DIV PUSH1 0xFF AND ISZERO PUSH2 0x11C8 JUMPI PUSH1 0x40 MLOAD PUSH32 0x8C379A000000000000000000000000000000000000000000000000000000000 DUP2 MSTORE PUSH1 0x4 ADD DUP1 DUP1 PUSH1 0x20 ADD DUP3 DUP2 SUB DUP3 MSTORE PUSH1 0x13 DUP2 MSTORE PUSH1 0x20 ADD DUP1 PUSH32 0x416C726561647920696E697469616C697A656400000000000000000000000000 DUP2 MSTORE POP PUSH1 0x20 ADD SWAP2 POP POP PUSH1 0x40 MLOAD DUP1 SWAP2 SUB SWAP1 REVERT JUMPDEST PUSH1 0x2 PUSH1 0x0 SWAP1 SLOAD SWAP1 PUSH2 0x100 EXP SWAP1 DIV PUSH20 0xFFFFFFFFFFFFFFFFFFFFFFFFFFFFFFFFFFFFFFFF AND PUSH20 0xFFFFFFFFFFFFFFFFFFFFFFFFFFFFFFFFFFFFFFFF AND CALLER PUSH20 0xFFFFFFFFFFFFFFFFFFFFFFFFFFFFFFFFFFFFFFFF AND EQ PUSH2 0x128B JUMPI PUSH1 0x40 MLOAD PUSH32 0x8C379A000000000000000000000000000000000000000000000000000000000 DUP2 MSTORE PUSH1 0x4 ADD DUP1 DUP1 PUSH1 0x20 ADD DUP3 DUP2 SUB DUP3 MSTORE PUSH1 0xB DUP2 MSTORE PUSH1 0x20 ADD DUP1 PUSH32 0x4E6F7420666163746F7279000000000000000000000000000000000000000000 DUP2 MSTORE POP PUSH1 0x20 ADD SWAP2 POP POP PUSH1 0x40 MLOAD DUP1 SWAP2 SUB SWAP1 REVERT JUMPDEST PUSH1 0x1 PUSH1 0x2 PUSH1 0x15 PUSH2 0x100 EXP DUP2 SLOAD DUP2 PUSH1 0xFF MUL NOT AND SWAP1 DUP4 ISZERO ISZERO MUL OR SWAP1 SSTORE POP DUP7 PUSH1 0xB PUSH1 0x0 PUSH2 0x100 EXP DUP2 SLOAD DUP2 PUSH20 0xFFFFFFFFFFFFFFFFFFFFFFFFFFFFFFFFFFFFFFFF MUL NOT AND SWAP1 DUP4 PUSH20 0xFFFFFFFFFFFFFFFFFFFFFFFFFFFFFFFFFFFFFFFF AND MUL OR SWAP1 SSTORE POP DUP6 PUSH1 0xA PUSH1 0x0 PUSH2 0x100 EXP DUP2 SLOAD DUP2 PUSH20 0xFFFFFFFFFFFFFFFFFFFFFFFFFFFFFFFFFFFFFFFF MUL NOT AND SWAP1 DUP4 PUSH20 0xFFFFFFFFFFFFFFFFFFFFFFFFFFFFFFFFFFFFFFFF AND MUL OR SWAP1 SSTORE POP DUP5 PUSH1 0x8 DUP2 SWAP1 SSTORE POP DUP4 PUSH1 0x5 DUP2 SWAP1 SSTORE POP DUP3 PUSH1 0x4 DUP2 SWAP1 SSTORE POP PUSH1 0x0 DUP3 GT ISZERO PUSH2 0x1369 JUMPI PUSH1 0x1 PUSH1 0x2 PUSH1 0x14 PUSH2 0x100 EXP DUP2 SLOAD DUP2 PUSH1 0xFF MUL NOT AND SWAP1 DUP4 ISZERO ISZERO MUL OR SWAP1 SSTORE POP DUP2 PUSH1 0x7 DUP2 SWAP1 SSTORE POP JUMPDEST PUSH1 0x0 PUSH1 0xA PUSH1 0x0 SWAP1 SLOAD SWAP1 PUSH2 0x100 EXP SWAP1 DIV PUSH20 0xFFFFFFFFFFFFFFFFFFFFFFFFFFFFFFFFFFFFFFFF AND PUSH20 0xFFFFFFFFFFFFFFFFFFFFFFFFFFFFFFFFFFFFFFFF AND PUSH4 0x313CE567 PUSH1 0x40 MLOAD DUP2 PUSH4 0xFFFFFFFF AND PUSH1 0xE0 SHL DUP2 MSTORE PUSH1 0x4 ADD PUSH1 0x20 PUSH1 0x40 MLOAD DUP1 DUP4 SUB DUP2 DUP7 DUP1 EXTCODESIZE ISZERO DUP1 ISZERO PUSH2 0x13D3 JUMPI PUSH1 0x0 DUP1 REVERT JUMPDEST POP GAS STATICCALL ISZERO DUP1 ISZERO PUSH2 0x13E7 JUMPI RETURNDATASIZE PUSH1 0x0 DUP1 RETURNDATACOPY RETURNDATASIZE PUSH1 0x0 REVERT JUMPDEST POP POP POP POP PUSH1 0x40 MLOAD RETURNDATASIZE PUSH1 0x20 DUP2 LT ISZERO PUSH2 0x13FD JUMPI PUSH1 0x0 DUP1 REVERT JUMPDEST DUP2 ADD SWAP1 DUP1 DUP1 MLOAD SWAP1 PUSH1 0x20 ADD SWAP1 SWAP3 SWAP2 SWAP1 POP POP POP PUSH1 0xFF AND SWAP1 POP PUSH1 0x1E DUP2 LT PUSH2 0x1489 JUMPI PUSH1 0x40 MLOAD PUSH32 0x8C379A000000000000000000000000000000000000000000000000000000000 DUP2 MSTORE PUSH1 0x4 ADD DUP1 DUP1 PUSH1 0x20 ADD DUP3 DUP2 SUB DUP3 MSTORE PUSH1 0x16 DUP2 MSTORE PUSH1 0x20 ADD DUP1 PUSH32 0x4D75737420626520696E666572696F7220746F20333000000000000000000000 DUP2 MSTORE POP PUSH1 0x20 ADD SWAP2 POP POP PUSH1 0x40 MLOAD DUP1 SWAP2 SUB SWAP1 REVERT JUMPDEST PUSH2 0x149D DUP2 PUSH1 0x1E PUSH2 0x251B SWAP1 SWAP2 SWAP1 PUSH4 0xFFFFFFFF AND JUMP JUMPDEST PUSH1 0xA EXP PUSH1 0x9 DUP2 SWAP1 SSTORE POP PUSH1 0x5 SLOAD PUSH1 0x6 DUP2 SWAP1 SSTORE POP PUSH2 0x14B8 DUP3 PUSH2 0x1E64 JUMP JUMPDEST POP POP POP POP POP POP POP POP JUMP JUMPDEST PUSH1 0x8 SLOAD DUP2 JUMP JUMPDEST PUSH1 0x0 DUP1 PUSH1 0x0 SWAP1 SLOAD SWAP1 PUSH2 0x100 EXP SWAP1 DIV PUSH20 0xFFFFFFFFFFFFFFFFFFFFFFFFFFFFFFFFFFFFFFFF AND SWAP1 POP SWAP1 JUMP JUMPDEST PUSH1 0x3 SLOAD DUP2 JUMP JUMPDEST PUSH1 0x2 PUSH1 0x14 SWAP1 SLOAD SWAP1 PUSH2 0x100 EXP SWAP1 DIV PUSH1 0xFF AND DUP2 JUMP JUMPDEST PUSH2 0x1512 PUSH2 0x22A1 JUMP JUMPDEST PUSH20 0xFFFFFFFFFFFFFFFFFFFFFFFFFFFFFFFFFFFFFFFF AND PUSH2 0x1530 PUSH2 0x14C8 JUMP JUMPDEST PUSH20 0xFFFFFFFFFFFFFFFFFFFFFFFFFFFFFFFFFFFFFFFF AND EQ PUSH2 0x15B9 JUMPI PUSH1 0x40 MLOAD PUSH32 0x8C379A000000000000000000000000000000000000000000000000000000000 DUP2 MSTORE PUSH1 0x4 ADD DUP1 DUP1 PUSH1 0x20 ADD DUP3 DUP2 SUB DUP3 MSTORE PUSH1 0x20 DUP2 MSTORE PUSH1 0x20 ADD DUP1 PUSH32 0x4F776E61626C653A2063616C6C6572206973206E6F7420746865206F776E6572 DUP2 MSTORE POP PUSH1 0x20 ADD SWAP2 POP POP PUSH1 0x40 MLOAD DUP1 SWAP2 SUB SWAP1 REVERT JUMPDEST PUSH1 0x5 SLOAD NUMBER LT PUSH2 0x1630 JUMPI PUSH1 0x40 MLOAD PUSH32 0x8C379A000000000000000000000000000000000000000000000000000000000 DUP2 MSTORE PUSH1 0x4 ADD DUP1 DUP1 PUSH1 0x20 ADD DUP3 DUP2 SUB DUP3 MSTORE PUSH1 0x10 DUP2 MSTORE PUSH1 0x20 ADD DUP1 PUSH32 0x506F6F6C20686173207374617274656400000000000000000000000000000000 DUP2 MSTORE POP PUSH1 0x20 ADD SWAP2 POP POP PUSH1 0x40 MLOAD DUP1 SWAP2 SUB SWAP1 REVERT JUMPDEST DUP1 DUP3 LT PUSH2 0x1688 JUMPI PUSH1 0x40 MLOAD PUSH32 0x8C379A000000000000000000000000000000000000000000000000000000000 DUP2 MSTORE PUSH1 0x4 ADD DUP1 DUP1 PUSH1 0x20 ADD DUP3 DUP2 SUB DUP3 MSTORE PUSH1 0x2E DUP2 MSTORE PUSH1 0x20 ADD DUP1 PUSH2 0x2BBE PUSH1 0x2E SWAP2 CODECOPY PUSH1 0x40 ADD SWAP2 POP POP PUSH1 0x40 MLOAD DUP1 SWAP2 SUB SWAP1 REVERT JUMPDEST DUP2 NUMBER LT PUSH2 0x16E0 JUMPI PUSH1 0x40 MLOAD PUSH32 0x8C379A000000000000000000000000000000000000000000000000000000000 DUP2 MSTORE PUSH1 0x4 ADD DUP1 DUP1 PUSH1 0x20 ADD DUP3 DUP2 SUB DUP3 MSTORE PUSH1 0x30 DUP2 MSTORE PUSH1 0x20 ADD DUP1 PUSH2 0x2C12 PUSH1 0x30 SWAP2 CODECOPY PUSH1 0x40 ADD SWAP2 POP POP PUSH1 0x40 MLOAD DUP1 SWAP2 SUB SWAP1 REVERT JUMPDEST DUP2 PUSH1 0x5 DUP2 SWAP1 SSTORE POP DUP1 PUSH1 0x4 DUP2 SWAP1 SSTORE POP PUSH1 0x5 SLOAD PUSH1 0x6 DUP2 SWAP1 SSTORE POP PUSH32 0x7CD0AB87D19036F3DFADADB232C78AA4879DDA3F0C994A9D637532410EE2CE06 DUP3 DUP3 PUSH1 0x40 MLOAD DUP1 DUP4 DUP2 MSTORE PUSH1 0x20 ADD DUP3 DUP2 MSTORE PUSH1 0x20 ADD SWAP3 POP POP POP PUSH1 0x40 MLOAD DUP1 SWAP2 SUB SWAP1 LOG1 POP POP JUMP JUMPDEST PUSH2 0x1742 PUSH2 0x22A1 JUMP JUMPDEST PUSH20 0xFFFFFFFFFFFFFFFFFFFFFFFFFFFFFFFFFFFFFFFF AND PUSH2 0x1760 PUSH2 0x14C8 JUMP JUMPDEST PUSH20 0xFFFFFFFFFFFFFFFFFFFFFFFFFFFFFFFFFFFFFFFF AND EQ PUSH2 0x17E9 JUMPI PUSH1 0x40 MLOAD PUSH32 0x8C379A000000000000000000000000000000000000000000000000000000000 DUP2 MSTORE PUSH1 0x4 ADD DUP1 DUP1 PUSH1 0x20 ADD DUP3 DUP2 SUB DUP3 MSTORE PUSH1 0x20 DUP2 MSTORE PUSH1 0x20 ADD DUP1 PUSH32 0x4F776E61626C653A2063616C6C6572206973206E6F7420746865206F776E6572 DUP2 MSTORE POP PUSH1 0x20 ADD SWAP2 POP POP PUSH1 0x40 MLOAD DUP1 SWAP2 SUB SWAP1 REVERT JUMPDEST PUSH1 0x2 PUSH1 0x14 SWAP1 SLOAD SWAP1 PUSH2 0x100 EXP SWAP1 DIV PUSH1 0xFF AND PUSH2 0x186B JUMPI PUSH1 0x40 MLOAD PUSH32 0x8C379A000000000000000000000000000000000000000000000000000000000 DUP2 MSTORE PUSH1 0x4 ADD DUP1 DUP1 PUSH1 0x20 ADD DUP3 DUP2 SUB DUP3 MSTORE PUSH1 0xB DUP2 MSTORE PUSH1 0x20 ADD DUP1 PUSH32 0x4D75737420626520736574000000000000000000000000000000000000000000 DUP2 MSTORE POP PUSH1 0x20 ADD SWAP2 POP POP PUSH1 0x40 MLOAD DUP1 SWAP2 SUB SWAP1 REVERT JUMPDEST DUP2 ISZERO PUSH2 0x18F4 JUMPI PUSH1 0x7 SLOAD DUP2 GT PUSH2 0x18E8 JUMPI PUSH1 0x40 MLOAD PUSH32 0x8C379A000000000000000000000000000000000000000000000000000000000 DUP2 MSTORE PUSH1 0x4 ADD DUP1 DUP1 PUSH1 0x20 ADD DUP3 DUP2 SUB DUP3 MSTORE PUSH1 0x18 DUP2 MSTORE PUSH1 0x20 ADD DUP1 PUSH32 0x4E6577206C696D6974206D757374206265206869676865720000000000000000 DUP2 MSTORE POP PUSH1 0x20 ADD SWAP2 POP POP PUSH1 0x40 MLOAD DUP1 SWAP2 SUB SWAP1 REVERT JUMPDEST DUP1 PUSH1 0x7 DUP2 SWAP1 SSTORE POP PUSH2 0x1917 JUMP JUMPDEST DUP2 PUSH1 0x2 PUSH1 0x14 PUSH2 0x100 EXP DUP2 SLOAD DUP2 PUSH1 0xFF MUL NOT AND SWAP1 DUP4 ISZERO ISZERO MUL OR SWAP1 SSTORE POP PUSH1 0x0 PUSH1 0x7 DUP2 SWAP1 SSTORE POP JUMPDEST PUSH32 0x241F67EE5F41B7A5CABF911367329BE7215900F602EBFC47F89DCE2A6BCD847C PUSH1 0x7 SLOAD PUSH1 0x40 MLOAD DUP1 DUP3 DUP2 MSTORE PUSH1 0x20 ADD SWAP2 POP POP PUSH1 0x40 MLOAD DUP1 SWAP2 SUB SWAP1 LOG1 POP POP JUMP JUMPDEST PUSH1 0x6 SLOAD DUP2 JUMP JUMPDEST PUSH1 0x2 PUSH1 0x1 SLOAD EQ ISZERO PUSH2 0x19D3 JUMPI PUSH1 0x40 MLOAD PUSH32 0x8C379A000000000000000000000000000000000000000000000000000000000 DUP2 MSTORE PUSH1 0x4 ADD DUP1 DUP1 PUSH1 0x20 ADD DUP3 DUP2 SUB DUP3 MSTORE PUSH1 0x1F DUP2 MSTORE PUSH1 0x20 ADD DUP1 PUSH32 0x5265656E7472616E637947756172643A207265656E7472616E742063616C6C00 DUP2 MSTORE POP PUSH1 0x20 ADD SWAP2 POP POP PUSH1 0x40 MLOAD DUP1 SWAP2 SUB SWAP1 REVERT JUMPDEST PUSH1 0x2 PUSH1 0x1 DUP2 SWAP1 SSTORE POP PUSH1 0x0 PUSH1 0xC PUSH1 0x0 CALLER PUSH20 0xFFFFFFFFFFFFFFFFFFFFFFFFFFFFFFFFFFFFFFFF AND PUSH20 0xFFFFFFFFFFFFFFFFFFFFFFFFFFFFFFFFFFFFFFFF AND DUP2 MSTORE PUSH1 0x20 ADD SWAP1 DUP2 MSTORE PUSH1 0x20 ADD PUSH1 0x0 KECCAK256 SWAP1 POP PUSH1 0x2 PUSH1 0x14 SWAP1 SLOAD SWAP1 PUSH2 0x100 EXP SWAP1 DIV PUSH1 0xFF AND ISZERO PUSH2 0x1AC2 JUMPI PUSH1 0x7 SLOAD PUSH2 0x1A4D DUP3 PUSH1 0x0 ADD SLOAD DUP5 PUSH2 0x2640 SWAP1 SWAP2 SWAP1 PUSH4 0xFFFFFFFF AND JUMP JUMPDEST GT ISZERO PUSH2 0x1AC1 JUMPI PUSH1 0x40 MLOAD PUSH32 0x8C379A000000000000000000000000000000000000000000000000000000000 DUP2 MSTORE PUSH1 0x4 ADD DUP1 DUP1 PUSH1 0x20 ADD DUP3 DUP2 SUB DUP3 MSTORE PUSH1 0x17 DUP2 MSTORE PUSH1 0x20 ADD DUP1 PUSH32 0x5573657220616D6F756E742061626F7665206C696D6974000000000000000000 DUP2 MSTORE POP PUSH1 0x20 ADD SWAP2 POP POP PUSH1 0x40 MLOAD DUP1 SWAP2 SUB SWAP1 REVERT JUMPDEST JUMPDEST PUSH2 0x1ACA PUSH2 0x22A9 JUMP JUMPDEST PUSH1 0x0 DUP2 PUSH1 0x0 ADD SLOAD GT ISZERO PUSH2 0x1B77 JUMPI PUSH1 0x0 PUSH2 0x1B1C DUP3 PUSH1 0x1 ADD SLOAD PUSH2 0x1B0E PUSH1 0x9 SLOAD PUSH2 0x1B00 PUSH1 0x3 SLOAD DUP8 PUSH1 0x0 ADD SLOAD PUSH2 0x240C SWAP1 SWAP2 SWAP1 PUSH4 0xFFFFFFFF AND JUMP JUMPDEST PUSH2 0x2492 SWAP1 SWAP2 SWAP1 PUSH4 0xFFFFFFFF AND JUMP JUMPDEST PUSH2 0x251B SWAP1 SWAP2 SWAP1 PUSH4 0xFFFFFFFF AND JUMP JUMPDEST SWAP1 POP PUSH1 0x0 DUP2 GT ISZERO PUSH2 0x1B75 JUMPI PUSH2 0x1B74 CALLER DUP3 PUSH1 0xA PUSH1 0x0 SWAP1 SLOAD SWAP1 PUSH2 0x100 EXP SWAP1 DIV PUSH20 0xFFFFFFFFFFFFFFFFFFFFFFFFFFFFFFFFFFFFFFFF AND PUSH20 0xFFFFFFFFFFFFFFFFFFFFFFFFFFFFFFFFFFFFFFFF AND PUSH2 0x259E SWAP1 SWAP3 SWAP2 SWAP1 PUSH4 0xFFFFFFFF AND JUMP JUMPDEST JUMPDEST POP JUMPDEST PUSH1 0x0 DUP3 GT ISZERO PUSH2 0x1BEF JUMPI PUSH2 0x1B97 DUP3 DUP3 PUSH1 0x0 ADD SLOAD PUSH2 0x2640 SWAP1 SWAP2 SWAP1 PUSH4 0xFFFFFFFF AND JUMP JUMPDEST DUP2 PUSH1 0x0 ADD DUP2 SWAP1 SSTORE POP PUSH2 0x1BEE CALLER ADDRESS DUP5 PUSH1 0xB PUSH1 0x0 SWAP1 SLOAD SWAP1 PUSH2 0x100 EXP SWAP1 DIV PUSH20 0xFFFFFFFFFFFFFFFFFFFFFFFFFFFFFFFFFFFFFFFF AND PUSH20 0xFFFFFFFFFFFFFFFFFFFFFFFFFFFFFFFFFFFFFFFF AND PUSH2 0x26C8 SWAP1 SWAP4 SWAP3 SWAP2 SWAP1 PUSH4 0xFFFFFFFF AND JUMP JUMPDEST JUMPDEST PUSH2 0x1C1C PUSH1 0x9 SLOAD PUSH2 0x1C0E PUSH1 0x3 SLOAD DUP5 PUSH1 0x0 ADD SLOAD PUSH2 0x240C SWAP1 SWAP2 SWAP1 PUSH4 0xFFFFFFFF AND JUMP JUMPDEST PUSH2 0x2492 SWAP1 SWAP2 SWAP1 PUSH4 0xFFFFFFFF AND JUMP JUMPDEST DUP2 PUSH1 0x1 ADD DUP2 SWAP1 SSTORE POP CALLER PUSH20 0xFFFFFFFFFFFFFFFFFFFFFFFFFFFFFFFFFFFFFFFF AND PUSH32 0xE1FFFCC4923D04B559F4D29A8BFC6CDA04EB5B0D3C460751C2402C5C5CC9109C DUP4 PUSH1 0x40 MLOAD DUP1 DUP3 DUP2 MSTORE PUSH1 0x20 ADD SWAP2 POP POP PUSH1 0x40 MLOAD DUP1 SWAP2 SUB SWAP1 LOG2 POP PUSH1 0x1 DUP1 DUP2 SWAP1 SSTORE POP POP JUMP JUMPDEST PUSH1 0x2 PUSH1 0x0 SWAP1 SLOAD SWAP1 PUSH2 0x100 EXP SWAP1 DIV PUSH20 0xFFFFFFFFFFFFFFFFFFFFFFFFFFFFFFFFFFFFFFFF AND DUP2 JUMP JUMPDEST PUSH1 0xB PUSH1 0x0 SWAP1 SLOAD SWAP1 PUSH2 0x100 EXP SWAP1 DIV PUSH20 0xFFFFFFFFFFFFFFFFFFFFFFFFFFFFFFFFFFFFFFFF AND DUP2 JUMP JUMPDEST PUSH1 0x9 SLOAD DUP2 JUMP JUMPDEST PUSH1 0x2 PUSH1 0x1 SLOAD EQ ISZERO PUSH2 0x1D48 JUMPI PUSH1 0x40 MLOAD PUSH32 0x8C379A000000000000000000000000000000000000000000000000000000000 DUP2 MSTORE PUSH1 0x4 ADD DUP1 DUP1 PUSH1 0x20 ADD DUP3 DUP2 SUB DUP3 MSTORE PUSH1 0x1F DUP2 MSTORE PUSH1 0x20 ADD DUP1 PUSH32 0x5265656E7472616E637947756172643A207265656E7472616E742063616C6C00 DUP2 MSTORE POP PUSH1 0x20 ADD SWAP2 POP POP PUSH1 0x40 MLOAD DUP1 SWAP2 SUB SWAP1 REVERT JUMPDEST PUSH1 0x2 PUSH1 0x1 DUP2 SWAP1 SSTORE POP PUSH1 0x0 PUSH1 0xC PUSH1 0x0 CALLER PUSH20 0xFFFFFFFFFFFFFFFFFFFFFFFFFFFFFFFFFFFFFFFF AND PUSH20 0xFFFFFFFFFFFFFFFFFFFFFFFFFFFFFFFFFFFFFFFF AND DUP2 MSTORE PUSH1 0x20 ADD SWAP1 DUP2 MSTORE PUSH1 0x20 ADD PUSH1 0x0 KECCAK256 SWAP1 POP PUSH1 0x0 DUP2 PUSH1 0x0 ADD SLOAD SWAP1 POP PUSH1 0x0 DUP3 PUSH1 0x0 ADD DUP2 SWAP1 SSTORE POP PUSH1 0x0 DUP3 PUSH1 0x1 ADD DUP2 SWAP1 SSTORE POP PUSH1 0x0 DUP2 GT ISZERO PUSH2 0x1E07 JUMPI PUSH2 0x1E06 CALLER DUP3 PUSH1 0xB PUSH1 0x0 SWAP1 SLOAD SWAP1 PUSH2 0x100 EXP SWAP1 DIV PUSH20 0xFFFFFFFFFFFFFFFFFFFFFFFFFFFFFFFFFFFFFFFF AND PUSH20 0xFFFFFFFFFFFFFFFFFFFFFFFFFFFFFFFFFFFFFFFF AND PUSH2 0x259E SWAP1 SWAP3 SWAP2 SWAP1 PUSH4 0xFFFFFFFF AND JUMP JUMPDEST JUMPDEST CALLER PUSH20 0xFFFFFFFFFFFFFFFFFFFFFFFFFFFFFFFFFFFFFFFF AND PUSH32 0x5FAFA99D0643513820BE26656B45130B01E1C03062E1266BF36F88CBD3BD9695 DUP4 PUSH1 0x0 ADD SLOAD PUSH1 0x40 MLOAD DUP1 DUP3 DUP2 MSTORE PUSH1 0x20 ADD SWAP2 POP POP PUSH1 0x40 MLOAD DUP1 SWAP2 SUB SWAP1 LOG2 POP POP PUSH1 0x1 DUP1 DUP2 SWAP1 SSTORE POP JUMP JUMPDEST PUSH2 0x1E6C PUSH2 0x22A1 JUMP JUMPDEST PUSH20 0xFFFFFFFFFFFFFFFFFFFFFFFFFFFFFFFFFFFFFFFF AND PUSH2 0x1E8A PUSH2 0x14C8 JUMP JUMPDEST PUSH20 0xFFFFFFFFFFFFFFFFFFFFFFFFFFFFFFFFFFFFFFFF AND EQ PUSH2 0x1F13 JUMPI PUSH1 0x40 MLOAD PUSH32 0x8C379A000000000000000000000000000000000000000000000000000000000 DUP2 MSTORE PUSH1 0x4 ADD DUP1 DUP1 PUSH1 0x20 ADD DUP3 DUP2 SUB DUP3 MSTORE PUSH1 0x20 DUP2 MSTORE PUSH1 0x20 ADD DUP1 PUSH32 0x4F776E61626C653A2063616C6C6572206973206E6F7420746865206F776E6572 DUP2 MSTORE POP PUSH1 0x20 ADD SWAP2 POP POP PUSH1 0x40 MLOAD DUP1 SWAP2 SUB SWAP1 REVERT JUMPDEST PUSH1 0x0 PUSH20 0xFFFFFFFFFFFFFFFFFFFFFFFFFFFFFFFFFFFFFFFF AND DUP2 PUSH20 0xFFFFFFFFFFFFFFFFFFFFFFFFFFFFFFFFFFFFFFFF AND EQ ISZERO PUSH2 0x1F99 JUMPI PUSH1 0x40 MLOAD PUSH32 0x8C379A000000000000000000000000000000000000000000000000000000000 DUP2 MSTORE PUSH1 0x4 ADD DUP1 DUP1 PUSH1 0x20 ADD DUP3 DUP2 SUB DUP3 MSTORE PUSH1 0x26 DUP2 MSTORE PUSH1 0x20 ADD DUP1 PUSH2 0x2B98 PUSH1 0x26 SWAP2 CODECOPY PUSH1 0x40 ADD SWAP2 POP POP PUSH1 0x40 MLOAD DUP1 SWAP2 SUB SWAP1 REVERT JUMPDEST DUP1 PUSH20 0xFFFFFFFFFFFFFFFFFFFFFFFFFFFFFFFFFFFFFFFF AND PUSH1 0x0 DUP1 SLOAD SWAP1 PUSH2 0x100 EXP SWAP1 DIV PUSH20 0xFFFFFFFFFFFFFFFFFFFFFFFFFFFFFFFFFFFFFFFF AND PUSH20 0xFFFFFFFFFFFFFFFFFFFFFFFFFFFFFFFFFFFFFFFF AND PUSH32 0x8BE0079C531659141344CD1FD0A4F28419497F9722A3DAAFE3B4186F6B6457E0 PUSH1 0x40 MLOAD PUSH1 0x40 MLOAD DUP1 SWAP2 SUB SWAP1 LOG3 DUP1 PUSH1 0x0 DUP1 PUSH2 0x100 EXP DUP2 SLOAD DUP2 PUSH20 0xFFFFFFFFFFFFFFFFFFFFFFFFFFFFFFFFFFFFFFFF MUL NOT AND SWAP1 DUP4 PUSH20 0xFFFFFFFFFFFFFFFFFFFFFFFFFFFFFFFFFFFFFFFF AND MUL OR SWAP1 SSTORE POP POP JUMP JUMPDEST PUSH1 0x0 DUP1 PUSH1 0xC PUSH1 0x0 DUP5 PUSH20 0xFFFFFFFFFFFFFFFFFFFFFFFFFFFFFFFFFFFFFFFF AND PUSH20 0xFFFFFFFFFFFFFFFFFFFFFFFFFFFFFFFFFFFFFFFF AND DUP2 MSTORE PUSH1 0x20 ADD SWAP1 DUP2 MSTORE PUSH1 0x20 ADD PUSH1 0x0 KECCAK256 SWAP1 POP PUSH1 0x0 PUSH1 0xB PUSH1 0x0 SWAP1 SLOAD SWAP1 PUSH2 0x100 EXP SWAP1 DIV PUSH20 0xFFFFFFFFFFFFFFFFFFFFFFFFFFFFFFFFFFFFFFFF AND PUSH20 0xFFFFFFFFFFFFFFFFFFFFFFFFFFFFFFFFFFFFFFFF AND PUSH4 0x70A08231 ADDRESS PUSH1 0x40 MLOAD DUP3 PUSH4 0xFFFFFFFF AND PUSH1 0xE0 SHL DUP2 MSTORE PUSH1 0x4 ADD DUP1 DUP3 PUSH20 0xFFFFFFFFFFFFFFFFFFFFFFFFFFFFFFFFFFFFFFFF AND DUP2 MSTORE PUSH1 0x20 ADD SWAP2 POP POP PUSH1 0x20 PUSH1 0x40 MLOAD DUP1 DUP4 SUB DUP2 DUP7 DUP1 EXTCODESIZE ISZERO DUP1 ISZERO PUSH2 0x2125 JUMPI PUSH1 0x0 DUP1 REVERT JUMPDEST POP GAS STATICCALL ISZERO DUP1 ISZERO PUSH2 0x2139 JUMPI RETURNDATASIZE PUSH1 0x0 DUP1 RETURNDATACOPY RETURNDATASIZE PUSH1 0x0 REVERT JUMPDEST POP POP POP POP PUSH1 0x40 MLOAD RETURNDATASIZE PUSH1 0x20 DUP2 LT ISZERO PUSH2 0x214F JUMPI PUSH1 0x0 DUP1 REVERT JUMPDEST DUP2 ADD SWAP1 DUP1 DUP1 MLOAD SWAP1 PUSH1 0x20 ADD SWAP1 SWAP3 SWAP2 SWAP1 POP POP POP SWAP1 POP PUSH1 0x6 SLOAD NUMBER GT DUP1 ISZERO PUSH2 0x2174 JUMPI POP PUSH1 0x0 DUP2 EQ ISZERO JUMPDEST ISZERO PUSH2 0x222E JUMPI PUSH1 0x0 PUSH2 0x2187 PUSH1 0x6 SLOAD NUMBER PUSH2 0x2789 JUMP JUMPDEST SWAP1 POP PUSH1 0x0 PUSH2 0x21A0 PUSH1 0x8 SLOAD DUP4 PUSH2 0x240C SWAP1 SWAP2 SWAP1 PUSH4 0xFFFFFFFF AND JUMP JUMPDEST SWAP1 POP PUSH1 0x0 PUSH2 0x21DF PUSH2 0x21CE DUP6 PUSH2 0x21C0 PUSH1 0x9 SLOAD DUP7 PUSH2 0x240C SWAP1 SWAP2 SWAP1 PUSH4 0xFFFFFFFF AND JUMP JUMPDEST PUSH2 0x2492 SWAP1 SWAP2 SWAP1 PUSH4 0xFFFFFFFF AND JUMP JUMPDEST PUSH1 0x3 SLOAD PUSH2 0x2640 SWAP1 SWAP2 SWAP1 PUSH4 0xFFFFFFFF AND JUMP JUMPDEST SWAP1 POP PUSH2 0x2222 DUP6 PUSH1 0x1 ADD SLOAD PUSH2 0x2214 PUSH1 0x9 SLOAD PUSH2 0x2206 DUP6 DUP11 PUSH1 0x0 ADD SLOAD PUSH2 0x240C SWAP1 SWAP2 SWAP1 PUSH4 0xFFFFFFFF AND JUMP JUMPDEST PUSH2 0x2492 SWAP1 SWAP2 SWAP1 PUSH4 0xFFFFFFFF AND JUMP JUMPDEST PUSH2 0x251B SWAP1 SWAP2 SWAP1 PUSH4 0xFFFFFFFF AND JUMP JUMPDEST SWAP6 POP POP POP POP POP POP PUSH2 0x2276 JUMP JUMPDEST PUSH2 0x2271 DUP3 PUSH1 0x1 ADD SLOAD PUSH2 0x2263 PUSH1 0x9 SLOAD PUSH2 0x2255 PUSH1 0x3 SLOAD DUP8 PUSH1 0x0 ADD SLOAD PUSH2 0x240C SWAP1 SWAP2 SWAP1 PUSH4 0xFFFFFFFF AND JUMP JUMPDEST PUSH2 0x2492 SWAP1 SWAP2 SWAP1 PUSH4 0xFFFFFFFF AND JUMP JUMPDEST PUSH2 0x251B SWAP1 SWAP2 SWAP1 PUSH4 0xFFFFFFFF AND JUMP JUMPDEST SWAP3 POP POP POP JUMPDEST SWAP2 SWAP1 POP JUMP JUMPDEST PUSH1 0xA PUSH1 0x0 SWAP1 SLOAD SWAP1 PUSH2 0x100 EXP SWAP1 DIV PUSH20 0xFFFFFFFFFFFFFFFFFFFFFFFFFFFFFFFFFFFFFFFF AND DUP2 JUMP JUMPDEST PUSH1 0x0 CALLER SWAP1 POP SWAP1 JUMP JUMPDEST PUSH1 0x6 SLOAD NUMBER GT PUSH2 0x22B7 JUMPI PUSH2 0x240A JUMP JUMPDEST PUSH1 0x0 PUSH1 0xB PUSH1 0x0 SWAP1 SLOAD SWAP1 PUSH2 0x100 EXP SWAP1 DIV PUSH20 0xFFFFFFFFFFFFFFFFFFFFFFFFFFFFFFFFFFFFFFFF AND PUSH20 0xFFFFFFFFFFFFFFFFFFFFFFFFFFFFFFFFFFFFFFFF AND PUSH4 0x70A08231 ADDRESS PUSH1 0x40 MLOAD DUP3 PUSH4 0xFFFFFFFF AND PUSH1 0xE0 SHL DUP2 MSTORE PUSH1 0x4 ADD DUP1 DUP3 PUSH20 0xFFFFFFFFFFFFFFFFFFFFFFFFFFFFFFFFFFFFFFFF AND DUP2 MSTORE PUSH1 0x20 ADD SWAP2 POP POP PUSH1 0x20 PUSH1 0x40 MLOAD DUP1 DUP4 SUB DUP2 DUP7 DUP1 EXTCODESIZE ISZERO DUP1 ISZERO PUSH2 0x2342 JUMPI PUSH1 0x0 DUP1 REVERT JUMPDEST POP GAS STATICCALL ISZERO DUP1 ISZERO PUSH2 0x2356 JUMPI RETURNDATASIZE PUSH1 0x0 DUP1 RETURNDATACOPY RETURNDATASIZE PUSH1 0x0 REVERT JUMPDEST POP POP POP POP PUSH1 0x40 MLOAD RETURNDATASIZE PUSH1 0x20 DUP2 LT ISZERO PUSH2 0x236C JUMPI PUSH1 0x0 DUP1 REVERT JUMPDEST DUP2 ADD SWAP1 DUP1 DUP1 MLOAD SWAP1 PUSH1 0x20 ADD SWAP1 SWAP3 SWAP2 SWAP1 POP POP POP SWAP1 POP PUSH1 0x0 DUP2 EQ ISZERO PUSH2 0x2395 JUMPI NUMBER PUSH1 0x6 DUP2 SWAP1 SSTORE POP POP PUSH2 0x240A JUMP JUMPDEST PUSH1 0x0 PUSH2 0x23A3 PUSH1 0x6 SLOAD NUMBER PUSH2 0x2789 JUMP JUMPDEST SWAP1 POP PUSH1 0x0 PUSH2 0x23BC PUSH1 0x8 SLOAD DUP4 PUSH2 0x240C SWAP1 SWAP2 SWAP1 PUSH4 0xFFFFFFFF AND JUMP JUMPDEST SWAP1 POP PUSH2 0x23F9 PUSH2 0x23E8 DUP5 PUSH2 0x23DA PUSH1 0x9 SLOAD DUP6 PUSH2 0x240C SWAP1 SWAP2 SWAP1 PUSH4 0xFFFFFFFF AND JUMP JUMPDEST PUSH2 0x2492 SWAP1 SWAP2 SWAP1 PUSH4 0xFFFFFFFF AND JUMP JUMPDEST PUSH1 0x3 SLOAD PUSH2 0x2640 SWAP1 SWAP2 SWAP1 PUSH4 0xFFFFFFFF AND JUMP JUMPDEST PUSH1 0x3 DUP2 SWAP1 SSTORE POP NUMBER PUSH1 0x6 DUP2 SWAP1 SSTORE POP POP POP POP JUMPDEST JUMP JUMPDEST PUSH1 0x0 DUP1 DUP4 EQ ISZERO PUSH2 0x241F JUMPI PUSH1 0x0 SWAP1 POP PUSH2 0x248C JUMP JUMPDEST PUSH1 0x0 DUP3 DUP5 MUL SWAP1 POP DUP3 DUP5 DUP3 DUP2 PUSH2 0x2430 JUMPI INVALID JUMPDEST DIV EQ PUSH2 0x2487 JUMPI PUSH1 0x40 MLOAD PUSH32 0x8C379A000000000000000000000000000000000000000000000000000000000 DUP2 MSTORE PUSH1 0x4 ADD DUP1 DUP1 PUSH1 0x20 ADD DUP3 DUP2 SUB DUP3 MSTORE PUSH1 0x21 DUP2 MSTORE PUSH1 0x20 ADD DUP1 PUSH2 0x2C42 PUSH1 0x21 SWAP2 CODECOPY PUSH1 0x40 ADD SWAP2 POP POP PUSH1 0x40 MLOAD DUP1 SWAP2 SUB SWAP1 REVERT JUMPDEST DUP1 SWAP2 POP POP JUMPDEST SWAP3 SWAP2 POP POP JUMP JUMPDEST PUSH1 0x0 DUP1 DUP3 GT PUSH2 0x2509 JUMPI PUSH1 0x40 MLOAD PUSH32 0x8C379A000000000000000000000000000000000000000000000000000000000 DUP2 MSTORE PUSH1 0x4 ADD DUP1 DUP1 PUSH1 0x20 ADD DUP3 DUP2 SUB DUP3 MSTORE PUSH1 0x1A DUP2 MSTORE PUSH1 0x20 ADD DUP1 PUSH32 0x536166654D6174683A206469766973696F6E206279207A65726F000000000000 DUP2 MSTORE POP PUSH1 0x20 ADD SWAP2 POP POP PUSH1 0x40 MLOAD DUP1 SWAP2 SUB SWAP1 REVERT JUMPDEST DUP2 DUP4 DUP2 PUSH2 0x2512 JUMPI INVALID JUMPDEST DIV SWAP1 POP SWAP3 SWAP2 POP POP JUMP JUMPDEST PUSH1 0x0 DUP3 DUP3 GT ISZERO PUSH2 0x2593 JUMPI PUSH1 0x40 MLOAD PUSH32 0x8C379A000000000000000000000000000000000000000000000000000000000 DUP2 MSTORE PUSH1 0x4 ADD DUP1 DUP1 PUSH1 0x20 ADD DUP3 DUP2 SUB DUP3 MSTORE PUSH1 0x1E DUP2 MSTORE PUSH1 0x20 ADD DUP1 PUSH32 0x536166654D6174683A207375627472616374696F6E206F766572666C6F770000 DUP2 MSTORE POP PUSH1 0x20 ADD SWAP2 POP POP PUSH1 0x40 MLOAD DUP1 SWAP2 SUB SWAP1 REVERT JUMPDEST DUP2 DUP4 SUB SWAP1 POP SWAP3 SWAP2 POP POP JUMP JUMPDEST PUSH2 0x263B DUP4 PUSH4 0xA9059CBB PUSH1 0xE0 SHL DUP5 DUP5 PUSH1 0x40 MLOAD PUSH1 0x24 ADD DUP1 DUP4 PUSH20 0xFFFFFFFFFFFFFFFFFFFFFFFFFFFFFFFFFFFFFFFF AND DUP2 MSTORE PUSH1 0x20 ADD DUP3 DUP2 MSTORE PUSH1 0x20 ADD SWAP3 POP POP POP PUSH1 0x40 MLOAD PUSH1 0x20 DUP2 DUP4 SUB SUB DUP2 MSTORE SWAP1 PUSH1 0x40 MSTORE SWAP1 PUSH28 0xFFFFFFFFFFFFFFFFFFFFFFFFFFFFFFFFFFFFFFFFFFFFFFFFFFFFFFFF NOT AND PUSH1 0x20 DUP3 ADD DUP1 MLOAD PUSH28 0xFFFFFFFFFFFFFFFFFFFFFFFFFFFFFFFFFFFFFFFFFFFFFFFFFFFFFFFF DUP4 DUP2 DUP4 AND OR DUP4 MSTORE POP POP POP POP PUSH2 0x27DE JUMP JUMPDEST POP POP POP JUMP JUMPDEST PUSH1 0x0 DUP1 DUP3 DUP5 ADD SWAP1 POP DUP4 DUP2 LT ISZERO PUSH2 0x26BE JUMPI PUSH1 0x40 MLOAD PUSH32 0x8C379A000000000000000000000000000000000000000000000000000000000 DUP2 MSTORE PUSH1 0x4 ADD DUP1 DUP1 PUSH1 0x20 ADD DUP3 DUP2 SUB DUP3 MSTORE PUSH1 0x1B DUP2 MSTORE PUSH1 0x20 ADD DUP1 PUSH32 0x536166654D6174683A206164646974696F6E206F766572666C6F770000000000 DUP2 MSTORE POP PUSH1 0x20 ADD SWAP2 POP POP PUSH1 0x40 MLOAD DUP1 SWAP2 SUB SWAP1 REVERT JUMPDEST DUP1 SWAP2 POP POP SWAP3 SWAP2 POP POP JUMP JUMPDEST PUSH2 0x2783 DUP5 PUSH4 0x23B872DD PUSH1 0xE0 SHL DUP6 DUP6 DUP6 PUSH1 0x40 MLOAD PUSH1 0x24 ADD DUP1 DUP5 PUSH20 0xFFFFFFFFFFFFFFFFFFFFFFFFFFFFFFFFFFFFFFFF AND DUP2 MSTORE PUSH1 0x20 ADD DUP4 PUSH20 0xFFFFFFFFFFFFFFFFFFFFFFFFFFFFFFFFFFFFFFFF AND DUP2 MSTORE PUSH1 0x20 ADD DUP3 DUP2 MSTORE PUSH1 0x20 ADD SWAP4 POP POP POP POP PUSH1 0x40 MLOAD PUSH1 0x20 DUP2 DUP4 SUB SUB DUP2 MSTORE SWAP1 PUSH1 0x40 MSTORE SWAP1 PUSH28 0xFFFFFFFFFFFFFFFFFFFFFFFFFFFFFFFFFFFFFFFFFFFFFFFFFFFFFFFF NOT AND PUSH1 0x20 DUP3 ADD DUP1 MLOAD PUSH28 0xFFFFFFFFFFFFFFFFFFFFFFFFFFFFFFFFFFFFFFFFFFFFFFFFFFFFFFFF DUP4 DUP2 DUP4 AND OR DUP4 MSTORE POP POP POP POP PUSH2 0x27DE JUMP JUMPDEST POP POP POP POP JUMP JUMPDEST PUSH1 0x0 PUSH1 0x4 SLOAD DUP3 GT PUSH2 0x27AE JUMPI PUSH2 0x27A7 DUP4 DUP4 PUSH2 0x251B SWAP1 SWAP2 SWAP1 PUSH4 0xFFFFFFFF AND JUMP JUMPDEST SWAP1 POP PUSH2 0x27D8 JUMP JUMPDEST PUSH1 0x4 SLOAD DUP4 LT PUSH2 0x27C0 JUMPI PUSH1 0x0 SWAP1 POP PUSH2 0x27D8 JUMP JUMPDEST PUSH2 0x27D5 DUP4 PUSH1 0x4 SLOAD PUSH2 0x251B SWAP1 SWAP2 SWAP1 PUSH4 0xFFFFFFFF AND JUMP JUMPDEST SWAP1 POP JUMPDEST SWAP3 SWAP2 POP POP JUMP JUMPDEST PUSH1 0x60 PUSH2 0x2840 DUP3 PUSH1 0x40 MLOAD DUP1 PUSH1 0x40 ADD PUSH1 0x40 MSTORE DUP1 PUSH1 0x20 DUP2 MSTORE PUSH1 0x20 ADD PUSH32 0x5361666542455032303A206C6F772D6C6576656C2063616C6C206661696C6564 DUP2 MSTORE POP DUP6 PUSH20 0xFFFFFFFFFFFFFFFFFFFFFFFFFFFFFFFFFFFFFFFF AND PUSH2 0x28CD SWAP1 SWAP3 SWAP2 SWAP1 PUSH4 0xFFFFFFFF AND JUMP JUMPDEST SWAP1 POP PUSH1 0x0 DUP2 MLOAD GT ISZERO PUSH2 0x28C8 JUMPI DUP1 DUP1 PUSH1 0x20 ADD SWAP1 MLOAD PUSH1 0x20 DUP2 LT ISZERO PUSH2 0x2861 JUMPI PUSH1 0x0 DUP1 REVERT JUMPDEST DUP2 ADD SWAP1 DUP1 DUP1 MLOAD SWAP1 PUSH1 0x20 ADD SWAP1 SWAP3 SWAP2 SWAP1 POP POP POP PUSH2 0x28C7 JUMPI PUSH1 0x40 MLOAD PUSH32 0x8C379A000000000000000000000000000000000000000000000000000000000 DUP2 MSTORE PUSH1 0x4 ADD DUP1 DUP1 PUSH1 0x20 ADD DUP3 DUP2 SUB DUP3 MSTORE PUSH1 0x2A DUP2 MSTORE PUSH1 0x20 ADD DUP1 PUSH2 0x2B6E PUSH1 0x2A SWAP2 CODECOPY PUSH1 0x40 ADD SWAP2 POP POP PUSH1 0x40 MLOAD DUP1 SWAP2 SUB SWAP1 REVERT JUMPDEST JUMPDEST POP POP POP JUMP JUMPDEST PUSH1 0x60 PUSH2 0x28DC DUP5 DUP5 PUSH1 0x0 DUP6 PUSH2 0x28E5 JUMP JUMPDEST SWAP1 POP SWAP4 SWAP3 POP POP POP JUMP JUMPDEST PUSH1 0x60 DUP3 SELFBALANCE LT ISZERO PUSH2 0x2940 JUMPI PUSH1 0x40 MLOAD PUSH32 0x8C379A000000000000000000000000000000000000000000000000000000000 DUP2 MSTORE PUSH1 0x4 ADD DUP1 DUP1 PUSH1 0x20 ADD DUP3 DUP2 SUB DUP3 MSTORE PUSH1 0x26 DUP2 MSTORE PUSH1 0x20 ADD DUP1 PUSH2 0x2BEC PUSH1 0x26 SWAP2 CODECOPY PUSH1 0x40 ADD SWAP2 POP POP PUSH1 0x40 MLOAD DUP1 SWAP2 SUB SWAP1 REVERT JUMPDEST PUSH2 0x2949 DUP6 PUSH2 0x2A8E JUMP JUMPDEST PUSH2 0x29BB JUMPI PUSH1 0x40 MLOAD PUSH32 0x8C379A000000000000000000000000000000000000000000000000000000000 DUP2 MSTORE PUSH1 0x4 ADD DUP1 DUP1 PUSH1 0x20 ADD DUP3 DUP2 SUB DUP3 MSTORE PUSH1 0x1D DUP2 MSTORE PUSH1 0x20 ADD DUP1 PUSH32 0x416464726573733A2063616C6C20746F206E6F6E2D636F6E7472616374000000 DUP2 MSTORE POP PUSH1 0x20 ADD SWAP2 POP POP PUSH1 0x40 MLOAD DUP1 SWAP2 SUB SWAP1 REVERT JUMPDEST PUSH1 0x0 PUSH1 0x60 DUP7 PUSH20 0xFFFFFFFFFFFFFFFFFFFFFFFFFFFFFFFFFFFFFFFF AND DUP6 DUP8 PUSH1 0x40 MLOAD DUP1 DUP3 DUP1 MLOAD SWAP1 PUSH1 0x20 ADD SWAP1 DUP1 DUP4 DUP4 JUMPDEST PUSH1 0x20 DUP4 LT PUSH2 0x2A0B JUMPI DUP1 MLOAD DUP3 MSTORE PUSH1 0x20 DUP3 ADD SWAP2 POP PUSH1 0x20 DUP2 ADD SWAP1 POP PUSH1 0x20 DUP4 SUB SWAP3 POP PUSH2 0x29E8 JUMP JUMPDEST PUSH1 0x1 DUP4 PUSH1 0x20 SUB PUSH2 0x100 EXP SUB DUP1 NOT DUP3 MLOAD AND DUP2 DUP5 MLOAD AND DUP1 DUP3 OR DUP6 MSTORE POP POP POP POP POP POP SWAP1 POP ADD SWAP2 POP POP PUSH1 0x0 PUSH1 0x40 MLOAD DUP1 DUP4 SUB DUP2 DUP6 DUP8 GAS CALL SWAP3 POP POP POP RETURNDATASIZE DUP1 PUSH1 0x0 DUP2 EQ PUSH2 0x2A6D JUMPI PUSH1 0x40 MLOAD SWAP2 POP PUSH1 0x1F NOT PUSH1 0x3F RETURNDATASIZE ADD AND DUP3 ADD PUSH1 0x40 MSTORE RETURNDATASIZE DUP3 MSTORE RETURNDATASIZE PUSH1 0x0 PUSH1 0x20 DUP5 ADD RETURNDATACOPY PUSH2 0x2A72 JUMP JUMPDEST PUSH1 0x60 SWAP2 POP JUMPDEST POP SWAP2 POP SWAP2 POP PUSH2 0x2A82 DUP3 DUP3 DUP7 PUSH2 0x2AA1 JUMP JUMPDEST SWAP3 POP POP POP SWAP5 SWAP4 POP POP POP POP JUMP JUMPDEST PUSH1 0x0 DUP1 DUP3 EXTCODESIZE SWAP1 POP PUSH1 0x0 DUP2 GT SWAP2 POP POP SWAP2 SWAP1 POP JUMP JUMPDEST PUSH1 0x60 DUP4 ISZERO PUSH2 0x2AB1 JUMPI DUP3 SWAP1 POP PUSH2 0x2B66 JUMP JUMPDEST PUSH1 0x0 DUP4 MLOAD GT ISZERO PUSH2 0x2AC4 JUMPI DUP3 MLOAD DUP1 DUP5 PUSH1 0x20 ADD REVERT JUMPDEST DUP2 PUSH1 0x40 MLOAD PUSH32 0x8C379A000000000000000000000000000000000000000000000000000000000 DUP2 MSTORE PUSH1 0x4 ADD DUP1 DUP1 PUSH1 0x20 ADD DUP3 DUP2 SUB DUP3 MSTORE DUP4 DUP2 DUP2 MLOAD DUP2 MSTORE PUSH1 0x20 ADD SWAP2 POP DUP1 MLOAD SWAP1 PUSH1 0x20 ADD SWAP1 DUP1 DUP4 DUP4 PUSH1 0x0 JUMPDEST DUP4 DUP2 LT ISZERO PUSH2 0x2B2B JUMPI DUP1 DUP3 ADD MLOAD DUP2 DUP5 ADD MSTORE PUSH1 0x20 DUP2 ADD SWAP1 POP PUSH2 0x2B10 JUMP JUMPDEST POP POP POP POP SWAP1 POP SWAP1 DUP2 ADD SWAP1 PUSH1 0x1F AND DUP1 ISZERO PUSH2 0x2B58 JUMPI DUP1 DUP3 SUB DUP1 MLOAD PUSH1 0x1 DUP4 PUSH1 0x20 SUB PUSH2 0x100 EXP SUB NOT AND DUP2 MSTORE PUSH1 0x20 ADD SWAP2 POP JUMPDEST POP SWAP3 POP POP POP PUSH1 0x40 MLOAD DUP1 SWAP2 SUB SWAP1 REVERT JUMPDEST SWAP4 SWAP3 POP POP POP JUMP INVALID MSTORE8 PUSH2 0x6665 TIMESTAMP GASLIMIT POP ORIGIN ADDRESS GASPRICE KECCAK256 TIMESTAMP GASLIMIT POP ORIGIN ADDRESS KECCAK256 PUSH16 0x7065726174696F6E20646964206E6F74 KECCAK256 PUSH20 0x7563636565644F776E61626C653A206E6577206F PUSH24 0x6E657220697320746865207A65726F20616464726573734E PUSH6 0x772073746172 PUSH21 0x426C6F636B206D757374206265206C6F7765722074 PUSH9 0x616E206E657720656E PUSH5 0x426C6F636B COINBASE PUSH5 0x6472657373 GASPRICE KECCAK256 PUSH10 0x6E73756666696369656E PUSH21 0x2062616C616E636520666F722063616C6C4E657720 PUSH20 0x74617274426C6F636B206D757374206265206869 PUSH8 0x686572207468616E KECCAK256 PUSH4 0x75727265 PUSH15 0x7420626C6F636B536166654D617468 GASPRICE KECCAK256 PUSH14 0x756C7469706C69636174696F6E20 PUSH16 0x766572666C6F77A26469706673582212 KECCAK256 PUSH5 0xCBDD58853D 0xEA SWAP16 SLOAD PUSH32 0xA56609930EEFD6A5B7189933B1B68D0575BF49AA607064736F6C634300060C00 CALLER 0x4F PUSH24 0x6E61626C653A206E6577206F776E65722069732074686520 PUSH27 0x65726F2061646472657373A26469706673582212204D918CEDE362 SLT 0xB2 LOG1 0x49 0xC9 CALLDATALOAD PUSH23 0x4B61B84D810692F68856433E9FAB69B1B7E4E264736F6C PUSH4 0x4300060C STOP CALLER "
				},
				"gasEstimates": {
					"creation": {
						"codeDepositCost": "2806000",
						"executionCost": "infinite",
						"totalCost": "infinite"
					},
					"external": {
						"deployPool(address,address,uint256,uint256,uint256,uint256,address)": "infinite",
						"owner()": "1055",
						"renounceOwnership()": "24307",
						"transferOwnership(address)": "infinite"
					}
				},
				"methodIdentifiers": {
					"deployPool(address,address,uint256,uint256,uint256,uint256,address)": "cc8402f5",
					"owner()": "8da5cb5b",
					"renounceOwnership()": "715018a6",
					"transferOwnership(address)": "f2fde38b"
				}
			},
			"storageLayout": {
				"storage": [
					{
						"astId": 28,
						"contract": "smartChefFactory2.sol:SmartChefFactory",
						"label": "_owner",
						"offset": 0,
						"slot": "0",
						"type": "t_address"
					}
				],
				"types": {
					"t_address": {
						"encoding": "inplace",
						"label": "address",
						"numberOfBytes": "20"
					}
				}
			},
			"userdoc": {
				"kind": "user",
				"methods": {},
				"version": 1
			}
		}
	}
}